:020000040800F2
:10000000984C002059020008193E000815370008D6
:10001000153E000899030008677200080000000000
:100020000000000000000000000000009D0100082A
:10003000DD04000800000000F1010008A13E0008F6
:1000400073020008730200087302000873020008BC
:1000500073020008730200087302000873020008AC
:10006000730200087302000873020008730200089C
:10007000730200087302000873020008730200088C
:100080009D03000873020008730200087302000851
:10009000730200087302000873020008730200086C
:1000A0007302000809400008730200087302000888
:1000B000730200087302000873020008730200084C
:1000C000730200087302000873020008730200083C
:1000D000730200087302000873020008730200082C
:1000E000730200087302000873020008730200081C
:1000F0007302000839400008730200087302000808
:10010000730200087302000819400008653E0008E9
:1001100073020008730200082940000873020008F7
:1001200073020008730200087302000873020008DB
:1001300073020008730200087302000873020008CB
:10014000730200087302000873020008553E00089D
:1001500073020008730200087302000873020008AB
:10016000730200087302000873020008730200089B
:100170007302000873020008730200080000000008
:100180007302000873020008DFF80CD000F0F2F8E8
:1001900000480047E9720008984C00202B4B196872
:1001A0000868B0E8F04F80F30988BFF36F8F4FF015
:1001B000000080F3118870470000000006480068C6
:1001C000006880F3088862B661B6BFF34F8FBFF353
:1001D0006F8F00DF00BF00BF08ED00E0DFF80C000C
:1001E000016841F470010160704700BF88ED00E0D4
:1001F000EFF30980BFF36F8F144B1A681EF0100FD6
:1002000008BF20ED108A20E9F04F106008B44FF0CD
:10021000500080F31188BFF34F8FBFF36F8F07F04B
:10022000FBFE4FF0000080F3118808BC19680868D5
:10023000B0E8F04F1EF0100F08BFB0EC108A80F34A
:100240000988BFF36F8F704700BF00BF24000020F4
:10025000EFF30580704700000648804706480047D6
:10026000FEE7FEE7FEE7FEE7FEE7FEE7FEE7FEE766
:10027000FEE7FEE7A53F0008890100082DE9F05FD1
:100280000546002092469B46884606468146402405
:100290001BE0284641464746224600F05AF853469E
:1002A0005A46C01A914110D311461846224600F012
:1002B00041F82D1A67EB01084F4622460120002124
:1002C00000F038F817EB00094E41201EA4F101049C
:1002D000DFDC484631462A464346BDE8F09F40EA07
:1002E00001039B0703D009E008C9121F08C0042AB4
:1002F000FAD203E011F8013B00F8013B521EF9D29B
:100300007047D2B201E000F8012B491EFBD27047C2
:100310000022F6E710B513460A4604461946FFF7D1
:10032000F0FF204610BD421C10F8011B0029FBD134
:10033000801A7047202A04DB203A00FA02F10020DC
:1003400070479140C2F1200320FA03F31943904013
:100350007047202A04DB203A21FA02F0002170477E
:1003600021FA02F3D040C2F120029140084319461D
:1003700070470000064C074D06E0E06840F00103BE
:1003800094E8070098471034AC42F6D3FFF700FF1B
:100390003C8C00085C8C000800BFFEE710B50248EA
:1003A00000F0D2F810BD0000480100200146087896
:1003B00010381823B0FBF3F20848805CC865032AA4
:1003C00005D908686FF30900001D886503E0086817
:1003D0006FF309008865886D70470000CC8B0008BA
:1003E000014600208A6A8B69CBB932B1012A0DD04F
:1003F000022A03D0032A10D10EE000BFCB6A03F01B
:100400008073B3F1807F00D1012007E0CB6AB3F1A4
:10041000C07F00D1012001E000E000BF34E08B6923
:10042000B3F5005F1AD132B1012A07D0022A03D0F6
:10043000032A11D10AE000BF01200EE0CB6A03F0CD
:100440008073B3F1807F00D1012006E0CB6AB3F165
:10045000C07F00D1012000E000BF15E032B1012AC9
:1004600005D0022A04D0032A0CD103E000BF00BF4C
:10047000012008E0CB6A03F08073B3F1807F00D1E4
:10048000012000E000BF00BF70470146002205E0E8
:10049000002301F55F7040F82230521C0F2AF7D379
:1004A000002204E0002301F58E708354521CB2F543
:1004B000007FF7D30020087048700120887000206A
:1004C000C1F8B80301230B7640238B7100234B76D0
:1004D00081F81C33012381F81D3370477047704742
:1004E00030B504460D4600222946204600F002F8A9
:1004F00030BD0000F0B50346012500241148407AC4
:1005000001281CDA00200F4E767A0E4FB855384677
:10051000467A001D40F82630001F467A0830825582
:100520003E46707A461C7E72044604F13000087024
:100530003A2048702F2088700020C8700025284677
:10054000F0BD000098090020F8B504460020009096
:100550008C4800684FF41651B0FBF1F7A56D2E687A
:1005600094F85C1008208840304098B120680068FA
:1005700000F0040070B12068006820F004002168D9
:10058000086094F85C1008208840A860606D40F016
:100590000100606594F85C1001208840304068B12B
:1005A0002068406900F0800040B194F85C100120A0
:1005B0008840A860606D40F00200606594F85C10AF
:1005C00004208840304068B12068006800F00200D4
:1005D00040B194F85C1004208840A860606D40F041
:1005E0000400606594F85C1010208840304078B3B7
:1005F0002068006800F0080050B394F85C101020E8
:100600008840A8602068006800F4802080B12068DD
:10061000006800F4002028B9206CC8B12046216C85
:10062000884715E0A06C98B12046A16C88470FE080
:100630002068006800F4807028B92068006820F005
:10064000080021680860206C10B12046216C8847A2
:1006500094F85C10202088403040002865D0206845
:10066000006800F0100000285FD094F85C10202093
:100670008840A86094F83500052828D120680068D3
:1006800020F01600216808602068406920F0800092
:1006900021684861206C08B9A06C28B12068006806
:1006A00020F008002168086094F85C103F20884022
:1006B000A86000BF002084F8340000BF012084F847
:1006C0003500206D10B12046216D8847F8BD2068A7
:1006D000006800F4802080B12068006800F40020E9
:1006E00028B9606C10B12046616C88471DE0E06B52
:1006F000D8B12046E16B884717E02068006800F415
:10070000807068B92068006820F0100021680860D7
:1007100000BF002084F8340000BF012084F83500B9
:10072000E06B10B12046E16B8847606D38B3606DB7
:1007300000F00100F0B1052084F835002068006861
:1007400020F001002168086000BF0098401C009064
:10075000B84200D905E02068006800F001000028D8
:10076000F3D100BF00BF002084F8340000BF012097
:1007700084F83500E06C10B12046E16C884700BF7A
:10078000A4E70000200000202DE9F04104460025E8
:1007900000F08EF9074614B90120BDE8F081606AC7
:1007A00000B100BF00BF002084F8340000BF022069
:1007B00084F835002068006820F001002168086096
:1007C0000AE000F075F9C01B052805D920206065F6
:1007D000032084F83500E0E72068006800F001009D
:1007E0000028EED12068056821480540D4E90101C0
:1007F0000843E16808432169084361690843A16926
:100800000843E1690843216A08430543606A0428F4
:1008100003D1D4E90B010843054320680560206833
:10082000456925F00705606A0543606A04280DD113
:10083000A06A0543E06A48B12046FFF7D1FD28B120
:1008400040206065012084F83500A6E720684561F6
:100850002046FFF7ABFD064694F85C103F20884029
:10086000B06000206065012084F83500002094E726
:100870003F8010F070B5044600F01AF90646254690
:10088000681C10B104480078054400BF00F010F95E
:10089000801BA842FAD370BD1C000020F8B50246A8
:1008A0000B460025002400200021DCE0012606FA8A
:1008B00001F51E6806EA0504AC4273D15E68022E9B
:1008C00002D05E68122E13D1CF0802F1200656F82E
:1008D00027004E07F70E0F26BE40B0434F07FF0E0E
:1008E0001E69BE403043CF0802F1200646F82700BB
:1008F00010684F000326BE40B0431E7906F0030681
:100900004F00BE40304310605E68012E08D05E6824
:10091000022E05D05E68112E02D05E68122E13D111
:1009200090684F000326BE40B0434F00DE68BE40D3
:1009300030439060506801268E40B0431E79C6F364
:1009400000168E4030435060D0684F000326BE40F2
:10095000B0434F009E68BE403043D0605E6806F0F2
:100960008056B6F1805F7DD100BF00260096404ED4
:10097000366846F480463E4F3E603E46366806F492
:100980008046009600BF00BF3A4E8F0856F82700F9
:100990008E07370F0F26BE40B043374EB24202D10A
:1009A000002624E05EE0354EB24201D101261EE071
:1009B000334EB24201D1022619E0324EB24201D189
:1009C000032614E0304EB24201D104260FE02F4E30
:1009D000B24201D105260AE02D4EB24201D10626CF
:1009E00005E02C4EB24201D1072600E008268F0711
:1009F0003F0FBE4030431F4E8F0846F82700264E5B
:100A00003068A0435E6806F48036B6F5803F00D1BA
:100A10002043214E3060361D3068A0435E6806F4E6
:100A20000036B6F5003F00D120431B4E361D306026
:100A3000361D3068A0435E6806F48016B6F5801F48
:100A400000D12043144E08363060361D3068A04374
:100A50005E6806F40016B6F5001F00D120430E4E66
:100A60000C363060491C1029FFF420AFF8BD00009F
:100A700044380240083801400000024000040240AF
:100A800000080240000C0240001002400014024026
:100A900000180240001C0240003C014042694A40EC
:100AA000426170470AB1816101E00B0483617047C4
:100AB00001480068704700001400002010B504468B
:100AC000D4F8940204F05CF910BD10B50446D4F8D3
:100AD000940204F072F910BD10B50446206806F0C7
:100AE00031F810BD10B50446206806F031F810BD8D
:100AF000024601EB810302F1380000EBC30090F8DD
:100B000024007047024601EB810302F1380000EB3C
:100B1000C3004069704770B504460D46002600BF0B
:100B200094F89002012801D1022070BD012084F8C0
:100B3000900200BF2946206806F018F800BF002088
:100B400084F8900200BF3046EFE72DE9FE4F0446DF
:100B50000D4616461F46DDE90D9ADDF830804FF050
:100B6000000B00BF94F89002012802D10220BDE8DA
:100B7000FE8F012084F8900200BF05EB850104F18F
:100B8000380000F8317005EB850100EBC100A0F8DA
:100B900008A005EB850104F1380000EBC1004570A9
:100BA00005EB850104F1380000EBC10080F80790E7
:100BB00006F07F0105EB850204F1380000EBC2006E
:100BC0008170C6F3C01105EB850204F1380000EB1B
:100BD000C200C17005EB850104F1380000EBC100D3
:100BE00080F804808DE800073B463246294620689D
:100BF00006F060F8834600BF002084F8900200BF32
:100C00005846B4E770B504460D461646D4F894022B
:100C100004F086F970BD2DE9F05F04460D461646D6
:100C20001F46DDE90BB9DDF834A0DDF8288005EBBF
:100C3000850104F1380000EBC100C67005EB8501A9
:100C400004F1380000EBC100C771B8F1000F08D102
:100C5000032105EB850204F1380000EBC20081722C
:100C600007E0022105EB850204F1380000EBC20029
:100C7000817237B1012F7DD0022F3DD0032F3AD1A1
:100C800082E0B8F1010F36D1AEBBB9F1000F07D148
:100C9000012105EB850204F1380000EBC20041762A
:100CA00005EB850104F1380000EBC100407E40B93E
:100CB000002105EB850204F1380000EBC2008172CF
:100CC00007E0022105EB850204F1380000EBC200C9
:100CD000817205EB850104F1380000EBC10090F84A
:100CE0002400022807D005EB850104F1380000EB51
:100CF000C10080F805A085E05EBB05EB850104F12D
:100D0000380000EBC100407E40B9002105EB8502B0
:100D100004F1380000EBC200817207E0022105EB0C
:100D2000850204F1380000EBC200817205EB8501F9
:100D300004F1380000EBC10090F82400022822D012
:100D400005EB850104F1380000EBC10080F805A037
:100D500019E005EB850104F1380000EBC100007ECD
:100D600048B9002105EB850204F1380000EBC20010
:100D7000817208E03DE0022105EB850204F13800B4
:100D800000EBC20081723DE0CEB905EB850104F1B4
:100D9000380000EBC100407E40B9002105EB850220
:100DA00004F1380000EBC200817221E0022105EB62
:100DB000850204F1380000EBC200817218E005EBF7
:100DC000850104F1380000EBC100007E40B900212C
:100DD00005EB850204F1380000EBC200817207E0E8
:100DE000022105EB850204F1380000EBC20081729C
:100DF00008E0002105EB850204F1380000EBC20099
:100E0000817200BF00BF05EB850104F1380000EBE3
:100E1000C100C0F80CB005EB850104F1380000EB0F
:100E2000C100C0F81090002105EB850204F13800E4
:100E300000EBC20080F8241005EB850204F13800B5
:100E400000EBC200416105EB850104F1380000EBC5
:100E5000C1004570002105EB850204F1380000EB6C
:100E6000C20080F82510227C05EB850C04F13803C4
:100E700003EBCC01206805F0E7FFBDE8F09F2DE90A
:100E8000F0410446266800250027206805F069FE29
:100E9000012871D1206806F030F908B9BDE8F08169
:100EA000206806F02AF900F40010B0F5001F03D105
:100EB0004FF4001021684861206806F01EF900F424
:100EC0008010B0F5801F03D14FF480102168486175
:100ED000206806F012F900F08060B0F1806F03D155
:100EE0004FF0806021684861206806F006F900F044
:100EF0000200022801D121684861206806F0FDF84F
:100F000000F00050B0F1005F10D1D6F8400420F09E
:100F10002E00C6F840042046FFF7D7FD01212068C7
:100F200006F0CCF84FF0005021684861206806F0C8
:100F3000E4F800F08070B0F1807F02D1204602F02A
:100F4000FBFA206806F0D9F800F00800082805D15F
:100F5000204600F0C3F8082021684861206806F0A8
:100F6000CCF800F00070B0F1007F23D1206805F0CC
:100F700065FF0746002516E032E00120A840384012
:100F800080B106F5A06000EB4510006800F4004059
:100F900020B1E9B2204601F0EEFD03E0E9B22046BF
:100FA00002F062F86D1CA068A842E6D84FF000700D
:100FB00021684861206806F0A0F800F010001028B1
:100FC0000ED12068806920F01000216888612046D9
:100FD00002F01CFB2068806940F0100021688861E5
:100FE00000BF5BE710B58AB0044614B901200AB00F
:100FF00010BD032084F89102204600F021F82068FB
:1010000005F020FD282204F110016846FFF767F97A
:1010100094E80F0005F0B8FC0121206806F09CF868
:10102000282204F110016846FFF759F994E80F00EF
:1010300005F0CEFF012084F891020020D7E70000E0
:1010400010B586B004462068B0F1A04F39D14FF4F6
:101050000070019000200290039001A91A48FFF748
:101060001DFC4FF4E05001900220029000200390FC
:1010700004900A20059001A91348FFF70FFC00BF58
:101080001248006840F080001049086000BF00204E
:1010900000900E481030006840F480400B49103139
:1010A00008600846006800F48040009000BF00BF60
:1010B00000BF00220521432000F085FC432000F002
:1010C00075FC06B010BD000000000240343802403C
:1010D00010B50446206806F027F810BD10B5044688
:1010E000D4F8940203F0E4FE10BD10B5044600BF2E
:1010F00094F89002012801D1022010BD012084F84B
:10110000900200BF206805F0E7FC0121206805F08F
:10111000C1FC00BF002084F8900200BF00BFECE7D4
:1011200010B5044600BF94F89002012801D10220B6
:1011300010BD012084F8900200BF206806F024F85A
:1011400000BF002084F8900200BF00BFF0E700005D
:1011500070B50446002600250CB9012070BD94F836
:101160003D0028B9002084F83C00204600F084F8B7
:10117000242084F83D002068006820F001002168E8
:10118000086000F073FE05463948B5FBF0F62068AC
:10119000466038496068884201D8701C07E04FF407
:1011A000967070434FF47A71B0FBF1F0401C2168E7
:1011B00008623049606888420ED860684000B5FB1C
:1011C000F0F0C0F30B00042801D204202DE0606889
:1011D0004000B5FBF0F028E0A06828B9606800EB9B
:1011E0004000B5FBF0F008E0606800EBC00101EBE7
:1011F0000010B5FBF0F040F48040C0F30B0008B9DC
:10120000012012E0A06828B9606800EB4000B5FB3F
:10121000F0F008E0606800EBC00101EB0010B5FBE6
:10122000F0F040F4804040F400402168C861D4E907
:101230000701084321680860D4E9031008432168C6
:101240008860D4E9050108432168C8602068006807
:1012500040F001002168086000202064202084F80C
:101260003D000020206384F83E0000BF76E70000C8
:1012700040420F00A086010010B586B0044614213C
:1012800001A8FFF745F81B492068884230D100BF0C
:10129000002000901848006840F0020016490860DD
:1012A0000846006800F00200009000BF00BF4FF445
:1012B00010700190122002900120039000200490F1
:1012C0000420059001A90D48FFF7E8FA00BF0020AF
:1012D000009009481030006840F4001006491031B1
:1012E00008600846006800F40010009000BF00BFCE
:1012F00006B010BD005400403038024000040240E7
:101300003EB504462068806802909E492068884265
:1013100001D19D4801E04FF0402080680190206895
:10132000C06900F44070B0F5007F05D02068C06946
:1013300000F4407000287AD1029800F002000228E0
:1013400008D120684068C0F3C01018B100212046C1
:1013500002F038FA019800F0010078B1894920685C
:10136000884201D1884801E04FF040204068C0F336
:10137000801018B10121204602F0CEF9019800F04A
:10138000400040283BD17F492068884201D17E48F7
:1013900001E04FF040204068C0F3401078B3794935
:1013A0002068884201D1784801E04FF04020406831
:1013B00020F06000734A2168914201D1724901E036
:1013C0004FF040214860206840684FF65F71084048
:1013D0002168486000BF002000902068C06800902D
:1013E00020688068009000BF00BF012084F84100A1
:1013F000606C40F002006064204600F0C8F802987B
:1014000000F00800082833D120684068C0F340107D
:1014100000282DD0206840684FF65F710840216891
:10142000486058492068884202D1574802E020E0CD
:101430004FF04020406820F06000524A21689142FD
:1014400001D1514901E04FF04021486000BF002028
:10145000009020688068009000BF00BF012084F8E1
:101460004100606C40F004006064204600F08FF89A
:1014700086E0019800F0020002280FD1414920685F
:10148000884201D1404801E04FF040204068C0F35D
:10149000C01018B10121204602F094F9029800F022
:1014A000010040B120684068C0F3801018B10021ED
:1014B000204602F031F9029800F04000402829D17E
:1014C00020684068C0F3401020B3206840684FF6A1
:1014D0009F710840216848602A492068884201D1EC
:1014E000294801E04FF04020406820F0A000254A44
:1014F0002168914201D1244901E04FF04021486028
:10150000012084F84100606C40F0020060642046D5
:1015100000F03DF8019800F00800082830D1194982
:101520002068884201D1184801E04FF0402040680F
:10153000C0F3401020B313492068884201D11248FB
:1015400001E04FF04020406820F0A0000D4A2168E3
:10155000914201D10C4901E04FF0402148602068E0
:1015600040684FF69F71084021684860012084F868
:101570004100606C40F004006064204600F007F811
:101580003EBD000000380040003400407047704706
:1015900010B504462046616B884710BD2DE9F04721
:1015A000044600264FF00208B14610270025AA463F
:1015B00014B90120BDE8F087022084F84100644896
:1015C0006063204600F0CCF82068C06940F6BF7127
:1015D00088432168C8610220216808622068C669C2
:1015E000606902283CD0E06808B1202700E010279D
:1015F000A068202800D87F00012000F037FA82463A
:101600002069B0F5007F17D1E06850B1B800BAFB8F
:10161000F0F000EB800041006069B1FBF0F0451D87
:1016200013E0F800BAFBF0F000EB800041006069C5
:10163000B1FBF0F0451D08E0BAFBF7F000EB8000CD
:1016400041006069B1FBF0F0451D0A20B5FBF0F5E3
:1016500005F00109A5EB0900C0F34F084FEA09297D
:10166000B8F1020F02D3B8F1FF0F0CD94FF0020806
:101670004FF00009606C40F0100060642046FFF7F6
:1016800086FF012096E7206940EA090040EA080049
:1016900021680862A089218B084321890843A18819
:1016A000084380B240F4006006432068C661206AA7
:1016B000012846D12748606327492068884201D124
:1016C000264801E04FF04020C06940F6BF718843D2
:1016D000214A2168914201D1204901E04FF0402187
:1016E000C86102201C4A2168914201D11B4901E0D6
:1016F0004FF04021086218492068884201D11748FC
:1017000001E04FF04020C6696068B0F5007F01D06D
:10171000606810B94FF4807500E00025A089218B26
:10172000084321890843284380B240F400600643FF
:1017300009492068884201D1084801E04FF0402063
:10174000C66100206064012084F84100002031E778
:101750006D380008011300080038004000340040D4
:1017600010B586B00446142101A8FEF7D1FD3B490F
:101770002068884270D100BF00200090384800687F
:1017800040F40040364908600846006800F4004014
:10179000009000BF00BF00BF00200090304810380C
:1017A000006840F001002E491039086008460068C2
:1017B00000F00100009000BF00BF00BF00200090BB
:1017C0000846006840F0040008600846006800F021
:1017D0000400009000BF00BF102001900220029082
:1017E0000020039004900620059001A91D48FFF7F2
:1017F00055F84FF4A450019002200290002003906D
:1018000004900620059001A91748FFF747F81748EC
:101810001749086000204860402115488160002178
:10182000C1604FF480610161002141618161C1614A
:1018300001624162FEF7A8FF08B1FEF750FE00BF4B
:101840000B48A063846300BF00220521332000F011
:10185000BAF8332000F0AAF806B010BD003C0040F2
:101860004038024000000240000802408860024008
:101870004801002070477047034800680349097811
:101880000844014908607047140000201C00002033
:1018900010B50D48006840F400700B490860084618
:1018A000006840F4806008600846006840F480707A
:1018B0000860032000F0C6F8002000F007F800F0F0
:1018C0004BF8002010BD0000003C024070B588B00D
:1018D00004460025002600222146362000F073F839
:1018E000362000F063F800BF002001901648006821
:1018F00040F01000144908600846006800F010002D
:10190000019000BF00BF02A903A800F087FA00F011
:10191000ADFA45000D48B5FBF0F0461E0C480D49E8
:10192000086040F2E7310B48C16046600021016168
:10193000816000F0F2FD20B9064800F06FFE08B0AB
:1019400070BD0120FBE700004038024040420F001C
:1019500000100040F402002008B500BF00200090F5
:101960001148006840F480400F490860084600684C
:1019700000F48040009000BF00BF00BF0020009036
:10198000081F006840F08050091F08600846006882
:1019900000F08050009000BF00BF00220F21901E79
:1019A00000F011F808BD00004438024000BF00F00C
:1019B0001F02012191404209920002F1E022C2F887
:1019C000001100BF70472DE9F05F80460D461646B6
:1019D000002702F023FA074639462A46334601F02B
:1019E0000700C0F1070ABAF1040F02D94FF0040A48
:1019F00001E0C0F1070AD14600F1040ABAF1070F6D
:101A000002D24FF0000A01E0A0F1030AD4464FF0E1
:101A1000010A0AFA09FAAAF1010A0AEA020A0AFA0A
:101A20000CFA4FF0010B0BFA0CFBABF1010B0BEABC
:101A3000030B4AEA0B042146404602F0F7F9BDE8E1
:101A4000F09F000000BF00F00702064B19684FF638
:101A5000FF031940044B0B4343EA0221014B196079
:101A600000BF70470CED00E00000FA0570B50146BC
:101A70000020002200230024012934D11B4D2D68B1
:101A800005F400031BB1012B29D1194829E0174D9A
:101A90002D1F2D6805F48005B5F5800F08D1134D75
:101AA0002D1F2D6805F03F05124EB6FBF5F207E03D
:101AB0000E4D2D1F2D6805F03F050F4EB6FBF5F2BC
:101AC0000A4D7C352D68C5F3881505FB02F4074DDA
:101AD0007C352D68C5F30275B4FBF5F001E00020FC
:101AE00000BF00BF00BF00BF70BD0000083802404B
:101AF0000080BB0000127A000024F400F8B5044610
:101B000000250026207800F0010020B9207800F0A0
:101B1000040004282FD100205B498866FEF7C8FF27
:101B2000054606E0FEF7C4FF401B022801D903204A
:101B3000F8BD56480068C0F3C0600028F2D1606864
:101B40008101207A41EA0070504984310860012007
:101B50004D498866FEF7ACFF054606E0FEF7A8FF94
:101B6000401B022801D90320E2E748480068C0F37F
:101B7000C0600028F2D0207800F0020002287DD159
:101B800000BF0020009041484030006840F0805085
:101B90003E49403108600846006800F080500090DF
:101BA00000BF00BF3A48006840F4807038490860C0
:101BB000FEF77EFF054606E0FEF77AFF401B02288F
:101BC00001D90320B4E73248006800F4807000288F
:101BD000F2D02E487030006800F440764EB3A089F1
:101BE00000F44070B04224D028487030006820F4DF
:101BF00040760120274908600020086023487030A3
:101C00000660006800F0010098B1FEF751FF05463C
:101C100008E0FEF74DFF401B41F28831884201D9B0
:101C2000032085E7194870300068C0F340000028A1
:101C3000EFD000BFA08900F44070B0F5407F0CD118
:101C400012480830006820F4F810134AE168114087
:101C500008430E490831086007E00C480830006866
:101C600020F4F8100949083108600848703000680D
:101C7000A189C1F30B010843044900E002E070317F
:101C8000086000BF002053E70000474200380240D0
:101C900000700040400E4742FFFCFF0F70B5044645
:101CA0000D460CB9012070BD5848006800F00F00C7
:101CB000A84209D255490D700846006800F00F008F
:101CC000A84201D00120EEE7207800F002000228AF
:101CD0001DD1207800F00400042805D14C4800688C
:101CE00040F4E0504A490860207800F008000828D5
:101CF00005D14748006840F46040454908604448C1
:101D0000006820F0F000A16808434149086020788D
:101D100000F00100A8B36068012807D13C480838EA
:101D20000068C0F34040B8B90120BCE760680228F1
:101D300002D06068032807D1354808380068C0F32E
:101D4000406048B90120AEE7314808380068C0F368
:101D5000400008B90120A6E72D48006820F00300E4
:101D6000616808432A490860FEF7A2FE064609E0BA
:101D7000FEF79EFE801B41F28831884202D9032083
:101D800091E707E02248006800F00C006168B0EBC2
:101D9000810FEDD11D48006800F00F00A84209D95D
:101DA0001A490D700846006800F00F00A84201D0E3
:101DB000012078E7207800F00400042807D11448B7
:101DC000006820F4E050E168084311490860207879
:101DD00000F00800082808D10D48006820F4604091
:101DE000216940EAC1000A49086000F05FF808492B
:101DF0000968C1F30311074A515CC84006490860ED
:101E00000020FFF763FD00204DE70000003C02408A
:101E100008380240D48B0008200000200F22026006
:101E20000D4A126802F0030242600B4A126802F087
:101E3000F0028260084A126802F4E052C260064A68
:101E4000126802F46042D2080261044A126802F089
:101E50000F020A607047000008380240003C024050
:101E600001480068704700002000002000B5FFF71F
:101E7000F7FF04490968C1F38221034A515CC84055
:101E800000BD000008380240E48B000800B5FFF7F1
:101E9000E7FF04490968C1F34231034A515CC84075
:101EA00000BD000008380240E48B00082DE9F0472F
:101EB000002400250026A1462548006800F00C00FB
:101EC00020B1042805D008283AD105E0DFF8849035
:101ED00039E0DFF8849036E01D48001F006800F00C
:101EE0003F041B48001F006800F4800078B11A48C6
:101EF0001749091F0968C1F38811A0FB0170014649
:101F0000224600233846FEF7B9F905460EE011488F
:101F10000F49091F0968C1F38811A0FB0170014630
:101F2000224600233846FEF7A9F905460848001F57
:101F30000068C0F30140401C4600B5FBF6F902E022
:101F4000DFF8109000BF00BF4846BDE8F0870000F2
:101F5000083802400024F40000127A00F8B5044664
:101F60000CB90120F8BD207800F00100002874D0E1
:101F7000F948006800F00C0004280DD0F64800680D
:101F800000F00C00082813D1F348001F006800F48B
:101F90008000B0F5800F0BD1EF4808380068C0F31F
:101FA0004040002859D06068002856D10120D9E768
:101FB00000BF6068B0F5803F08D1E7480838006886
:101FC00040F48030E449083908601EE06068B0F5EC
:101FD000A02F0DD1E0480838006840F48020DE4989
:101FE000083908600846006840F4803008600CE05A
:101FF000D9480838006820F48030D749083908608B
:102000000846006820F48020086000BF606890B136
:10201000FEF74EFD054606E0FEF74AFD401B64282C
:1020200001D903209EE7CC4808380068C0F340403F
:102030000028F1D011E0FEF73BFD054606E0FEF773
:1020400037FD401B642801D903208BE7C2480838BC
:102050000068C0F340400028F1D1207800F0020071
:1020600002285FD1BC48006800F00C0058B1BA48A3
:10207000006800F00C0008281CD1B748001F006859
:1020800000F48000B0B9B44808380068C0F34000DC
:1020900020B1E068012801D0012063E7AE4808388C
:1020A000006820F0F800216940EAC100AA49083917
:1020B000086037E0E06800B30120A8490860FEF737
:1020C000F7FC054606E0FEF7F3FC401B022801D9A9
:1020D000032047E7A04808380068C0F34000002804
:1020E000F1D09D480838006820F0F800216940EAE6
:1020F000C10099490839086014E000209749086038
:10210000FEF7D6FC054606E0FEF7D2FC401B02288F
:1021100001D9032026E7904808380068C0F3400042
:102120000028F1D1207800F0080008282CD160693F
:10213000A8B101208A490860FEF7BAFC054606E00E
:10214000FEF7B6FC401B022801D903200AE78248AB
:102150006C300068C0F340000028F1D014E000208B
:102160007F490860FEF7A4FC054606E0FEF7A0FCE8
:10217000401B022801D90320F4E677486C30006840
:10218000C0F340000028F1D1207800F004000428BA
:1021900070D1002670483830006800F0805090B947
:1021A00000BF002000906C483830006840F080503C
:1021B0006949383108600846006800F08050009096
:1021C00000BF00BF01266748006800F48070B0B906
:1021D0006448006840F4807062490860FEF768FC5B
:1021E000054606E0FEF764FC401B022801D90320E7
:1021F000B8E65C48006800F480700028F2D000BFA8
:10220000A068012808D154486830006840F00100F7
:102210005149683108601DE0A06805280DD14E487D
:102220006830006840F004004B4968310860084697
:10223000006840F0010008600CE047486830006822
:1022400020F001004449683108600846006820F029
:102250000400086000BFA068A8B1FEF729FC05468D
:1022600009E0FEF725FC401B41F28831884202D983
:10227000032077E626E0384868300068C0F3400065
:102280000028EED013E0FEF713FC054608E0FEF749
:102290000FFC401B41F28831884201D9032061E6DE
:1022A0002D4868300068C0F340000028EFD1012EAF
:1022B00007D129483830006820F08050264938314D
:1022C000086000BFA069B8B32348006800F00C00A4
:1022D00008285ED0A069022846D100201F49086660
:1022E000FEF7E6FB054606E0FEF7E2FB401B022890
:1022F00001D9032036E6184808380068C0F340606A
:102300000028F1D1D4E907010843616A40EA81114C
:102310000122A06AC2EB500041EA00412C20005D7E
:1023200041EA00600C49091F086001200B4908665A
:10233000FEF7BEFB054607E02DE0FEF7B9FB401BAC
:10234000022801D903200DE6034808380068C0F3CD
:1023500040600028F1D01EE00838024000004742EB
:10236000800E47420070004000200C490866FEF7CE
:102370009FFB054606E0FEF79BFB401B022801D9A8
:102380000320EFE506480068C0F340600028F2D162
:1023900001E00120E6E50020E4E5000000004742FE
:1023A0000038024010B504460CB9012010BD606A27
:1023B00000B900BF0021A16294F8510028B90020A3
:1023C00084F85000204600F033F8022084F85100D1
:1023D0002068006820F0400021680860D4E901010D
:1023E0000843E16808432169084361690843218B78
:1023F00001F400710843E1690843216A0843A16AB6
:102400000843216808600421A06901EA1040616A5C
:102410000843216848602068C06920F40060216892
:10242000C86100206065012084F851000020BDE7EC
:1024300010B586B00446142101A8FDF769FF1A49BA
:10244000206888422ED100BF002000901748006805
:1024500040F48050154908600846006800F4805038
:10246000009000BF00BF00BF002000900F4814384C
:10247000006840F001000D49143908600846006802
:1024800000F00100009000BF00BFE020019002209A
:1024900002900020039004900520059001A90448B3
:1024A000FEF7FCF906B010BD003001404438024090
:1024B0000000024070477047024600BF92F83800A3
:1024C000012801D102207047012082F8380000BFA6
:1024D000022082F839001068406820F0700013680C
:1024E0005860106840680B6818431368586010689B
:1024F000806820F0800013689860106880684B68DE
:10250000184313689860012082F8390000BF00204A
:1025100082F8380000BF00BFD5E710B504460CB9FB
:10252000012010BD94F8390028B9002084F8380043
:10253000204600F00DF8022084F83900211D2068A3
:1025400001F082FD012084F839000020E9E7000055
:1025500038B504462D492068884218D100BF0020B4
:1025600000902B48006840F00100294908600846A7
:10257000006800F00100009000BF00BF00220F21A2
:102580001920FFF720FA1920FFF710FA3CE0214943
:10259000206888421AD100BF002000901C48001F0C
:1025A000006840F008001A49091F086008460068E2
:1025B00000F00800009000BF00BF00220F21322071
:1025C000FFF701FA3220FFF7F1F91DE01249206808
:1025D000884219D100BF002000900D48001F0068FC
:1025E00040F480700A49091F08600846006800F43A
:1025F0008070009000BF00BF00220F212D20FFF748
:10260000E2F92D20FFF7D2F938BD000000000140AB
:1026100044380240000C0040002000400146086899
:10262000C06840F001000A68D0600868006840F0A7
:1026300001000A681060002070472DE9F04104464F
:102640000D46002600BF94F83800012802D1022070
:10265000BDE8F081012084F8380000BF022084F832
:1026600039002068866826F0770626F47F462068C1
:102670008660286850283BD00CDC202860D004DC21
:10268000002853D0102865D155E030285DD040286F
:1026900060D141E0602835D070280DD0B0F5805F62
:1026A00003D0B0F5005F55D115E02068806820F0B8
:1026B0000700216888604EE0D5E902136A68206847
:1026C00001F034FD2068866826F0770646F077062C
:1026D000206886603FE0D5E902136A68206801F04F
:1026E00025FD2068806840F480402168886032E0E1
:1026F000EA686968206801F02FFD5021206801F028
:1027000021FD28E0EA686968206801F03AFD60214F
:10271000206801F017FD1EE0EA686968206801F092
:102720001BFD4021206801F00DFD14E00021206810
:1027300001F008FD0FE01021206801F003FD0AE020
:102740002021206801F0FEFC05E03021206801F026
:10275000F9FC00E000BF00BF012084F8390000BF91
:10276000002084F8380000BF00BF71E7704710B543
:10277000044620680069C0F34000D8B12068C068F2
:10278000C0F34000B0B16FF0020021680861012081
:1027900020762068806900F0030018B12046FFF71A
:1027A000E5FF05E0204600F0ADF8204600F0ABF86C
:1027B0000020207620680069C0F38000D8B120682E
:1027C000C068C0F38000B0B16FF0040021680861F8
:1027D000022020762068806900F4407018B12046FD
:1027E000FFF7C4FF05E0204600F08CF8204600F01B
:1027F0008AF80020207620680069C0F3C000D8B1B4
:102800002068C068C0F3C000B0B16FF00800216854
:102810000861042020762068C06900F0030018B128
:102820002046FFF7A3FF05E0204600F06BF82046A6
:1028300000F069F80020207620680069C0F30010DD
:10284000D8B12068C068C0F30010B0B16FF01000BC
:1028500021680861082020762068C06900F4407073
:1028600018B12046FFF782FF05E0204600F04AF845
:10287000204600F048F8002020762068006900F02B
:10288000010058B12068C06800F0010030B16FF05D
:10289000010021680861204600F036F820680069D0
:1028A000C0F3C01058B12068C068C0F3C01030B188
:1028B0006FF08000216808612046FFF7FBFD20686B
:1028C0000069C0F3801058B12068C068C0F3801060
:1028D00030B16FF0400021680861204600F042F8F6
:1028E00020680069C0F3401058B12068C068C0F388
:1028F000401030B16FF02000216808612046FFF7DA
:10290000DAFD10BD7047704710B5044610492068C5
:10291000884204D181140F48FEF7C0F810E00E4938
:102920002068884204D141140A48FEF7B7F807E04E
:102930000A492068884203D101140648FEF7AEF820
:1029400007492068884201D1FEF796FF10BD0000BC
:1029500000000140000C0240000C0040002000403C
:1029600000100040704710B504460CB9012010BD9E
:10297000A06900B100E000BF94F8390028B9002038
:1029800084F83800204600F027F8242084F8390025
:102990002068C06820F400502168C860204601F01B
:1029A00007FC2068006920F49040216808612068D5
:1029B000406920F02A00216848612068C06840F41E
:1029C00000502168C8600020E063202084F83900AE
:1029D00084F83A000020CAE710B586B004461421F6
:1029E00001A8FDF795FC2A49206888424DD100BF17
:1029F000002000902748006840F4802025490860A6
:102A00000846006800F48020009000BF00BF00BFAF
:102A1000002000901F481038006840F002001D4957
:102A2000103908600846006800F00200009000BFFE
:102A300000BF00BF002000900846006840F008007A
:102A400008600846006800F00800009000BF00BF62
:102A5000C8140190022002900120039003200490EA
:102A60000720059001A90C48FDF718FF4FF480706E
:102A7000019002200290012003900320049007207F
:102A8000059001A90548FDF709FF06B010BD00003B
:102A9000004800404038024000040240000C024060
:102AA0002DE9F84304460D4616461F464FF000092F
:102AB00094F8390020285CD105B116B90120BDE891
:102AC000F88300BF94F83800012801D10220F6E70E
:102AD000012084F8380000BF0020E063212084F842
:102AE0003900FDF7E5FF8146A684E6842BE0E08C03
:102AF000401EE084A068B0F5805F16D14B460022EE
:102B000080212046009701F007FD08B10320D6E799
:102B1000A846B8F80000C0F30800216848602069A2
:102B200008B9AD1C0FE06D1C0DE04B460022802162
:102B30002046009701F0F0FC08B10320BFE715F82C
:102B4000010B21684860E08C0028D0D14B46002260
:102B500040212046009701F0DFFC08B10320AEE7DA
:102B6000202084F8390000BF002084F8380000BF1E
:102B7000A5E70220A3E72DE9F04106460C4635689B
:102B8000002705F5A06000EB4410806800F0040009
:102B900090B1042105F5A06000EB4410816005F5BB
:102BA000A06000EB4410C06840F0020105F5A06091
:102BB00000EB4410C16069E005F5A06000EB441033
:102BC000806800F0200030B1202105F5A06000EB06
:102BD000441081605AE005F5A06000EB4410806865
:102BE00000F0080028B305F5A06000EB4410C068B1
:102BF00040F0020105F5A06000EB4410C160052122
:102C000004EB840206F1380000EBC20080F82510C6
:102C1000102105F5A06000EB44108160082105F546
:102C2000A06000EB441081602146306803F09EFFF5
:102C30002CE005F5A06000EB4410806800F4806093
:102C400020B305F5A06000EB4410C06840F002011D
:102C500005F5A06000EB4410C1602146306803F028
:102C600085FF102105F5A06000EB4410816008216C
:102C700004EB840206F1380000EBC20080F8251056
:102C8000C90105F5A06000EB4410816005F5A06066
:102C900000EB4410806800F40070B8B105F5A06046
:102CA00000EB4410C06840F0020105F5A06000EBA5
:102CB0004410C1602146306803F058FF4FF40071A2
:102CC00005F5A06000EB44108160CBE105F5A06044
:102CD00000EB4410806800F0010000287DD03069CE
:102CE000A8B104EB840106F1380000EBC1000169D2
:102CF00005F5A06000EB44100069C0F31200091A4A
:102D000004EB840206F1380000EBC20041610121AE
:102D100004EB840206F1380000EBC20080F82510B5
:102D2000002104EB840206F1380000EBC2000162CE
:102D3000012105F5A06000EB4410816004EB8401E3
:102D400006F1380000EBC100C07940B104EB84010A
:102D500006F1380000EBC100C079022816D105F554
:102D6000A06000EB4410C06840F0020105F5A060CF
:102D700000EB4410C1602146306803F0F7FE1021DB
:102D800005F5A06000EB441081602BE004EB8401AA
:102D900006F1380000EBC100C079032822D105F507
:102DA000A06000EB4410006840F0005105F5A06001
:102DB00000EB44100160012104EB840206F13800AD
:102DC00000EBC20080F8241004EB840106F1380007
:102DD00000EBC10090F8242000E014E021463046CA
:102DE000FDF710FF04EB840106F1380000EBC10091
:102DF000007E80F0010104EB840206F1380000EB54
:102E0000C20001762EE105F5A06000EB4410806859
:102E100000F00200002871D005F5A06000EB44101E
:102E2000C06820F0020105F5A06000EB4410C1600D
:102E300004EB840106F1380000EBC10090F8250096
:102E4000012809D1012104EB840206F1380000EBCE
:102E5000C20080F8241069E004EB840106F1380018
:102E600000EBC10090F82500052809D1052104EBED
:102E7000840206F1380000EBC20080F8241055E00F
:102E800004EB840106F1380000EBC10090F8250046
:102E9000062809D004EB840106F1380000EBC100DC
:102EA00090F82500082841D104EB840106F1380090
:102EB00000EBC10004EB8401026A06F1380000EB6C
:102EC000C100006A401C04EB840306F1380101EBE9
:102ED000C3010862032A12D9002104EB840206F11F
:102EE000380000EBC2000162042104EB840206F109
:102EF000380000EBC20080F8241009E029E002212C
:102F000004EB840206F1380000EBC20080F82410C4
:102F100005F5A06000EB4410076827F0804747F0F4
:102F2000004705F5A06000EB44100760022105F59D
:102F3000A06000EB4410816004EB840106F13800CE
:102F400000EBC10090F8242021463046FDF75AFEE0
:102F500088E005F5A06000EB4410806800F0800078
:102F600070B305F5A06000EB4410C06840F00201AA
:102F700005F5A06000EB4410C16004EB840106F18C
:102F8000380000EBC100006A401C04EB840206F12B
:102F9000380101EBC2010862062104EB840206F14C
:102FA000380000EBC20080F825102146306803F09D
:102FB000DDFD802105F5A06000EB4410816051E04B
:102FC000FFE705F5A06000EB4410806800F01000FA
:102FD000E8B304EB840106F1380000EBC100C079CE
:102FE00003280FD105F5A06000EB4410C06840F045
:102FF000020105F5A06000EB4410C1602146306875
:1030000003F0B4FD032104EB840206F1380000EB69
:10301000C20080F82510102105F5A06000EB4410D7
:10302000816004EB840106F1380000EBC100C07937
:1030300040B104EB840106F1380000EBC100C07917
:1030400002280FD105F5A06000EB441000E009E074
:10305000076827F0804747F0004705F5A06000EBC0
:1030600044100760BDE8F08170B505460C462E6837
:1030700006F5A06000EB4410806800F0040090B1F9
:10308000042106F5A06000EB4410816006F5A06005
:1030900000EB4410C06840F0020106F5A06000EBB0
:1030A0004410C16047E206F5A06000EB4410806860
:1030B00000F0200088B3202106F5A06000EB44104A
:1030C000816004EB840105F1380000EBC100407918
:1030D0000128E7D1042104EB840205F1380000EB5C
:1030E000C20080F8251006F5A06000EB4410C0680F
:1030F00040F0020106F5A06000EB4410C1602146DB
:10310000286803F033FD022104EB840205F1380046
:1031100000EBC20080F824100DE2FFE706F5A06086
:1031200000EB4410806800F0400038B3042104EB49
:10313000840205F1380000EBC20080F82510002160
:1031400004EB840205F1380000EBC200016206F5D1
:10315000A06000EB4410C06840F0020106F5A060DA
:1031600000EB4410C1602146286803F0FFFC4021B9
:1031700006F5A06000EB44108160DCE106F5A0607C
:1031800000EB4410806800F40070B8B106F5A06050
:1031900000EB4410C06840F0020106F5A06000EBAF
:1031A0004410C1602146286803F0E0FC4FF4007130
:1031B00006F5A06000EB44108160BCE106F5A0605C
:1031C00000EB4410806800F0010030B3002104EBF4
:1031D000840205F1380000EBC200016206F5A06030
:1031E00000EB4410C06840F0020106F5A06000EB5F
:1031F0004410C1602146286803F0B8FC012106F59F
:10320000A06000EB4410816004EB840205F13800FB
:1032100000EBC20080F825108DE106F5A06000EB00
:103220004410806800F00800F8B1082106F5A0609D
:1032300000EB4410816006F5A06000EB4410C0680C
:1032400040F0020106F5A06000EB4410C160214689
:10325000286803F08BFC052104EB840205F138009B
:1032600000EBC20080F8251065E106F5A06000EBD8
:103270004410806800F0100038B3002104EB840291
:1032800005F1380000EBC200016206F5A06000EB1A
:103290004410C06840F0020106F5A06000EB441045
:1032A000C1602146286803F061FC032104EB84021D
:1032B00005F1380000EBC20080F82510102106F55A
:1032C000A06000EB4410816035E106F5A06000EBE2
:1032D0004410806800F08000F8B106F5A06000EBB3
:1032E0004410C06840F0020106F5A06000EB4410F5
:1032F000C1602146286803F039FC062104EB8402F2
:1033000005F1380000EBC20080F82510802106F599
:10331000A06000EB441081600DE106F5A06000EBB9
:103320004410806800F4806028B306F5A06000EBCC
:103330004410C06840F0020106F5A06000EB4410A4
:10334000C1602146286803F011FC102106F5A06039
:1033500000EB44108160890106F5A06000EB441089
:103360008160082104EB840205F1380000EBC20003
:1033700080F82510DFE006F5A06000EB44108068BF
:1033800000F0020000287CD006F5A06000EB44109D
:10339000C06820F0020106F5A06000EB4410C16097
:1033A00004EB840105F1380000EBC10090F8250022
:1033B000012822D1012104EB840205F1380000EB41
:1033C000C20080F8241004EB840105F1380000EB02
:1033D000C100C07902280FD104EB840105F1380047
:1033E00000EBC100407E80F0010104EB840205F196
:1033F000380000EBC20041768BE004EB840105F15C
:10340000380000EBC10090F82500032809D1022103
:1034100004EB840205F1380000EBC20080F82410B0
:1034200077E004EB840105F1380000EBC10090F86F
:103430002500042811D1022104EB840205F1380093
:1034400000EBC20080F82410002104EB840205F197
:10345000380000EBC20041715BE004EB840105F130
:10346000380000EBC10090F8250005280AD105219D
:1034700004EB840205F1380000EBC20080F8241050
:1034800047E058E004EB840105F1380000EBC1008F
:1034900090F82500062809D004EB840105F13800D6
:1034A00000EBC10090F82500082832D104EB84011C
:1034B00005F1380000EBC10004EB8401026A05F15C
:1034C000380000EBC100006A401C04EB840305F1E6
:1034D000380101EBC3010862032A11D9002104EB72
:1034E000840205F1380000EBC2000162042104EB04
:1034F000840205F1380000EBC20080F8241008E0D7
:10350000022104EB840205F1380000EBC20080F8D0
:103510002410022106F5A06000EB4410816004EB4A
:10352000840105F1380000EBC10090F82420214609
:103530002846FDF767FB70BD7CB504462568D5F8C5
:1035400040040190D5F840040090009820F02E002F
:103550000090019800F00200022810D1019800F0BC
:10356000010040B12068806920F000502168886126
:103570002046FDF7A3FA009840F002000090019861
:1035800000F00800082833D1009840F008000090AF
:10359000019800F0040004281ED1A06902280FD170
:1035A000019800F4C020B0F5802F04D102212068DA
:1035B00003F084FD0CE00121206803F07FFD07E0AB
:1035C000E068032804D14EF6602140F204404151E6
:1035D0002046FDF773FA0BE0D5F8400420F02E00EA
:1035E000C5F840042068806940F000502168886177
:1035F000019800F02000202803D1009840F020001E
:1036000000900098C5F840047CBD00002DE9F0470B
:1036100005462F680024A046A1462868D0F82080DF
:1036200008F00F04C8F3434AC8F30A16BAF1020FB0
:1036300009D0BAF1030F66D0BAF1050F61D0BAF123
:10364000070F5FD160E0002E5AD004EB840105F132
:10365000380000EBC100C068E8B3B2B204EB840CE0
:1036600005F1380303EBCC03D968286803F04BFD60
:1036700004EB840105F1380000EBC100C06881193A
:1036800004EB840205F1380000EBC200C16004EBDA
:10369000840105F1380000EBC1004069811904EB99
:1036A000840205F1380000EBC200416107F5A0601B
:1036B00000EB441000691649084060B107F5A060AE
:1036C00000EB4410D0F8009029F0804949F00049FF
:1036D00007F5A06000E013E000EB4410C0F8009094
:1036E00004EB840105F1380000EBC100007E80F09E
:1036F000010104EB840205F1380000EBC200017601
:1037000003E002E000BF00BF00BF00BFBDE8F087DC
:103710000000F81F00BFFEE770B504460D46E5B98E
:103720002068C06881B2E26A901CE0621180608EFD
:10373000401E6086608E00283ED1206840684FF6AB
:103740009F71084021684860608DA8BB012084F803
:1037500041002046FDF71AFF2EE0184920688842F4
:1037600001D1174801E04FF04020C06881B2E26A01
:10377000901CE0621180608E401E6086608ED8B919
:103780000E492068884201D10D4801E04FF04020E9
:10379000406820F06000094A2168914201D108493F
:1037A00001E04FF040214860608D28B9012084F885
:1037B00041002046FDF7EAFE70BD000000380040E1
:1037C0000034004070B504460D46DDB9616A881CBE
:1037D000606208882168C860608D401E6085608DC9
:1037E00000283DD1206840684FF65F71084021688D
:1037F0004860608EA0BB012084F841002046FDF7A0
:10380000C5FE2DE0616A881C60620888154A21683F
:10381000914201D1144901E04FF04021C860608D10
:10382000401E6085608DD8B90E492068884201D15C
:103830000D4801E04FF04020406820F0A000094A08
:103840002168914201D1084901E04FF040214860D0
:10385000608E28B9012084F841002046FDF796FECD
:1038600070BD000000380040003400401CB5044624
:1038700020688068019094F84100042831D10198B3
:1038800000F0010038B120684068C0F3801010B12A
:10389000204600F05BF8019800F04000402820D15D
:1038A00020684068C0F34010D8B1206840684FF6E7
:1038B0009F7108402168486000BF00200090206888
:1038C000C068009020688068009000BF00BF0120A1
:1038D00084F84100606C40F0020060642046FDF70F
:1038E00056FE94F8410003282FD1019800F0020001
:1038F000022807D120684068C0F3C01010B12046EC
:1039000000F040F8019800F0080008281DD1206858
:103910004068C0F34010C0B1206840684FF65F7146
:1039200008402168486000BF00200090206880683F
:10393000009000BF00BF012084F84100606C40F09F
:10394000040060642046FDF722FE1CBD10B504464D
:103950002068C06881B2E26A901CE0621180608ECB
:10396000401E6086608E60B9206840684FF69F7187
:10397000084021684860012084F841002046FDF796
:1039800079FF10BD10B50446616A881C6062088822
:103990002168C860608D401E6085608D60B92068B8
:1039A00040684FF65F71084021684860012084F844
:1039B00041002046FDF75FFF10BD000008B500BFC5
:1039C000002000900A48006840F400100849086090
:1039D0000846006800F40010009000BF00BF0022FD
:1039E00005211020FDF7EFFF1020FDF7DFFF08BDD8
:1039F0003038024070B5044625460CB9012500E078
:103A000000252A4601210248FDF74CF870BD000050
:103A10000008024010B503490348FCF761FD034963
:103A2000087010BD0E000020B88B00080D000020AB
:103A300000B587B0142102A8FCF76AFC00BF002083
:103A400001906648006840F010006449086008462C
:103A5000006800F01000019000BF00BF00BF002010
:103A600001900846006840F00400086008460068BD
:103A700000F00400019000BF00BF00BF00200190D3
:103A80000846006840F0800008600846006800F0C2
:103A90008000019000BF00BF00BF002001900846D9
:103AA000006840F0010008600846006800F001006E
:103AB000019000BF00BF00BF0020019008460068D1
:103AC00040F0020008600846006800F00200019023
:103AD00000BF00BF00BF002001900846006840F012
:103AE000080008600846006800F00800019000BF68
:103AF00000BF002208213A48FCF7D4FF01221146FA
:103B00003848FCF7CFFF00224FF210013648FCF78F
:103B1000C9FF082002900120039000200490059026
:103B200002A92F48FCF7BAFE012002900390002062
:103B30000490059002A92B48FCF7B0FE08200290E3
:103B4000022003900020049005900520069002A911
:103B50002448FCF7A3FE0120029024480390002093
:103B6000049002A92248FCF799FE0420029000204C
:103B70000390049002A91F48FCF790FE4FF4806068
:103B800002900220039000200490059005200690EA
:103B900002A91848FCF782FE4FF2100002900120A3
:103BA000039000200490059002A90F48FCF776FED0
:103BB0002020029000200390049002A90A48FCF7FC
:103BC0006DFE02200290094803900020049002A993
:103BD0000348FCF763FE07B000BD00003038024028
:103BE0000010024000080240000C024000001210C9
:103BF000000002400004024010B50B480B49086069
:103C00000B484860002109488160C1604FF4804141
:103C10000161002141618161C1610162FDF798FA92
:103C200008B1FCF75CFC10BD00540040AC00002063
:103C3000A086010010B50C480C490860401548608A
:103C400000210A488160C1604FF400710161084998
:103C5000416100218161C1610162FDF79FFC08B1F2
:103C6000FCF73DFC10BD0000003C004000010020BE
:103C70000077010010B50E480E4908604FF48270BD
:103C8000486000210B488160C160016141614FF4CF
:103C9000007181610021C1610162416281620A217A
:103CA000C162FEF77FFB08B1FCF719FC10BD0000F4
:103CB00000300140A801002010B50D480D490860F2
:103CC0004FF4FA50486000210A48816040F6B8314C
:103CD000C16000210161FEF720FC08B1FCF7FFFB89
:103CE0000448FEF79BFC08B1FCF7F9FB10BD00008F
:103CF000002000407802002000B587B0002003902B
:103D000004900590069001900290184818490860A8
:103D10004FF6E850486000211548816040F6B83100
:103D2000C160002101614161FEF7F7FB08B1FCF7BA
:103D3000D6FB4FF48050039003A90D48FEF77DFC9D
:103D400008B1FCF7CCFB202001900020029001A9D3
:103D50000748FEF7B1FB08B1FCF7C1FB0448FEF7CA
:103D60005DFC08B1FCF7BBFB07B000BD00000140E3
:103D70000002002010B50D480D4908604FF4FA50BC
:103D8000486000210A48816040F6B831C1600021D6
:103D90000161FEF7C2FB08B1FCF7A1FB0448FEF786
:103DA0003DFC08B1FCF79BFB10BD0000000C00407F
:103DB0003C02002010B50B480B4908604FF4E1307D
:103DC0004860002108488160C16001610C214161A7
:103DD00000218161C161FEF7C6FD08B1FCF77FFBE0
:103DE00010BD000000480040B402002010B50122C0
:103DF0000549064800F06EFF0549044802F096FCAC
:103E0000024802F0DBFC10BDD5670008C8050020A1
:103E10008400002000BFFEE77047000002480068F1
:103E2000C0F30220704700000CED00E010B5002840
:103E300007DA0A07140E054A00F00F031B1FD454BB
:103E400003E00A07130E024A135410BD18ED00E0F8
:103E500000E400E010B50248FDF711F810BD0000C5
:103E60003003002010B50248FDF792FB10BD0000A2
:103E700000010020FFF7BAFFFFF7CCFD00BF4FF4B1
:103E8000FA7003F0CBFAFAE700BF4FF4FA7003F0D0
:103E9000C5FAFAE700BF4FF4FA7003F0BFFAFAE789
:103EA00010B500BF502080F31188BFF34F8FBFF3D0
:103EB0006F8F00BF04F08CFC18B14FF080500449A4
:103EC000086000BF002080F3118800BF10BD000013
:103ED00004ED00E000B597B030210BA8FCF718FA0C
:103EE000142106A8FCF714FA002002900390049015
:103EF000059000BF01902948006840F08050274994
:103F000008600846006800F08050019000BF00BFC4
:103F100000BF002001902248006840F48040204902
:103F200008600846006800F48040019000BF00BFB0
:103F300001200B9000040C90022011904105129179
:103F4000082113914FF4A8711491022115910721B2
:103F500016910BA8FEF702F808B1FCF7C0FA0F2083
:103F6000069002200790002008904FF4A05009907E
:103F70000A90052106A8FDF791FE08B1FCF7AFFAFB
:103F800001200290C02003900221049102A8FDF7B5
:103F9000B5FD08B1FCF7A3FA17B000BD40380240E8
:103FA000007000401448006840F470001249086036
:103FB0001248006840F001001049086000200F49D5
:103FC000083108600D4800680D4908400B49086039
:103FD0000C48091D0860081F006820F48020091F94
:103FE0000860002005490C3108604FF0006002496C
:103FF000803908607047000088ED00E0003802401A
:10400000FFFFF6FE1030002410B50248FEF7AFFBAC
:1040100010BD00000002002010B50248FEF7A7FB0B
:1040200010BD00003C02002010B50248FEF79FFBC7
:1040300010BD0000F402002010B50248FEF797FB07
:1040400010BD000078020020002202682C4B98422C
:104050000ED0B0F1804F0BD02A4B984208D02A4B9B
:10406000984205D0294B984202D0294B984201D161
:10407000012300E000231BB122F070024B681A43B9
:104080001F4B984220D0B0F1804F1DD01D4B98425D
:104090001AD01D4B984217D01C4B984214D01C4B81
:1040A000984211D01B4B98420ED01B4B98420BD01C
:1040B0001A4B984208D01A4B984205D0194B984297
:1040C00002D0194B984201D1012300E000231BB11B
:1040D00022F44072CB681A4302608B68C3620B689B
:1040E0008362074B984202D0094B984201D10123C9
:1040F00000E000230BB10B690363012343617047A8
:10410000000001400004004000080040000C004096
:1041100000040140004001400044014000480140CB
:1041200000180040001C00400020004030B50C4644
:104130000021816821F47F4142EA03252543294378
:10414000816030BD0A460021816821F0700142F093
:10415000070319438160704730B50B4614460021B0
:104160000022026A056A25F001050562816921F0D5
:10417000F00141EA041122F00A021A43816102624D
:1041800030BD30B50B46144600210022056A25F0EB
:10419000100505628169026A21F4704141EA043127
:1041A00022F0A00242EA03128161026230BD0000E7
:1041B0002DE9F041044600252068056925F44055A5
:1041C000E0680543206805612068C56849F20C6015
:1041D00085432169A068084361690843E169084390
:1041E00005432068C5602068456925F44075A069CD
:1041F000054320684561E069B0F5004F7ED1C449B0
:104200002068884203D0C349206888425DD1FDF709
:104210003DFE00EBC00101EB001061684900B0FBFE
:10422000F1F06421B0FBF1F00601FDF72FFE00EB89
:10423000C00101EB001061684900B0FBF1F7FDF728
:1042400025FE00EBC00101EB001061684900B0FBE6
:10425000F1F06421B0FBF1F000EBC00101EB0010C4
:10426000A7EB8000322101EBC0006421B0FBF1F02C
:1042700000F0F80006EB4006FDF708FE00EBC00179
:1042800001EB001061684900B0FBF1F7FDF7FEFD9E
:1042900000EBC00101EB001061684900B0FBF1F0D8
:1042A0006421B0FBF1F000EBC00101EB0010A7EBC3
:1042B0008000322101EBC0006421B0FBF1F000F07E
:1042C000070030442168886020E1FDF7CFFD00EB56
:1042D000C00101EB001061684900B0FBF1F06421FE
:1042E000B0FBF1F00601FDF7C1FD00EBC00101EBF1
:1042F000001061684900B0FBF1F700E045E0FDF710
:10430000B5FD00EBC00101EB001061684900B0FB96
:10431000F1F06421B0FBF1F000EBC00101EB001003
:10432000A7EB8000322101EBC0006421B0FBF1F06B
:1043300000F0F80006EB4006FDF798FD00EBC00129
:1043400001EB001061684900B0FBF1F7FDF78EFD4D
:1043500000EBC00101EB001061684900B0FBF1F017
:104360006421B0FBF1F000EBC00101EB0010A7EB02
:104370008000322101EBC0006421B0FBF1F000F0BD
:104380000700304421688860C0E0614920688842A5
:1043900003D06049206888425CD1FDF777FD00EBCF
:1043A000C00101EB001061688900B0FBF1F6FDF778
:1043B0006DFD00EBC00101EB001061688900B0FBEE
:1043C000F1F06421B0FBF1F000EBC00101EB001053
:1043D000A6EB8000322101EB00106421B0FBF1F06C
:1043E00000F0F006FDF752FD00EBC00101EB0010FC
:1043F00061688900B0FBF1F06421B0FBF1F006EBDD
:104400000016FDF743FD00EBC00101EB00106168F1
:104410008900B0FBF1F7FDF739FD00EBC00101EBBE
:10442000001061688900B0FBF1F06421B0FBF1F08D
:1044300000EBC00101EB0010A7EB8000322101EB83
:1044400000106421B0FBF1F000F00F00304421684F
:1044500088605BE0FDF70AFD00EBC00101EB001096
:1044600061688900B0FBF1F6FDF700FD00EBC001CB
:1044700001EB001061688900B0FBF1F06421B0FB32
:10448000F1F000EBC00101EB0010A6EB800032213F
:1044900001EB00106421B0FBF1F000F0F006FDF735
:1044A000E5FC00EBC00101EB001061688900B0FB86
:1044B000F1F06421B0FBF1F006EB0016FDF7D6FC3D
:1044C00000EBC00101EB001061688900B0FBF1F75F
:1044D000FDF7CCFC00EBC00101EB00106168890026
:1044E000B0FBF1F06421B0FBF1F000EBC00101EB97
:1044F0000010A7EB8000322101EB00106421B0FB1B
:10450000F1F000F00F00304421688860BDE8F081D0
:1045100000100140001401402DE9F04104460D4611
:1045200017469846069E21E0701CF8B12EB1FCF7A4
:10453000BFFAA0EB0800B04218D92068C06820F488
:10454000D0702168C8602068406920F001002168AF
:104550004861202084F8390084F83A0000BF002028
:1045600084F8380000BF0320BDE8F08120680068AF
:104570002840A84201D1012000E00020B842D3D059
:104580000020F1E770B506460D46304600F02DF9E3
:1045900004464FF6FF70844205D045F4004106F50D
:1045A0005F7040F82410E0B270BD2DE9FF4107466E
:1045B0000C4615461E460020012102230A468DE8BE
:1045C000320003903146384600F067FD002004B009
:1045D000BDE8F0812DE9FF4104460D4617461E4611
:1045E000DDF8288094F81D0308B14FF00008012081
:1045F0000223002231468DE8A101204600F04DFD46
:10460000002004B0BDE8F08170B504460D4629468F
:10461000204600F093FB002070BD70B504460D46A7
:10462000A078012807D102212174012161740021A1
:104630006182A582E18200221146204600F016F830
:1046400070BD2DE9FF4107460C4615461E46002069
:10465000012103460A468DE8320003903146384670
:1046600000F01BFD002004B0BDE8F0812DE9F04111
:1046700004460E4617460125A078012802D00228DC
:104680001FD10DE0A660A781012121760220A07034
:10469000012500220321D4F8C80302F023FF11E012
:1046A000204600F008F905462DB90120A070002130
:1046B0002176002504E0022D02D10120A07000BF68
:1046C00000E000BF00BF2846BDE8F0812DE9FF41B2
:1046D00004460D4617461E46DDF8288094F81D0353
:1046E00008B14FF00008012000231A4631468DE83A
:1046F000A101204600F0D1FC002004B0BDE8F0810B
:104700007FB506460C46154600200821CDE9000479
:1047100003460246CDE902102946304600F0BDFCB2
:10472000002004B070BD10B504462046FCF7A2F886
:1047300010BDF0B506460C4615460022002106F2D3
:1047400032371AE002EB820000EBC20C07F10A00DC
:1047500000EB4C014879A04201D0FF2C0BD18879A5
:10476000A84201D0FF2D06D1C879984201D0FF2B75
:1047700001D1D0B2F0BD501C42B2022AE2DBFF20D0
:10478000F8E702460B2909DA02F55F7030F82100DC
:10479000C0F30E0302F55F7040F82130002070472F
:1047A0002DE9F04104460E4615461F46DDF81880F7
:1047B000A078012812D146F080012174062161748D
:1047C000658205F47F40B0F5407F03D140F2094196
:1047D000A18201E00021A182A4F816804246394658
:1047E0002046FFF743FFBDE8F0810246002100BFED
:1047F0000AE002F55F7030F8210000F4004008B9CB
:1048000008467047481CC1B20B29F2DB4FF6FF7017
:10481000F7E710B502460B88147823440B80137811
:10482000981810BDF8B504460D4604F11C06334631
:104830004FF40072002120460095FFF7B1FF071EDC
:1048400005D12A46314604F2323001F08FFD384658
:10485000F8BDF8B504460D4604F58E734FF480722A
:10486000002120460095FFF79BFF061E06D12A4631
:1048700004F58E7104F5487001F0E5FD3046F8BD91
:104880002DE9F84304460E4617461D4646F440728D
:1048900004F58E73002120460095FFF781FFB0F1EB
:1048A000000805D12A46394604F58E7001F01AFE3B
:1048B0004046BDE8F883F8B5044601270025207E70
:1048C0000C287BD2DFE800F07A060F3C486C7BAE08
:1048D000BAE0F0EE627904F110012046FFF710FF14
:1048E000022121761FE16179204600F0D8FA0546C1
:1048F000012D1AD1207C00F08006E08A38B1802E8C
:1049000002D10321217609E00521217606E0802EDF
:1049100002D10921217601E007212176002203211D
:10492000D4F8C80302F0DEFD09E0042D07D10B2105
:10493000217600220321D4F8C80302F0D3FDF2E06F
:10494000D4F8B803E0812379A2892046A168FFF753
:1049500078FE04212176E6E02179204600F09FFAD6
:104960000546012D07D10921217600220321D4F823
:10497000C80302F0B7FD052D07D10327002203214C
:10498000D4F8C80302F0AEFD09E0042D07D10B21D5
:10499000217600220321D4F8C80302F0A3FDC2E06F
:1049A000012000906379A2892046A168FFF78EFE5E
:1049B000D4F8B803E08106212176B4E0B2E0617951
:1049C000204600F06CFA0546012D08D1072121761A
:1049D00000220321D4F8C80302F084FD21E0052D54
:1049E00009D10C212176032700220321D4F8C80322
:1049F00002F078FD15E0022D08D105212176002274
:104A00000321D4F8C80302F06DFD0AE0042D08D19B
:104A10000B212176022700220321D4F8C80302F0DB
:104A200061FD80E02379002211462046FFF709FE50
:104A3000D4F8B803E0810821217674E0217920467A
:104A400000F02DFA0546012D09D10D212176002710
:104A500000220321D4F8C80302F044FD13E0042D22
:104A600008D10B21217600220321D4F8C80302F0DB
:104A700039FD08E0052D06D1032700220321D4F8D3
:104A8000C80302F02FFD4EE0012000906379002260
:104A900011462046FFF71AFED4F8B803E0810A2138
:104AA000217640E027E0FFE76179204600F0F7F942
:104AB0000546012D09D100270D2121760022032171
:104AC000D4F8C80302F00EFD14E0022D08D109212C
:104AD000217600220321D4F8C80302F003FD09E087
:104AE000042D07D10B21217600220321D4F8C8031D
:104AF00002F0F8FC17E0607E401CC1B2617602292A
:104B000007DC204600F0ABFA012121760120A070DD
:104B100007E006212046D4F8C4239047002161769F
:104B2000022700E000BF00BF3846F8BD3EB504468E
:104B30000125607808287DD2DFE800F0042A325B86
:104B4000636C8CA408212046FFF783FEF8B994F823
:104B50002713A17101206070A079002294F81D1321
:104B6000CDE90012029094F81C332179802220466E
:104B700001F0E7FBA079002294F81D13CDE90012A3
:104B8000029094F81C336179204601F0DAFB90E042
:104B900012212046FFF75DFE08B90220607088E010
:104BA0000121204601F0E2FD10BB0220FFF7BBFD12
:104BB000012184F81C1303206070A079002294F86E
:104BC0001D13CDE90012029094F81C332179802244
:104BD000204601F0B6FBA079002294F81D13CDE920
:104BE0000012029094F81C336179204601F0A9FB71
:104BF0005FE009212046FFF715FE08B90420607028
:104C000057E0B4F834132046FFF70CFE08B905202E
:104C100060704EE094F82E0398B194F82E13FF23A1
:104C200004F58E722046FFF72BFE90B906206070C7
:104C3000002200E03CE00521D4F8C80302F052FC59
:104C400007E00620607000220521D4F8C80302F0B6
:104C500049FC2EE094F82F0358B194F82F13FF234A
:104C600004F58E722046FFF70BFE50B907206070E6
:104C700007E00720607000220521D4F8C80302F085
:104C800031FC16E094F8300350B194F83013FF2350
:104C900004F58E722046FFF7F3FD40B9002506E0CB
:104CA000002500220521D4F8C80302F01BFC00E017
:104CB00000BF00BF28463EBD10B5044620780A2834
:104CC00007D1D4F8740320B1D4F874038169204665
:104CD000884710BD70B588B004460D46164614B915
:104CE000022008B070BD84F8BC630020C4F87403CF
:104CF000C4F878032046FBF7C8FB0DB1C4F8C453D1
:104D00000D4903C9CDE90601002106A802F092FB76
:104D1000C4F8C80314220849083101A8FBF7DFFAD8
:104D2000214601A802F00EFCC4F8CC03204600F096
:104D3000CBF80020D5E70000EC8B00082DE9F0410E
:104D400004460D46002600272946D4F8C003FBF789
:104D5000E2FE064636B1012E06D0022E06D0032E04
:104D600008D105E0002707E0022705E0012703E05E
:104D7000022701E0022700BF00BF3846BDE8F081EE
:104D800010B50446207858B9012184F81E13D4F8D0
:104D9000C40350B104212046D4F8C423904704E052
:104DA0002078012801D10220207000220121D4F8AE
:104DB000C80302F097FB002010BD10B50446204642
:104DC00000F04DF921792046FFF7DBFC61792046A0
:104DD000FFF7D7FC002184F81E13D4F8C40320B1D8
:104DE00005212046D4F8C4239047204600F019F945
:104DF0000320207000220121D4F8C80302F072FBC6
:104E0000002010BD70B505460C4695F8BC0301287E
:104E100002D12046FEF7EEFDC820FBF72BFD002057
:104E200070BD70B504460D462946D4F8C003FBF7A3
:104E300069FE70BD70B504460125D4F8C003FBF7C8
:104E400051FE20B1012804D0022806D103E000253C
:104E500005E0012503E0022501E0012500BF00BFB8
:104E6000284670BD30B503460020D3F8C02301EBBF
:104E7000810502F1380404EBC504E4783CB101EB90
:104E8000810502F1380404EBC504207E06E001EB45
:104E9000810502F1380404EBC504607E30BD70B5B5
:104EA00004460D462946D4F8C003FBF721FE70BD29
:104EB00010B50446D4F8B803401CC4F8B803204623
:104EC000FFF7FAFE10BD000070B5044694F8BC036D
:104ED000012820D11148C0F89442C4F8C0034FF013
:104EE000A0400E49086008210C4881600321C16080
:104EF00000210161022181610021C161FCF772F88A
:104F000008B1FBF7ECFA0548FBF7E6FD0546294634
:104F1000204600F066F8002070BD0000300300203D
:104F200010B5044600220221D4F8C80302F0DAFAD0
:104F3000002010BD2DE9FF5F04460D4616461F46B2
:104F4000DDE90F9ADDF838804FF0000B0020039068
:104F50008DE800073B4632462946D4F8C003FBF7EC
:104F6000F4FD8346BBF1000F09D0BBF1010F09D05E
:104F7000BBF1020F09D0BBF1030F0CD108E00020F8
:104F800003900BE00220039008E00120039005E06D
:104F90000220039002E00220039000BF00BF0398AC
:104FA00004B0BDE8F09F70B5044600250026D4F893
:104FB000C003FCF78DF8054635B1012D06D0022D52
:104FC00006D0032D08D105E0002607E0022605E003
:104FD000012603E0022601E0022600BF00BF3046A2
:104FE00070BDC0F8B813704730B50446D4F8C0336C
:104FF00001EB810503F1380000EBC500C07838B142
:1050000001EB810503F1380000EBC500027606E0F4
:1050100001EB810503F1380000EBC500427600206A
:1050200030BD70B5044600250026D4F8C003FCF757
:105030005CF8054635B1012D06D0022D06D0032DB2
:1050400008D105E0002607E0022605E0012603E07E
:10505000022601E0022600BF00BF304670BD70B5D9
:10506000044600250026D4F8C003FCF759F805468D
:1050700035B1012D06D0022D06D0032D08D105E053
:10508000002607E0022605E0012603E0022601E0F3
:10509000022600BF00BF304670BD2DE9F04F85B03D
:1050A00004460D4616461F46DDE9109ADDF83C80A1
:1050B0004FF0000B002004900E988DE801073B464E
:1050C00032462946D4F8C003FBF7A5FD8346BBF161
:1050D000000F09D0BBF1010F09D0BBF1020F09D0BD
:1050E000BBF1030F0CD108E0002004900BE002207C
:1050F000049008E00120049005E00220049002E002
:105100000220049000BF00BF049805B0BDE8F08FF6
:105110002DE9F0410446884615460227D4F8740369
:10512000C66915B1012D0CD105E0F1792046FFF7D4
:1051300074FA074606E0B1792046FFF76EFA074693
:1051400000E000BF00BF3846BDE8F0810246D2F85B
:105150007403C169054B4B65054B8B65012381F8D1
:10516000503081F8523000207047000055534243C0
:10517000504030202DE9F84F054688464FF0010990
:105180000127BA460026D5F87403C469B34694F8DB
:1051900050000C2870D2DFE800F06F06154E5992CF
:1051A0009FE5F4F2F1F084F86180022184F8501058
:1051B0000120009063791F2204F154012846FFF773
:1051C00009FA48E161792846FFF769FE0646012E93
:1051D00019D1E06D68B194F8600000F0800080287B
:1051E00003D1032184F8501006E0052184F8501003
:1051F00002E0072184F8501000220221D5F8C803EC
:1052000002F070F916E0022E09D1012184F8501045
:1052100000220221D5F8C80302F064F90AE0052E45
:1052200008D10A2184F8501000220221D5F8C803C1
:1052300002F058F90FE1237962898C200159284640
:10524000FFF7B3F9042184F8501004E121792846CE
:10525000FFF725FE0646012E25D16189E06D8842C3
:105260000BD98C200059618901448C20015161893E
:10527000E06D411AE16502E0ECE00021E165E06DDE
:1052800038B1237962898C2001592846FFF78DF9BE
:1052900014E0072184F8501000220221D5F8C80339
:1052A00002F020F90AE0052E08D1092184F85010F7
:1052B00000220221D5F8C80302F014F9CBE0012046
:1052C0000090637922898C2001592846FFF782F9E2
:1052D000062184F85010BEE061792846FFF7DFFD13
:1052E0000646012E26D12189E06D88420AD98C20FC
:1052F0000059218901448C2001512189E06D411A16
:10530000E16501E00021E165E06D48B10120009018
:10531000637922898C2001592846FFF75BF902E066
:10532000072184F8501000220221D5F8C80302F0AA
:10533000D9F816E0022E09D1052184F85010002278
:105340000221D5F8C80302F0CDF80AE0052E08D1F5
:105350000A2184F8501000220221D5F8C80302F077
:10536000C1F878E023790D2204F178012846FFF78F
:105370001CF9082184F850106DE060E03DE02BE05E
:10538000FFE721792846FFF78AFD0646012E17D14F
:10539000012184F8501084F85210284600F0C8F813
:1053A0008246BAF1000F02D14FF0000901E04FF040
:1053B000020900220221D5F8C80302F093F80AE09E
:1053C000052E08D1092184F8501000220221D5F8B9
:1053D000C80302F087F83EE0002241462846FFF766
:1053E00097FE07461FB9072184F8501004E0042FE8
:1053F00002D10B2184F850102DE0012241462846AD
:10540000FFF786FE0746A7B961792846FFF72AFD10
:105410008346CBF10100C2B261792846FFF7E4FD73
:10542000217900222846FFF7DFFD092184F850107A
:1054300004E0042F02D10B2184F850100BE0284621
:1054400000F01FF88146B9F1000F02D1012184F864
:10545000501000E000BF00BF4846BDE8F88F70B5AF
:1054600004460D46A1212174FE2161740021618250
:10547000A1820121E182012229462046FFF7F6F8A8
:1054800070BD10B5044621212174FF2161740021F3
:105490006182A182E182002211462046FFF7E6F8F0
:1054A00010BD2DE9F0410746D7F87403C469012601
:1054B000A07B20B1022803D0032834D12BE000BF09
:1054C00021463846FFF7CBFF0646032E02D10020C7
:1054D00020600026F6B92078401C2060002516E0E8
:1054E000022105EB850000EBC50204F1900000EB02
:1054F00082008170002105EB850000EBC50204F1FC
:10550000900000EB820080F83110681CC5B2206862
:10551000A842E5D808E000213846FFF77EF808B930
:10552000E07BA07300E000BF00BF3046BDE8F08123
:1055300070B50546D5F87403C4690126217928465B
:10554000FFF76FFC0D2801D0022619E00D49A06F6E
:10555000884214D1E16FA06D814211D194F884008A
:1055600008B900260CE094F88400012801D1012636
:1055700006E094F88400022802D1022600E0022608
:10558000304670BD555342532DE9F04104460D4657
:105590001646D4F87403C76920780A280ED105EBA3
:1055A000850000EBC50207F1900000EB8201342278
:1055B0003046FAF794FE0020BDE8F0810220FBE7B8
:1055C00070B50546D5F87403C469607948B161794E
:1055D0002846FFF719F861792846FFF7D2F800202E
:1055E0006071207948B121792846FFF70DF82179BB
:1055F0002846FFF7C6F800202071D5F87403C0696B
:1056000040B1D5F87413C86901F03EFE0020D5F80A
:105610007413C861002070BDFEB504460026022741
:10562000D4F874030179502306222046FFF781F84D
:105630000646FF2E00D1CCE03146204601F08BF823
:105640004FF4807001F0B4FED4F87413C861D4F83C
:105650007403C56994F81F0300EB800101EBC001DE
:1056600004F54F7000EB4100007B00F08000C0B1FA
:1056700094F81F0300EB800101EBC00104F54F70AB
:1056800000EB4100007BE87194F81F0300EB800100
:1056900001EBC00104F54F7000EB4100C089688147
:1056A00017E094F81F0300EB800101EBC00104F543
:1056B0004F7000EB4100007BA87194F81F0300EBD2
:1056C000800101EBC00104F54F7000EB4100C0897F
:1056D000288194F81F0300EB800101EBC00104F561
:1056E0004F7000EB4100007D00F08000C0B194F8E5
:1056F0001F0300EB800101EBC00104F54F7000EBCC
:105700004100007DE87194F81F0300EB800101EB7C
:10571000C00104F54F7000EB4100C08A688117E0BA
:1057200094F81F0300EB800101EBC00104F54F70FA
:1057300000EB4100007DA87194F81F0300EB80018D
:1057400001EBC00104F54F7000EB4100C08A2881D5
:105750000020A5F8F800A5F8FA0028736873A8736C
:10576000A9792046FEF70EFF6871E9792046FEF719
:1057700009FF28712046FFF7E9FC682105F1900038
:10578000FAF7C6FD2889022294F81D13CDE900120C
:10579000029094F81C33AA796979204600F0D1FD73
:1057A0006889022294F81D13CDE90012029094F842
:1057B0001C33EA792979204600F0C3FD29790022BB
:1057C0002046FFF711FC697900222046FFF70CFC08
:1057D00000273846FEBD2DE9F0410646D6F8740391
:1057E000C4694FF0010801250127207B10B1012871
:1057F0007AD12EE2B4F8F8002168884275D20121EE
:10580000B4F8F80000EB800202EBC00204F1900053
:1058100000EB82004170B4F8F80000EB800101EB6E
:10582000C00104F1900010F8210009287DD2DFE8C2
:1058300000F0057C5DFE15FD7C7CFC000421B4F8C5
:10584000F80000EB800202EBC00204F1900000F8C7
:105850002210D6F8B803C4F8FC0000BFB4F8F80072
:1058600000EB800303EBC00304F1900000EB830026
:1058700000F10F0294F8F810304600F000FB0546E6
:1058800055B90221B4F8F80000EB800202EBC00227
:1058900004F1900000F82210022D0BD10521B4F87C
:1058A000F80000EB800202EBC00204F1900000F867
:1058B000221018E0042D16D10121B4F8F80000EBF5
:1058C000800202EBC00204F1900000F822100221D5
:1058D000B4F8F80000EB800202EBC00204F1900083
:1058E00000EB820041709BE1B6E1A1E194F8F81071
:1058F000304600F03BFC0746EFBBB4F8F80000EB85
:10590000800101EBC00104F1900000EB8100807880
:1059100078B10121B4F8F80000EB800202EBC0027C
:1059200004F1900000EB820000E078E180F8311093
:105930000CE00021B4F8F80000EB800202EBC0029A
:1059400004F1900000EB820080F831100321B4F8DC
:10595000F80000EB800202EBC00204F1900000F8B6
:1059600022100021B4F8F80000EB800202EBC00224
:1059700004F1900000E00DE000EB82004170B4F80B
:10598000F80000EB800202EBC00204F1900000EB93
:1059900082008170022F4FD1B4F8F80000EB800133
:1059A00001EBC00104F1900000EB81008078022837
:1059B0000DD00121B4F8F80000EB800202EBC00228
:1059C00004F1900000EB820080F831100CE000211F
:1059D000B4F8F80000EB800202EBC00204F1900082
:1059E00000EB820080F831100521B4F8F80000EBDC
:1059F000800202EBC00204F1900000F822100121A5
:105A0000B4F8F80000EB800202EBC00204F1900051
:105A100000EB820041700221B4F8F80000EB800234
:105A200002EBC00204F1900002E0F2E075E01DE03C
:105A300000EB8200817018E0042F16D10121B4F828
:105A4000F80000EB800202EBC00204F1900000F8C5
:105A500022100221B4F8F80000EB800202EBC00231
:105A600004F1900000EB82004170D9E0B4F8F80036
:105A700000EB800303EBC00304F1900000EB830014
:105A8000021D94F8F810304600F0C3FA0546E5B957
:105A90000121B4F8F80000EB800202EBC00204F12F
:105AA000900000F822100021B4F8F80000EB80020A
:105AB00002EBC00204F1900000EB82004170B4F8E8
:105AC000F800401CA4F8F80026E0022D0BD10521B7
:105AD000B4F8F80000EB800202EBC00204F1900081
