:020000040800F2
:10000000E04B0020F5020008DF2900089D270008CA
:10001000DD290008A5080008F144000800000000E0
:10002000000000000000000000000000390200088D
:10003000E9090008000000008D0200080D2A0008F0
:100040000F0300080F0300080F0300080F03000848
:100050000F0300080F0300080F0300080F03000838
:100060000F0300080F0300080F0300080F03000828
:100070000F0300080F0300080F0300080F03000818
:100080000F0300080F0300080F0300080F03000808
:100090000F0300080F0300080F0300080F030008F8
:1000A0000F0300080F0300080F0300080F030008E8
:1000B0000F0300080F0300080F0300080F030008D8
:1000C0000F0300080F0300080F0300080F030008C8
:1000D0000F0300080F030008212F00080F0300087A
:1000E0000F0300080F0300080F0300080F030008A8
:1000F0000F0300080F0300080F0300080F03000898
:100100000F0300080F0300080F0300080F03000887
:100110000F0300080F0300088D2A00080F030008D2
:100120000F0300080F0300080F0300080F03000867
:100130000F0300080F0300080F0300080F03000857
:100140000F0300080F0300080F030008012A00082E
:100150000F0300080F0300080F0300080F03000837
:100160000F0300080F0300080F0300080F03000827
:100170000F0300080F0300080F0300080000000031
:100180000F0300080F03000800F002F800F045F824
:100190000AA090E8000C82448344AAF10107DA45E2
:1001A00001D100F03AF8AFF2090EBAE80F0013F0EF
:1001B000010F18BFFB1A43F001031847985C0000B9
:1001C000B85C0000103A24BF78C878C1FAD852074A
:1001D00024BF30C830C144BF04680C6070470000C1
:1001E0000023002400250026103A28BF78C1FBD840
:1001F000520728BF30C148BF0B6070471FB505F0DC
:10020000C1FD9DE8030000F04DFA00F019FA1FBD92
:1002100010B5002000F07CFA10BD00F0C1FA1146C4
:10022000FFF7ECFF04F01EFB00F0DFFA03B4FFF76A
:10023000EFFF03BC00F010FB2B4B19680868B0E817
:10024000F04F80F30988BFF36F8F4FF0000080F309
:10025000118870470000000006480068006880F3BD
:10026000088862B661B6BFF34F8FBFF36F8F00DFB0
:1002700000BF00BF08ED00E0DFF80C00016841F4AA
:1002800070010160704700BF88ED00E0EFF3098066
:10029000BFF36F8F144B1A681EF0100F08BF20EDCC
:1002A000108A20E9F04F106008B44FF0500080F33E
:1002B0001188BFF34F8FBFF36F8F05F08FF84FF0AA
:1002C000000080F3118808BC19680868B0E8F04F96
:1002D0001EF0100F08BFB0EC108A80F30988BFF33E
:1002E0006F8F704700BF00BF54000020EFF3058000
:1002F000704700000948804709480047FEE7FEE7CD
:10030000FEE7FEE7FEE7FEE7FEE7FEE7FEE7FEE7C5
:1003100004480549054A064B70470000392A000881
:1003200089010008E0450020E04B0020E047002064
:10033000E047002070B5064600F094F9056806F124
:100340000B0020F00704B4429CBF002070BD2B4678
:100350006A68BAB11068A04210D304F1080188425B
:100360003CBF5068586007D351681019416011684C
:10037000091B016058601460101D70BD134652685F
:10038000002AE7D12146284600F078F90028DED17E
:1003900070BD70B50446051F00F064F90068002CBC
:1003A00014BF446870BD002C18BFAC423CBF20464F
:1003B0006468F8D301680A18AA4218BF456003D1DF
:1003C0002A6805461144016028684119A1421CBFF2
:1003D0006C6070BD6168696021680844286070BD08
:1003E00053EA020C00F069802DE9F04B4FF0000653
:1003F000002B1FBFB3FA83F503FA05F424FA05F6C0
:100400005E4012BF1643B2FA82F502FA05F4C5F156
:1004100020051EBF22FA05FC44EA0C04203556EAEA
:10042000044C4FEA144418BF641C4FF000084FF00E
:100430000009904271EB030C39D3002919BFB1FABE
:1004400081F701FA07F6B0FA80F700FA07F6C7F16C
:1004500020071EBF20FA07FC46EA0C062037B6FB31
:10046000F4FCA7EB0507103F07F01F0BCBF12006AC
:100470000CFA0BFB2CFA06F644BFB3460026202FDD
:10048000A4BF5E464FF0000B5BEA060C08BF4FF0BE
:10049000010B19EB0B09ABFB027C48EB0608C01BF8
:1004A00006FB02CC0BFB03CC71EB0C01C1E70B4646
:1004B000024641464846BDE8F08B13B54FF00000B8
:1004C0004FF00001AFF30080BDE81C4070472DE9FC
:1004D000F041074615460E461020FFF72BFF04009B
:1004E0000AD06760C4E9026500F0C0F801682160C5
:1004F00004600020BDE8F0810120FBE7032A40F200
:10050000308010F0030C00F0158011F8013BBCF1B5
:10051000020F624498BF11F801CB00F8013B38BFCD
:1005200011F8013BA2F1040298BF00F801CB38BFDB
:1005300000F8013B11F0030300F02580083AC0F0F9
:10054000088051F8043B083A51F804CBA0E80810A1
:10055000F5E7121D5CBF51F8043B40F8043BAFF3D4
:100560000080D20724BF11F8013B11F801CB48BF2E
:1005700011F8012B24BF00F8013B00F801CB48BF64
:1005800000F8012B704710B5203AC0F00B80B1E89D
:100590001850203AA0E81850B1E81850A0E81850B8
:1005A000BFF4F5AF5FEA027C24BFB1E81850A0E8C1
:1005B000185044BF18C918C0BDE810405FEA827CDB
:1005C00024BF51F8043B40F8043B08BF7047D207F2
:1005D00028BF31F8023B48BF11F8012B28BF20F893
:1005E000023B48BF00F8012B70474FF0000200B5F6
:1005F000134694469646203922BFA0E80C50A0E846
:100600000C50B1F12001BFF4F7AF090728BFA0E8F3
:100610000C5048BF0CC05DF804EB890028BF40F8BF
:10062000042B08BF704748BF20F8022B11F0804F01
:1006300018BF00F8012B70477047704770470000E3
:1006400070B5064C7C44064D7D4403E02068204490
:100650008047241DAC42F9D170BD00002C58000029
:100660002C5800000048704784450020004870471F
:10067000B4450020704770477047704738B504464E
:100680000A4600206946AFF30080002808BF38BD45
:1006900002460099204600F061F8012038BD012093
:1006A00000F076B8F8B5AFF30080054600200C46A0
:1006B000102000BF0646A819A0420DD9324669464F
:1006C0000020AFF30080070008BF00F061F8009839
:1006D000A04218BF0546C419FFF7C4FF05600746CE
:1006E000F01D20F007004619284600F00AF8B44231
:1006F00008BFF8BDA21B31463868BDE8F84000F0DD
:100700002DB800210160C0E901107047102070472A
:100710002DE9F0410646FFF7A9FF8046454613E064
:1007200016B1E068B0420ED120682860D4E901011A
:10073000D8F8007088472046FFF72BFED8F8000055
:10074000B842EBD100E025462C68002CE8D1BDE88A
:10075000F0810000004870477C4500200346406857
:100760008C46002818BF88423CBF03464068F8D337
:1007700018681844884207D00CF1030020F00700E5
:10078000001D411A521A0146081D0A60FFF701BEFA
:1007900010B500F039F8BDE8104000F02FB87047F0
:1007A0007546FFF7D7FFAE4605006946534620F071
:1007B0000700854618B020B5FFF7AAFDBDE8204028
:1007C0004FF000064FF000074FF000084FF0000B0D
:1007D00021F00701AC46ACE8C009ACE8C009ACE8C0
:1007E000C009ACE8C0098D46704710B50446AFF3A8
:1007F00000802046BDE81040FFF718BD002801D05A
:1008000000F02AB87047000010B5012805D000217B
:1008100003A000F027F8012010BD09A1F8E70000AF
:1008200053494752544D454D3A204F7574206F66D9
:100830002068656170206D656D6F72790000000041
:100840003A2048656170206D656D6F727920636F25
:10085000727275707465640001491820ABBEFEE7C2
:100860002600020070B505460C460A2000E06D1C0B
:1008700000F011F835B128780028F8D102E0641CA6
:1008800000F009F814B120780028F8D1BDE87040D4
:100890000A20AFF3008008B569468DF800000320F8
:1008A000ABBE08BDFEE770B50546D0F87403C46959
:1008B00094F84E0003281BD0042822D1217B28461F
:1008C00002F0E6FF01281CD1217B284602F0CBFF75
:1008D00081B2A06A884215D0628B8A4212D2401A35
:1008E000A062206A08442062032084F84E000FE0D2
:1008F000237B628B2846216A02F032FB042084F8B5
:100900004E0070BD002084F84E00284602F084FCA2
:10091000D5F8C803BDE870400022042104F0AAB84D
:10092000F8B50546D0F874030126C46994F84D0063
:1009300001280CD0022818D1617B284602F0A8FFBC
:10094000012813D0022810D184F84D6020E0228BBA
:10095000606A0096637B904200D882B22846E169C3
:1009600002F00EFB022084F84D00F8BD208B616A76
:100970000022814206D9091A6162E3691844E061E4
:10098000E2D100E0626284F84D20284602F047FC84
:10099000D5F8C803BDE8F8400022042104F06AB885
:1009A00010B500224FEA020100EB8203521CC3F88B
:1009B0007C130F2AF8D300224FF400738418521CC2
:1009C00084F81C119A42F9D301704170012282709F
:1009D000C0F8B813027640238371417680F81C1367
:1009E00080F81D23002010BD70477047A1220274BB
:1009F000212242740022428282820722C28202F0B5
:100A000032BC90F83510022903D0802141650120C5
:100A10007047052180F835100068016821F0010158
:100A2000016000207047000070B5044600F0F0F847
:100A30000546601C02D004480078044400F0E8F841
:100A4000401BA042FAD370BD240000202DE9F84FCE
:100A5000DFF87CB100224FF001084FF0030A4FF09D
:100A60000F090BF1040E00BF0B6808FA02F42340D3
:100A7000A3426ED14D68022D01D0122D0ED1D508A2
:100A800000EB850CDCF820505607F70E09FA07F644
:100A9000B5430E69BE402E43CCF820600668550071
:100AA0000F790AFA05FC07F0030726EA0C06AF40A7
:100AB000374307604E68012E05D0022E03D0112E59
:100AC00001D0122E0ED18668CF6826EA0C06AF4000
:100AD000374387604668A6430C79C4F300149440FA
:100AE00034434460C6688C6826EA0C06AC40344344
:100AF000C4604C68E40065D5364C256845F48045F3
:100B00002560246822F0030504F480440094324CEC
:100B10002E19D6F8084895072F0F09FA07F5AC43A8
:100B20002E4DA84201D1002524E02D4DA84201D12F
:100B300001251FE02B4DA84201D102251AE02A4DC4
:100B4000A84201D1032515E0284DA84202D1042571
:100B500010E037E0264DA84201D105250AE0254DD9
:100B6000A84201D1062505E0234DA84201D1072561
:100B700000E00825BD402543C6F80858DBF80040D2
:100B80005D464E689C43F60300D51C432C60DEF89E
:100B9000004075464E689C43B60300D51C432C604C
:100BA0000B4D08352C684E689C43F60200D51C435B
:100BB0002C60074D0C352C684E689C43B60200D55E
:100BC0001C432C60521C102AFFF44EAFBDE8F88F76
:100BD000003C014044380240003001400000024027
:100BE0000004024000080240000C024000100240D5
:100BF0000014024000180240001C024042694A40B2
:100C0000426170470AB1816170470904FBE7000047
:100C1000014880687047000024000020D0F894024A
:100C200002F0D6BDD0F8940202F0EEBD006803F0E9
:100C300039B9006803F03AB901EB810100EBC1005A
:100C400090F85C00704701EB810100EBC100C06CC3
:100C5000704710B5044690F89002012809D0012091
:100C600084F89002206803F02CF9002084F89002A8
:100C700010BD022010BDFEB50546DDE9096095F8FE
:100C80009042089F012C1ED0012485F8904201EB70
:100C9000810405EBC40402F07F0C04F8383F208186
:100CA0006170E67184F802C04FEAD21C84F803C078
:100CB00027710097CDE90160286803F0A7F90021AA
:100CC00085F89012FEBD0220FEBDD0F8940202F01D
:100CD0001BBE2DE9F00301EB8104DDE90689DDE9A6
:100CE00008C700EBC404022684F83B2084F83F3098
:100CF000B8F1000F0AD084F84260002553B1012BEF
:100D00003FD0022B1DD0032B2AD120E0032584F8ED
:100D10004250F2E7B8F1010F22D10ABBBCF1000F3B
:100D200010D1012284F8512002E084F8425001E001
:100D300084F8426094F85C20022A11D084F83D7057
:100D40000EE02AB994F85120002AF1D1EDE712B152
:100D500094F8502001E094F8512092B184F8426058
:100D6000C4E9119C84F85C50E56484F8391084F877
:100D70005D50027C04F138010068BDE8F00303F027
:100D8000C1B984F84250EBE72DE9F0410446006810
:100D90000025064603F091F801287DD1206803F074
:100DA000FAFA002878D0206803F0F5FA800203D51B
:100DB00021684FF400104861206803F0ECFAC0028B
:100DC00003D521684FF480104861206803F0E3FAEE
:100DD000400103D521684FF080604861206803F02E
:100DE000DAFA800702D5216802204861206803F002
:100DF000D2FA800010D5D6F8400420F02E00C6F8B4
:100E000040042046FFF70EFF0121206803F0A8FAF6
:100E100021684FF000504861206803F0BCFAC0011F
:100E200002D5204601F02CFC206803F0B4FA00073C
:100E300005D5204600F0ABF82168082048612068FD
:100E400003F0A9FA800120D5206803F054F9074681
:100E50004FF0010812E000BF08FA05F038420CD04C
:100E600006EB4510D0F80005E9B20004204602D593
:100E700001F0E2F901E001F0F8FA6D1CA068A84267
:100E8000EAD821684FF000704861206803F083FAC7
:100E9000C0060ED5206800E00BE0816921F010014A
:100EA0008161204601F042FC2068816941F0100117
:100EB0008161BDE8F08130B58BB0040026D00320FD
:100EC00084F89102204600F023F8206802F086FFA3
:100ED00004F1100128220D466846FFF754FB94E800
:100EE0000F0002F029FF0121206803F07EFA28227A
:100EF00029466846FFF747FB94E80F0003F0C6F960
:100F0000012084F8910200200BB030BD0120FBE7E6
:100F100030B5006887B0B0F1A04F2ED100244FF457
:100F20000070CDE90004164D694628460294FFF78B
:100F30008DFD4FF4E05000900220CDE901040A201D
:100F4000CDE9034069462846FFF780FD0D4801685A
:100F500041F0800101600B481030016841F480418C
:100F600001600068002200F48040059005214320C4
:100F700000F076FB432000F067FB07B030BD0000B7
:100F80000000024034380240006803F018BAD0F87C
:100F9000940202F081BC10B5044690F8900201283A
:100FA0000DD0012084F89002206802F053FF012147
:100FB000206802F039FF002084F8900210BD022062
:100FC00010BD10B5044690F89002012809D0012008
:100FD00084F89002206803F01EFA002084F8900242
:100FE00010BD022010BD000070B5040004D094F8BC
:100FF0003D00002510B106E0012070BD84F83C5092
:10100000204600F075F8242084F83D00206801682F
:1010100021F00101016000F0D9FC33492268B0FBE6
:10102000F1F15160314A6368934206D94FF49673E7
:1010300059434FF47A73B1FBF3F12368491C1962E9
:10104000616891420BD84900B0FBF1F2C2F30B0288
:10105000042A01D2042019E0B0FBF1F016E0A368E5
:101060009BB301EBC10202EB0112B0FBF2F242F4BE
:101070008042120530D04BB301EBC10202EB0111EB
:10108000B0FBF1F040F4804040F400402168C861BA
:10109000D4E90701084321680860D4E90310084334
:1010A00021688860D4E9050108432168C860206888
:1010B000016841F0010101602564202084F83D00B1
:1010C000256384F83E50002070BD00E006E001EB8F
:1010D0004102B0FBF2F2CCE70120D7E701EB41017E
:1010E000B0FBF1F0D0E7000040420F00A086010005
:1010F00010B586B0044614216846FFF776FA144905
:101100002068884221D113480021026842F002027F
:101110000260006800F0020005904FF4107000902B
:10112000122001900120CDE90201042004906946BB
:101130000948FFF78BFC07481030016841F40011A3
:101140000160006800F40010059006B010BD0000BA
:101150000054004030380240000402402DE9FE43B4
:10116000044600688168744D744E4FF04027029128
:10117000A84201D1314600E0394689680191C16930
:101180004FF00108C1F3012102290AD0C16911F40D
:10119000407F06D00199890773D5A84267D13046B0
:1011A00066E00299890707D54068C043000603D46A
:1011B0000021204601F038FB0198C0070DD02068BF
:1011C000A84201D1304600E038464068C04340069E
:1011D00003D40121204601F0E3FA01984FF65F792C
:1011E000400628D52068A84201D1314600E03946A2
:1011F0004968C94389061ED4A84201D1304600E09F
:101200003846406820F0600101D1304600E03846A1
:1012100041602068416801EA090141602068C168B5
:101220008068009084F84180606C40F00200606447
:10123000204600F086F8029800077BD520684168B8
:10124000C943890676D4416801EA090141602068F2
:10125000A84201D1304600E03846406820F06000E6
:1012600000D03E46706020688068009057E03846A5
:1012700040686FEA0000000603D40121204601F017
:10128000D3FA0298C00708D020684068C0434006DF
:1012900003D40021204601F083FA02984FF69F798B
:1012A00040061FD520684168C94389061AD44168A1
:1012B00001EA090141602068A84201D1304600E0FE
:1012C0003846406820F0A00101D1304600E03846A1
:1012D000416084F84180606C40F002006064204608
:1012E00000F02FF80198000724D52068A84201D10A
:1012F000314600E039464968C94389061AD4A842F4
:1013000001D1304600E03846406820F0A00000D00F
:101310003E4670602068416801EA0901416084F836
:101320004180606C40F0040060642046BDE8FE43EC
:1013300000F007B8BDE8FE830038004000340040EC
:10134000704770472DE9F05F04004FF002064FF040
:1013500000074FF010052CD04FF00209C84684F862
:10136000419054486063204600F0ACF82068C169A1
:1013700040F6BF7A21EA0A01C1612168C1F82080E4
:101380002068D0F81C8060694FF4007B022835D0BB
:10139000E06800B12025A068202800D86D00012059
:1013A00000F090F92169594525D1E16821B1A900E2
:1013B00003E00120BDE8F09FE900B0FBF1F000BFC1
:1013C00000EB800061694000B0FBF1F0401D0A2194
:1013D000B0FBF1F101F00100091AC1F34F06070259
:1013E000B01EFE280AD3606C40F0100060642046F6
:1013F000FFF7A7FFDDE7B0FBF5F0E1E72069216823
:101400003E4330430862A0882189228B0843A1898A
:101410001143084380B2216840EA080040F40060AC
:10142000C861206A01283AD12348606323482168B3
:10143000234A4FF04023814201D1114600E0194672
:10144000C96921EA0A0101D1154600E01D46E9619A
:1014500025684946854201D1154600E01D462962AE
:101460002568854201D1114600E01946CE696168C0
:1014700059451BD0D1B100212789B4F80CC047EAE7
:101480000C07B4F818C04CEA010C47EA0C07B9B2D3
:10149000314341F40061854200D01A46D1610020F9
:1014A0006064012084F84100002083E74FF48071DC
:1014B000E2E70000AD2800085D1100080038004098
:1014C0000034004070B586B0044614216846FFF72A
:1014D0008CF81C492068884232D11B4800240168DE
:1014E00041F400410160006800F400400590164896
:1014F0001038016841F001010160016801F001014B
:101500000591016841F0040101600068022500F0C6
:101510000400059010200090CDE901540626CDE985
:10152000034669460948FFF791FA4FF4A45000902A
:10153000CDE90154CDE9034669460548FFF786FA2F
:1015400006B070BD003C0040403802400000024040
:1015500000080240704770470248816802781144D1
:1015600081607047240000200B4810B5016841F4E9
:1015700000710160016841F480610160016841F41B
:1015800080710160032000F08BF8002000F006F865
:1015900000F03EF8002010BD003C024010B50146AE
:1015A00088B00022362000F05BF8362000F04CF8BE
:1015B00013480024016841F010010160006805A98A
:1015C00000F010000690684600F0E0F900F0FEF927
:1015D0000C494000B0FBF1F10C480B4A491E026077
:1015E00040F2E732C0E90324C0E9011400F042FCF4
:1015F00010B1012008B010BD044800F057FCF9E715
:101600004038024040420F0000100040E801002036
:101610000C4882B0016841F480410160006800F428
:10162000804000900748001F016841F08051016030
:101630000068002200F0805000900F21901E02B040
:1016400000F00EB84438024000F01F020121914022
:101650004009800000F1E020C0F800117047000050
:10166000F0B40E4B1B680C46C3F30223C3F107050D
:10167000042D00D90425191D072901D2002300E0FB
:10168000DB1E012606FA05F1491E214099409E40C5
:10169000761E16403143F0BC01F0A2B90CED00E01B
:1016A000064900F0070208684FF6FF03184040EAB9
:1016B0000220034A10430860704700000CED00E070
:1016C0000000FA0501460020012907D110490968E8
:1016D00011F4000103D0012900D10E4870470C48D5
:1016E000001F01680068490200F03F0001D50A4967
:1016F00000E00A49064AB1FBF0F07C321168C1F300
:10170000881141431068C0F30270B1FBF0F07047DC
:10171000083802400080BB0000127A000024F40068
:101720002DE9F843054600684FF00109C1074FF065
:10173000000601D1400727D5DFF80C81C8F86860A2
:10174000FFF766FA0746414C05E000BFFFF760FA75
:10175000C01B022857D820680001F7D468688101AF
:10176000287A41EA0070394984310860C8F86890E5
:10177000FFF74EFA074604E0FFF74AFAC01B0228BB
:1017800041D820680001F7D52878800752D52F4826
:101790004030016841F08051016000682C4C00F03D
:1017A00080500090206840F480702060FFF730FA8D
:1017B000074604E0FFF72CFAC01B022823D8206854
:1017C000C005F7D5214C7034206810F4407020D04B
:1017D000A98901F4407181421BD020681D4920F481
:1017E0004070C1F800900E6020602068C00710D0E3
:1017F000FFF70EFA064641F2883707E0FFF708FACE
:10180000801BB84202D90320BDE8F8832068800716
:10181000F4D5E9680D48C1F301220830032A0BD042
:10182000016821F4F81101602068A989C1F30B0156
:10183000084320600020E7E70268074B22F4F81213
:1018400019400A430260EFE70000474200380240B7
:1018500000700040400E4742FFFCFF0F2DE9F047AB
:101860000E46050065D0DFF81481D8F80000F7B205
:1018700000F00F00B04207D288F80070D8F80000DE
:1018800000F00F00B04254D128683D4C810712D5BA
:10189000400703D5206840F4E05020602878000716
:1018A00003D5206840F4604020602068A96820F0DB
:1018B000F000084320602878C0072DD030496868C0
:1018C0000839012812D0022813D0032811D0096842
:1018D000890700292DDA216821F0030101432160E5
:1018E000FFF796F9814641F2883A0EE009688903CC
:1018F000EFE709688901ECE7FFF78AF9A0EB090136
:10190000514502D90320BDE8F0872068696800F0DE
:101910000C00B0EB810FEFD1D8F80010404601F079
:101920000F01B14207D90770006800F00F00B04204
:1019300001D00120E7E72878400705D52068E9684D
:1019400020F4E050084320602878000706D520687E
:10195000296920F4604040EAC100206000F056F898
:101960002168084AC1F30311515CC8400649086068
:101970000020FFF713FE0020C5E70000003C0240F6
:1019800008380240E05D0008300000200F220260AD
:101990000C4A136803F003034360136803F0F00379
:1019A0008360136803F4E053C36012684FF4E0539C
:1019B00003EAD20202610448006800F00F000860E8
:1019C0007047000008380240003C024004480549C6
:1019D00000680968044AC1F38221515CC84070471D
:1019E0003000002008380240F05D00080448054936
:1019F00000680968044AC1F34231515CC84070472D
:101A00003000002008380240F05D0008154810B58D
:101A1000006810F00C02144813D04110042A0FD0B3
:101A2000082A0ED10F4C241F2268236802F03F02BF
:101A30005B0207D52068C0F38810A0FB010106E017
:101A4000084610BD2168C1F38811A1FB00010023E5
:101A5000FEF7C6FC2168C1F30141491C4900B0FBF7
:101A6000F1F010BD083802400024F4002DE9F84FD1
:101A7000050076D02878DFF8F8B2BE4CC00749D010
:101A8000DBF800105846C1F38101012908D0006835
:101A9000C0F3810002280AD1201D0068400206D54B
:101AA0002068800336D568680028E2D032E0686894
:101AB000B0F5803F10D0B0F5A02F206810D020F4F2
:101AC00080302060206820F4802020606868A0B109
:101AD000FFF79EF806460CE0206840F48030F4E7FB
:101AE00040F480202060F7E7FFF792F8801B64281D
:101AF00073D820688003F7D50CE0FFF789F8064615
:101B000005E000BFFFF784F8801B6428F0D8206848
:101B10008003F7D42878DFF8608280074FF000094F
:101B20003ED5DBF80010584611F00C0F09D00068C4
:101B3000C0F3810002280BD18D48001F00684002CD
:101B400006D42068800715D5E868012809D111E07E
:101B5000E868B8B10120C8F80000FFF759F8064658
:101B600005E002E1FFF754F8801B0228C0D8206886
:101B70008007F7D52068296920F0F80040EAC10005
:101B800020600DE0C8F80090FFF742F8064604E038
:101B9000FFF73EF8801B02281FD820688007F7D483
:101BA0002878000722D5724E744869696C3671B185
:101BB00001210160FFF72CF8074604E0FFF728F841
:101BC000C01B022809D830688007F7D50EE0C0F89E
:101BD0000090FFF71DF8074605E083E0FFF718F8CF
:101BE000C01B02287ED830688007F7D428784007C9
:101BF00068D5DFF87CA100270AF1380ADAF800007E
:101C0000C0000BD4DAF8001041F08051CAF800107F
:101C1000DAF80000012700F080500090584E30683C
:101C2000C00510D4306840F480703060FEF7F0FFDB
:101C3000009005E0FEF7ECFF0099401A022851D809
:101C40003068C005F6D54A4EA868683601280FD01E
:101C50000528306810D020F001003060306820F096
:101C600004003060A868B8B1FEF7D2FF00900FE022
:101C7000306840F00100F4E740F004003060F7E71E
:101C8000FEF7C6FF0099411A41F28830814264D8BC
:101C900030688007F4D50EE0FEF7BAFF009007E049
:101CA000FEF7B6FF0099411A41F28830814254D8BC
:101CB00030688007F4D42FB1DAF8001021F0805199
:101CC000CAF80010A869C0B3DBF80010C1F38101A5
:101CD00002294AD00228484607D0C8F86000FEF71B
:101CE00097FF00E039E005463AE04746C8F8600053
:101CF000FEF78EFF064604E0FEF78AFF801B0228EF
:101D00002BD820688001F7D4D5E907010843A96AD8
:101D10001C4A490802EB01416A6A41EA8211084300
:101D200095F82C1040EA01611148001F0160012064
:101D30003866FEF76DFF054605E014E0FEF768FF24
:101D4000401B022809D820688001F7D50BE000BFAE
:101D5000FEF75EFF401B022802D90320BDE8F88F82
:101D600020688001F4D40020F8E70120F6E70000A5
:101D7000083802400038024000004742800E4742C7
:101D8000007000400000FFFF70B5040005D0002582
:101D9000A56294F8510010B106E0012070BD84F8EE
:101DA0005050204600F030F8022084F8510020689E
:101DB000016821F040010160D4E901010843D4E940
:101DC00003121143084361690843218B01F4007138
:101DD0000843E1690843216A0843A16A084321686E
:101DE0000860A069042101EA1040616A0843216883
:101DF00048602068C16921F40061C1616565012006
:101E000084F85100002070BD10B586B0044614213E
:101E10006846FEF7EAFB1349206888421FD1124842
:101E20000021026842F480520260006800F4805091
:101E300005900D481438026842F001020260006803
:101E400000F001000590E02000900220CDE90101A2
:101E50000520CDE9031069460448FEF7F7FD06B0FA
:101E600010BD000000300140443802400000024034
:101E70007047704710B5040003D094F8390010B1D2
:101E800007E0012010BD002084F83800204600F053
:101E90000CF8022084F83900211D206800F0FCFDB8
:101EA000012084F83900002010BD70470168CA681D
:101EB00042F00102CA600068016841F0010101605E
:101EC00000207047704770B50446006801694FF004
:101ED0000005C943890715D4C168C943890711D4CE
:101EE000E91E016101202076206880698007204674
:101EF00002D0FFF7E7FF04E000F098F8204600F07A
:101F000096F8257620680169C943490717D4C16846
:101F1000C943490713D46FF0040101610220207600
:101F20002068806910F4407F204602D0FFF7CAFF86
:101F300004E000F07BF8204600F079F82576206870
:101F40000169C943090716D4C168C943090712D4F6
:101F50006FF008010161042020762068C0698007C5
:101F6000204602D0FFF7AEFF04E000F05FF8204605
:101F700000F05DF8257620680169C943C90617D4C9
:101F8000C168C943C90613D46FF01001016108206C
:101F900020762068C06910F4407F204602D0FFF709
:101FA00091FF04E000F042F8204600F040F825766A
:101FB00020680169C943C90708D1C168C943C90775
:101FC00004D1891E0161204600F032F820680169C1
:101FD000C943090609D4C168C943090605D46FF08D
:101FE000800101612046FFF743FF20680169C94372
:101FF000490609D4C168C943490605D46FF04001B8
:102000000161204600F01EF820680169C943890675
:102010000BD4C168C943890607D46FF02001016160
:102020002046BDE87040FFF724BF70BD7047704781
:1020300000680349884201D1FFF78EBA704700005B
:10204000001000407047704770B502680446106881
:10205000D168536910F00F0F50D003F0010501F45F
:10206000907635435DD0C20705D0CA0503D5E26B33
:1020700042F00102E263420705D5DA0703D0E26BC2
:1020800042F00202E263820705D5DA0703D0E26B71
:1020900042F00402E263020705D5DA0703D0E26BDF
:1020A00042F00802E263E26B002A33D0800604D5D6
:1020B000880602D5204600F065FD20684069E16B86
:1020C000C0F38010090700D428B3204600F04CFD6F
:1020D0002068416949061AD5416921F040014161F2
:1020E000606BA0B11B490165606BFEF78AFC00289C
:1020F00010D0606B016DBDE870400847830610D5B5
:102100008B060ED52046BDE8704000F03BBD204652
:10211000FFF799FF70BD2046FFF795FF0020E063B1
:1021200070BD030606D50B0604D52046BDE87040F9
:1021300000F0C4BE4006F3D54806F1D5D16820466C
:1021400021F04001D160202184F8391000F073F8AB
:1021500070BD0000592B000870B5040004D094F83D
:102160003900002510B106E0012070BD84F8385018
:10217000204600F023F8242084F839002068C16844
:1021800021F40051C160204600F042FD2068016941
:1021900021F4904101612068416921F02A014161E7
:1021A0002068C16841F40051C160E563202084F8D3
:1021B000390084F83A00002070BD000010B586B0E8
:1021C000044614216846FEF710FA17492068884231
:1021D00028D11648016841F400310160006800F41C
:1021E0000030059011481038016841F0010101608C
:1021F0000068694600F0010005900C200090022064
:1022000001900120029003200390072004900848C9
:10221000FEF71CFC002205212620FFF721FA2620CC
:10222000FFF712FA06B010BD0044004040380240EB
:1022300000000240704770472DE9F05F06460068D5
:10224000884600EB4814D4F808054FF0040B41070A
:1022500008EB88004FF0050A4FF0100706EBC005A9
:1022600008D5C4F808B5D4F80C0540F00200C4F84D
:102270000C0532E0D4F80805800601D520202AE0BC
:10228000D4F808054FF00809000710D5D4F80C055C
:1022900040F00200C4F80C0585F85DA0C4F808758C
:1022A000C4F808954146306801F00BFE15E0D4F8FB
:1022B0000805400511D5D4F80C0540F00200C4F81B
:1022C0000C054146306801F0FCFDC4F8087585F83E
:1022D0005D904FF48060C4F80805D4F808058005C7
:1022E0000ED5D4F80C0540F00200C4F80C054146A8
:1022F00004F5A164306801F0E4FD4FF400708DE056
:10230000D4F808054FF00001C0074FF0010236D0A5
:10231000306930B1A86CD4F81035C3F31203C01A79
:10232000E86485F85D20A965C4F8082595F83F00A4
:1023300020B1022802D003280ED019E0D4F80C05F1
:1023400040F00200C4F80C05414604F5A164306871
:1023500001F0B7FD27600BE0D4F8000540F0005015
:10236000C4F8000585F85C2041463046FEF7ADFC18
:1023700015F8500F80F001002870BDE8F09FD4F8E8
:102380000805800733D5D4F80C0520F00200C4F806
:102390000C0595F85D000223012806D0052807D01A
:1023A000062808D0082806D018E085F85C2015E03B
:1023B00085F85CA012E0A86D421CAA65032803D929
:1023C000A96585F85CB001E085F85C30D4F80005BB
:1023D00020F0804040F00040C4F80005C4F8083503
:1023E00095F85C2041463046FEF76FFCC5E7D4F80F
:1023F0000805000614D5D4F80C0540F00200C4F816
:102400000C05A86D4146401CA865062085F85D00B6
:1024100004F5A164306801F054FD80202060ACE731
:10242000D4F80805C006A8D595F83F00032809D1BF
:10243000D4F80C0540F00200C4F80C0541463068A1
:1024400001F03FFD032085F85D00C4F8087595F89C
:102450003F0008B1022890D1D4F8000520F0804058
:1024600040F00040C4F8000587E72DE9F047026816
:1024700002EB4114D4F808254FF0040C520709D59B
:10248000C4F808C5D4F80C0540F00200C4F80C05E7
:10249000BDE8F087D4F8082501EB810392064FF0E0
:1024A000020600EBC30514D52022C4F8082595F8D0
:1024B0003D20012AECD185F85DC0D4F80C2542F00E
:1024C0000202C4F80C25006801F0FBFC85F85C6092
:1024D000DEE7D4F808254FF0000352060FD585F843
:1024E0005DC0AB65D4F80C2542F00202C4F80C259F
:1024F000006804F5A16401F0E4FC402010E0D4F889
:10250000082592050ED5D4F80C2542F00202C4F835
:102510000C25006804F5A16401F0D3FC4FF40070B1
:102520002060B5E7D4F808254FF00108D20710D095
:10253000AB65D4F80C2542F00202C4F80C25006803
:1025400004F5A16401F0BDFCC4F8008085F85D804D
:102550009EE7D4F808254FF0080912074FF0050A46
:102560000DD5C4F80895D4F80C2542F00202C4F841
:102570000C25006801F0A5FC85F85DA088E7D4F87B
:1025800008254FF01007D20610D5AB65D4F80C25FE
:1025900042F00202C4F80C25006804F5A16401F0C1
:1025A00090FC032085F85D00276071E7D4F80825CA
:1025B00012060FD5D4F80C2542F00202C4F80C25FF
:1025C000006804F5A16401F07CFC062085F85D003C
:1025D0008020A5E7D4F80825520511D5D4F80C259C
:1025E00042F00202C4F80C25006804F5A16401F071
:1025F00068FC27604FF48060206085F85D9047E7B5
:10260000D4F8082592078CD5D4F80C2522F00202C4
:10261000C4F80C2595F85D20012A0AD0032A26D09B
:10262000042A13D0052A16D0062A17D0082A15D056
:102630001FE085F85C8095F83F20022A19D195F8B3
:10264000512082F0010285F8512012E085F85C608B
:1026500085F83D300DE085F85CA00AE0AA6D571CB6
:10266000AF65032A03D9AB6585F85CC001E085F846
:102670005C60C4F8086595F85C20FEF726FB07E768
:102680007CB504680546D4F840040190D4F84004B1
:1026900020F02E000090019880070DD50198C0070A
:1026A00006D0A06920F00051A1612846FEF7B6FAD5
:1026B000009840F002000090019800072CD5009887
:1026C00040F008000090019840071AD5A869022838
:1026D00003D0E86803280CD00FE00198C0F3414014
:1026E0000228286803D0012101F03AFE05E002210A
:1026F000FAE74EF66020C4F804042846FEF78EFA86
:102700000AE0D4F8400420F02E00C4F84004286801
:10271000816941F00051816101988006009802D5DD
:1027200040F020000090C4F840047CBD2DE9F04149
:10273000024600680646016AC1F3434301F00F07F1
:10274000C1F30A14022B25D1002C23D007EB8701FB
:1027500002EBC105696C00291CD0224601F01FFE66
:10276000686C20446864E86C2044E86406EB471019
:10277000D0F81015084A11420CD0D0F8001521F0FD
:10278000804141F00041C0F8001515F8500F80F06D
:1027900001002870BDE8F0810000F81FFEE700008E
:1027A0002DE9F041C26A012613460468921C39B132
:1027B0001B491C4D4FF040278C4217D12C4616E088
:1027C000E168C2621980418E491E4186418E00290E
:1027D0000AD101684A684FF69F731A404A601BE0AD
:1027E00080F84160FEF7ACFDBDE8F0813C46E4684E
:1027F000C2621C80428E521E4286428E002AF3D153
:1028000002688A4201D1294600E03946496821F030
:10281000600100D03D466960418D0029E0D0E3E7CA
:10282000003800400034004070B5426A0125941C15
:102830000368446241B11B4912881B4C4FF040268B
:102840008B4216D1234615E01188D960418D491E6F
:102850004185418D00290BD101684A684FF65F73AD
:102860001A404A6019E000BF80F84150FEF768FD49
:1028700070BD3346DA60428D521E4285428D002A79
:10288000F6D102688A4201D1214600E0314649680A
:1028900021F0A00100D034466160418E0029E3D0D0
:1028A00070BD00000038004000340040FEB50168F3
:1028B00004468868019094F841000125042833D12A
:1028C00001984FF69F76C00716D04868C04340066F
:1028D00012D4CA682046E16A8B1CE3620A80618ECA
:1028E000491E6186618E39B901684A6832404A6082
:1028F00080F84150FEF72EFE0198400614D520685E
:102900004168C94389060FD441683140416020685D
:10291000C1688068009084F84150606C40F002000B
:1029200060642046FEF70DFD94F84100032834D181
:1029300001984FF65F76800718D520684068C0433D
:10294000000613D4616A20468A1C626222680988E4
:10295000D160618D491E6185618D39B901684A6810
:1029600032404A6080F84150FEF7F5FD01980007BB
:1029700013D520684168C94389060ED441683140A7
:10298000416020688068009084F84150606C40F09D
:10299000040060642046FEF7D4FCFEBD20B1002296
:1029A00001210248FEF72EB90122F9E70008024092
:1029B00010B501220649074800F0C6FE0649054841
:1029C00001F06AF9BDE81040024801F09AB9000030
:1029D000193D0008BC04002034000020FEE77047C9
:1029E0000907090E002806DA00F00F0000F1E020C8
:1029F00080F8141D704700F1E02080F80014704743
:102A00000148FEF7C1B900002402002010B5502093
:102A100080F31188BFF34F8FBFF36F8F03F066F819
:102A200018B104494FF080500860002080F31188ED
:102A300010BD000004ED00E01048016841F4700191
:102A400001600F48016841F0010101600C4A00215A
:102A50000832116002680B4B1A400260031D0A4ADB
:102A60001A60026822F48022026005480C3001607E
:102A700002495806803908607047000088ED00E080
:102A800000380240FFFFF6FE103000240148FFF737
:102A90001ABA0000E8010020F0B50268234B244D6B
:102AA000244E254F254C4FF0804C984209D060456C
:102AB00007D0A84205D0B04203D0B84201D0A0420E
:102AC00004D122F0700E4A6842EA0E0298421BD0EE
:102AD000604519D0A84217D0B04215D0B84213D0E3
:102AE000A04211D0164DA8420ED0164DA8420BD0D0
:102AF000154DA84208D0154DA84205D0144DA84246
:102B000002D0144DA84203D122F44075CA682A436A
:102B100002608A68C2620A688262984201D0A0425A
:102B200001D10969016301214161F0BD000001404B
:102B30000004004000080040000C00400004014078
:102B4000004001400044014000480140001800409E
:102B5000001C00400020004010B5806B0021C185A2
:102B6000C184FFF770FA10BD0168CA6822F4907240
:102B7000CA6001684A6922F001024A61202180F896
:102B80003A10704710B590F83A10222901D002206F
:102B900010BD8168B1F5805F11D00169002901681D
:102BA0001FD0496801F07F03816A4A1C82620B7062
:102BB000C18D491E0904090CC18518D026E002699F
:102BC000816A002A0268526805D0D2B20A80816AFE
:102BD000491C8162ECE7C2F308020A80816A891C01
:102BE000F7E74A68816A4B1C83620A70E0E7016874
:102BF000CA6822F49072CA6001684A6922F0010230
:102C00004A61202180F83A10FFF714FB002010BD24
:102C10002DE9F04104460068016921F44052E16861
:102C2000114301612168C86849F20C62904323692D
:102C3000A268E5691A4363692B431A430243CA60D9
:102C40002168486920F44072A06910434861E16935
:102C50006425B1F5004F9748974A21684FF0320834
:102C60003FD0914201D081427CD1FEF7BFFE00EB04
:102C7000C00101EB001061688900B0FBF1F6FEF7BE
:102C8000B5FE00EBC00101EB001061688900B0FBEC
:102C9000F1F0B0FBF5F06FF01801484306EB80014E
:102CA00008EB0110B0FBF5F000F0F006FEF79EFE19
:102CB00000EBC00101EB001061688900B0FBF1F08E
:102CC000B0FBF5F006EB0016FEF790FE00EBC0013E
:102CD00001EB001061688900B0FBF1F7FEF786FE9A
:102CE000D2E0914201D081423DD1FEF77FFE00EB60
:102CF000C00101EB001061684900B0FBF1F0B0FBCE
:102D0000F5F00601FEF772FE00EBC00101EB0010CA
:102D100061684900B0FBF1F7FEF768FE00EBC00107
:102D200001EB001061684900B0FBF1F0B0FBF5F079
:102D30006FF01801484307EB800108EBC100B0FBBE
:102D4000F5F000F0F80006EB4006FEF74FFE00EB52
:102D5000C00101EB001061684900B0FBF1F7FEF71C
:102D600045FE3CE055E0FEF731FE00EBC00101EB13
:102D7000001061684900B0FBF1F0B0FBF5F006010E
:102D8000FEF724FE00EBC00101EB00106168490072
:102D9000B0FBF1F7FEF71AFE00EBC00101EB0010EB
:102DA00061684900B0FBF1F0B0FBF5F06FF018017D
:102DB000484307EB800108EBC100B0FBF5F000F0E1
:102DC000F80006EB4006FEF701FE00EBC00101EB48
:102DD000001061684900B0FBF1F7FEF7F7FD00EB6A
:102DE000C00101EB001061684900B0FBF1F0B0FBDD
:102DF000F5F06FF01801484307EB800108EBC100C4
:102E0000B0FBF5F000F00700216830448860BDE8B1
:102E1000F081FEF7DBFD00EBC00101EB0010616803
:102E20008900B0FBF1F6FEF7D1FD00EBC00101EB2C
:102E3000001061688900B0FBF1F0B0FBF5F06FF0B5
:102E40001801484306EB800108EB0110B0FBF5F0D8
:102E500000F0F006FEF7BAFD00EBC00101EB001038
:102E600061688900B0FBF1F0B0FBF5F006EB0016ED
:102E7000FEF7ACFD00EBC00101EB001061688900BA
:102E8000B0FBF1F7FEF7A2FD00EBC00101EB001073
:102E900061688900B0FBF1F0B0FBF5F06FF018014C
:102EA000484307EB800108EB0110B0FBF5F000F0A0
:102EB0000F00A9E7001401400010014090F83910FC
:102EC000212901D0022070478168B1F5805F016A35
:102ED0000BD04A1C0262026809785160C18C491EFD
:102EE0000904090CC1840ED017E009880268C1F3F7
:102EF0000801516001690029016A02D0491C016280
:102F0000ECE7891CFBE70168CA6822F08002CA600E
:102F10000068C16841F04001C160002070470000B6
:102F20000148FFF791B80000A801002010B5002269
:102F30004FF6FF7300EB8204B4F87C43240409D4F9
:102F40009A4205D000EB820041F40041C0F87C13A6
:102F5000D0B210BD521CD2B20B2AEBD31A46F7E7FF
:102F60007FB51C46012501AE0023009586E80E00C2
:102F700002232A46214600F028FD04B0002070BD3F
:102F80007FB51D4690F81D33089C03B10024012332
:102F9000CDE90031CDE9022402230022294600F0C8
:102FA00014FD04B0002070BD70B50446D0F8740361
:102FB000C16920464031FDF719FD050004D1D4F860
:102FC000C423022120469047284670BD70B50546AF
:102FD000D0F874030026C469217839B1284600F07E
:102FE0001FF92178284600F0AAF92670217B39B113
:102FF000284600F015F9217B284600F0A0F9267339
:10300000617B39B1284600F00BF9617B284600F05E
:1030100096F96673D5F87403C06920B1FDF7B9F964
:10302000D5F87403C661002070BDFEB502270546C1
:1030300001233A46394600F060F90646FF287ED063
:103040000146284600F036FE5020FDF773F9D5F80A
:1030500074130446C86106EB860000EBC60005EB5E
:10306000400090F848130A0603D56170B0F84A038F
:10307000608161782846FFF759FF2070014695F876
:103080001D03638903228DE80D0095F81C336278D7
:10309000284600F0B2FC21780022284600F065FCAA
:1030A00000231A460A21284600F027F9FF2854D0A9
:1030B00000EB800101EBC00005EB400090F84813E5
:1030C0000A0604D5E173B0F84A13618303E0A173E3
:1030D000B0F84A13218390F850130A0604D5E1731F
:1030E000B0F85203608303E0A173B0F85203208369
:1030F000A17B2846FFF71AFF6073E17B2846FFF7A4
:1031000015FF2073208B95F81D1302260091CDE941
:10311000016095F81C33A27B617B284600F06DFCB2
:10312000608B95F81D130091CDE9016095F81C3373
:10313000E27B217B284600F060FC002000E00CE0F0
:1031400084F84C000246617B284600F00EFC217B8F
:103150000022284600F009FC00273846FEBD7047D3
:103160002DE9F0410546D0F8740301270026C46913
:103170004FF0040894F84C0005284AD2DFE800F02C
:103180000305163B4200002743E02122A16C2A746C
:1031900020226A746E82AE8207222846EA8200F0FC
:1031A00062F848B9022084F84C0032E004F1400192
:1031B0002846FDF71BFC20B101282AD084F84C805A
:1031C00027E084F84C60A06C94F844100279914296
:1031D0001FD194F84610827991421AD194F8451083
:1031E0004279914215D1216C0068814211D1284663
:1031F000FFF7B5FF0DE02846FDF792FB2846FDF7E7
:1032000052FB06E00021284600F00FF808B984F8C8
:103210004C603846BDE8F081704700207047704729
:1032200010B500F0C5FA002010BD8278012A07D140
:103230000222027401224274002242828182C282EE
:103240000022114600F00FB87FB51C46012501AEE3
:103250000023009586E80E002A46214600F0B5FBC3
:1032600004B0002070BD70B50446012580782E465C
:10327000012802D0022819D10BE0A160A281267694
:103280000220A07000220321D4F8C80301F0F2FB51
:103290000CE0204600F007F9050002D0022D04D012
:1032A00004E0A6700020207600E0A670284670BDDD
:1032B0007FB51D4690F81D33089C03B100240123FF
:1032C000CDE90031CDE9022400231A46294600F059
:1032D0007CFB04B0002070BD1FB500231446CDE96F
:1032E00000310822CDE902231A46214600F06DFB89
:1032F00004B0002010BDFDF797BB70B5002400F2AC
:10330000323004EB840505EBC40500EB4505EE7B8C
:103310000A358E4201D0FF2909D1AE79964201D0FB
:10332000FF2A04D1ED799D4207D0FF2B05D0641C04
:1033300064B2022CE5DBFF2070BDE0B270BD0B294A
:1033400007D200EB8100B0F87C13C1F30E01C0F886
:103350007C130020704730B48578029C012D0FD17A
:1033600041F0800101740621417403214282B1EBD6
:10337000122F02D140F2094100E000218182C48273
:10338000224630BC1946FFF76EBF0A8803781A44FC
:103390000A80017808447047F8B50E4600F11C0514
:1033A000009104462B464FF400720021FFF7D3FF33
:1033B000070005D13246294604F2323000F027FBDF
:1033C0003846F8BD38B50D460091044600F58E73B9
:1033D0004FF480720021FFF7BEFF01003DD104F5DC
:1033E000487094F81C21027094F81D21427094F8E2
:1033F0001E2194F81F31082D02EB0322428094F81D
:103400002021027194F82121427194F822218271C5
:1034100094F82321C27120D994F8242194F82531FD
:1034200002EB0322028194F8262194F8273102EB63
:103430000322428194F8282194F8293102EB0322D7
:10344000828194F82A21827394F82B21C27394F814
:103450002C21027494F82D214274084638BDF8B529
:103460001C461646009341F4407200F58E731D46CB
:103470000021FFF770FF002814D16978032911D1CA
:1034800029788A1EA24200DC14460021A2B2AD1C9B
:1034900004E06B5C891C06F8013B89B29142F8D3C9
:1034A00000213170F8BD2DE9F84F04460125007E5A
:1034B0000B262F464FF009084FF007094FF0050B78
:1034C0004FF00D0A0C2837D2DFE800F0B0060E2BC3
:1034D00037414D606B7A879C627904F11001204678
:1034E000FFF7FAFE022026E06179204600F0D0F9CD
:1034F00001287AD1207CE18A00F0800039B180284F
:1035000002D10320207676E084F818B073E080289A
:1035100002D184F818806EE084F818906BE026766B
:1035200069E0D4F8B803E0812379A2892046A16834
:10353000FFF78AFE0420207678E02179204600F00B
:10354000A7F90128E5D005284FD1032553E00097BE
:103550006379A2892046A168FFF7AAFED4F8B803D0
:10356000E0810620E7E76179204600F091F9012823
:10357000D2D0052804D00228C6D0042803D055E0B4
:103580000C202076E1E72676022534E0002223791C
:1035900011462046FFF758FED4F8B803E081082012
:1035A000C9E72179204600F073F9012804D00428E6
:1035B000B5D00528C9D039E084F818A000251AE054
:1035C00000970022637911462046FFF771FED4F878
:1035D000B803E0810A20AEE707E06179204600F0F9
:1035E00057F9012804D0022893D0042897D01DE071
:1035F000002584F818A000220321D4F8C80301F0A4
:1036000039FA13E0607E401CC0B26076022805D80B
:10361000204600F0CAF92776A77007E0D4F8C42343
:103620000621204690470020607602252846BDE806
:10363000F88FFEB50446012640780025374604F58C
:103640008E7208287ED2DFE800F004161E454C5525
:10365000606C08212046FFF7B5FE002872D194F86F
:103660002703A071677094F81D130091CDE90150F4
:1036700094F81C331BE012212046FFF7A3FE00281C
:1036800060D1022034E00121204600F01EFB00281A
:1036900058D10220FFF72FFE84F81C7303206070BE
:1036A000A07994F81D13CDE900153B4602902179CD
:1036B0008022204600F0A1F9A07994F81D13009112
:1036C000CDE9015094F81C3361790022204600F0C6
:1036D00094F937E009212046FFF75EFE00BB042085
:1036E00006E0B4F834132046FFF756FEC0B90520B3
:1036F000607027E094F82E13062521B1FF232046A1
:10370000FFF7ADFE60B9657016E094F82F1307253A
:103710000029F8D0FF232046FFF7A1FE00B965700D
:1037200010E094F8301331B1FF232046FFF797FEE5
:1037300040B9002606E0002600220521D4F8C8037F
:1037400001F098F93046FEBD30B587B00D46040053
:1037500029D084F8BC230020C4F87403C4F878038B
:103760002046FDF71DF90DB1C4F8C4530F49D1E946
:103770000001CDE90501002105A801F02BF90B4955
:10378000C4F8C803142208316846FCF7FCFE214641
:10379000684601F09DF9C4F8CC03204600F08CF88F
:1037A000002007B030BD0220FBE70000F85D0008F4
:1037B00010B50024D0F8C003FDF74BFA30B1012852
:1037C00001D0022801D0022400E00124204610BDCF
:1037D00010B50446007818B1207801280AD00BE013
:1037E000012084F81E03D4F8C4232AB10421204602
:1037F000904701E00220207000220121D4F8C80384
:1038000001F038F9002010BD10B5044600F0CDF8E5
:1038100021792046FFF793FD61792046FFF78FFD60
:10382000002084F81E03D4F8C42312B105212046D9
:103830009047204600F0A9F80320207000220121C3
:10384000D4F8C80301F016F9002010BD10B590F8A7
:10385000BC03012802D10846FFF7A0F8C820FDF7F5
:10386000E3F8002010BDD0F8C003FDF7ECB910B5A7
:103870000124D0F8C003FDF7DCF920B1012805D000
:10388000022803D101E0002400E00224204610BDFC
:10389000D0F8C003FDF7D0B9D0F8B813491CC0F870
:1038A000B81301780A2905D1D0F87413002901D082
:1038B000896908477047000010B5044690F8BC03BA
:1038C00001281CD10F484FF0A0410022C0F89442BB
:1038D000C4F8C0030160082181600321C0E903121C
:1038E0000221C0E90612FDF7E6FA08B1FDF77DF8FE
:1038F0000448FDF79BF90146204600F033F800200C
:1039000010BD00002402002010B5D0F8C80300222A
:10391000022101F0AFF8002010BDFEB508AC94E81C
:10392000E0008DE8E0000024D0F8C003FDF7A3F923
:1039300030B1012801D0022801D0022400E0012486
:103940002046FEBD10B50024D0F8C003FDF71CFBD7
:1039500030B1012801D0022801D0022400E0012466
:10396000204610BDC0F8B8137047D0F8C00301EB73
:10397000810100EBC10090F83B1011B180F850209C
:1039800001E080F851200020704710B50024D0F8E5
:10399000C003FDF700FB30B1012801D0022801D09F
:1039A000022400E00124204610BD10B50024D0F808
:1039B000C003FDF706FB30B1012801D0022801D079
:1039C000022400E00124204610BD2DE9FF410AAC8D
:1039D00094E8E0108DE8E0100024D0F8C003FDF773
:1039E00078F930B1012801D0022801D0022400E08A
:1039F000012404B02046BDE8F081FEB508AF97E889
:103A000070008DE87000FFF788FF0020FEBD2DE9F3
:103A1000F84105460B782B704B786B708B78CC781F
:103A2000084603EB04236B800B792B714B796B7188
:103A30008B79AB71CB79EB710027017A2972092A56
:103A400057D90921ADF800104EE06946FFF79DFCFB
:103A50004178042946D107EB870101EBC70105EB4B
:103A60004108017888F80A10417888F80B108178AD
:103A700088F80C10C17888F80D10017988F80E10BC
:103A8000417988F80F10817988F81010C17908F110
:103A90000A0488F81110017A2172002618E069469C
:103AA000FFF773FC4178052912D108EBC6010278B3
:103AB0000A7542784A7582788A75C278CA75027921
:103AC0004379761C02EB03220A8382798A7676B2E6
:103AD0002179B14204DD6988BDF800209142DED829
:103AE0007F1C7FB2022F04DA6A88BDF800108A4278
:103AF000ABD8BDE8F881FEB5044602208DF8000081
:103B00002178002008270C2605460B2955D2DFE82E
:103B100001F006B017A5B0468E555D659E0094F87D
:103B20001E03002849D001202070C820FFF7E3FBC6
:103B30002046FFF707FF00220121D4F8C80373E0F5
:103B40006420FFF7D8FB2046FFF791FE84F81D03A1
:103B50000520207000212046FFF7E8F960718021E0
:103B60002046FFF7E3F920710146A07994F81D2360
:103B70000092CDE9015094F81C3380222046FFF7D3
:103B80003CFFA07994F81D130091CDE9015094F801
:103B90001C33617900222046FFF72FFFCBE7204638
:103BA000FFF747FD002864D184F81F5394F83103D0
:103BB000012801D0072046E027705AE0D4F8C4233A
:103BC000A2B3012120469047277029E094F83713CB
:103BD000204600F088F848BB092034E0D4F8781378
:103BE000F1B1C4F8745394F8412304EB8001D1F887
:103BF00070130B79934201D1C4F87413401C10F078
:103C0000FF00F2D0D4F87403F8B1816820468847E9
:103C1000D8B906202070D4F8C42303212046904749
:103C200000220521D4F8C80300F024FF21E0D4F8D5
:103C3000740350B10169204688478DF800009DF853
:103C40000000B0B90A20207013E02670E8E7D4F82D
:103C5000740370B14169204688470AE02046FCF7AA
:103C60009FFED4F8740320B1C16820468847C4F889
:103C700074530020FEBD0EB504464FF0FF352A46B2
:103C80006846D4F8C81300F0A9FE00981028F6D1B1
:103C90002046FFF730FFF2E7002211B1D0F8783369
:103CA00013B10222104670470123C0F87833C0F8E0
:103CB0007013F7E70246002092F836338B4202D9A0
:103CC00082F81F137047022070478278012A06D1BC
:103CD000002202740523437441828282C282002240
:103CE0001146FFF7C0BA8278012A06D10022027479
:103CF0000923437441828282C28200221146FFF767
:103D0000B2BA10B50446FFF740FE01212046FFF786
:103D10009DFD002010BD000001290AD005480229A0
:103D200006D0042903D0052903D1032100E0012195
:103D3000017070472000002070B50446049D06996C
:103D40000D9801290CD0E06840F04000E06020466A
:103D500000F028F84FF48030A063012D16D01DE04C
:103D6000A16B21F48031A163E1680D4A1140E1604B
:103D7000E16821F44011E160012803D1E06840F4DA
:103D80008010E060204600F00DF8E6E7A06840F003
:103D90000600A060A06840F02000A060002070BD78
:103DA000BFFFBDFF01220C4902E0521C8A420BD822
:103DB0000369002BF9DA026942F001020261012273
:103DC00004E0521C8A4201D9032070470369DB07D3
:103DD000F7D1002070470000400D0300816821F0FA
:103DE000010181600020704730B5024601240023A4
:103DF0000C4800EAC44040F0004502F5A06000EB2A
:103E00004110056102F5A06000EB4110036823F04A
:103E1000804343F0004302F5A06000EB41100360D3
:103E2000002030BD0000F81F08B5D0F8402422F073
:103E30002E020092D20405D4012909D1009941F43F
:103E4000805103E021B9009921F48051C0F8401459
:103E5000002008BD816841F00101816000207047A9
:103E6000002110220261054A491C914201D9032018
:103E700070470369DB06F7D400207047400D03004C
:103E80000022202343EA811101610549521C8A4224
:103E900001D90320704703699B06F7D400207047BF
:103EA000400D0300D0F8080480B2704708B5D0F880
:103EB00040040090C0F3414008BD406900F001009B
:103EC000704710B50246002302F5A06000EB4110D8
:103ED0000068C0F3814040B102F5A06000EB4110E2
:103EE0000068C0F38140022846D102F5A06000EBD3
:103EF0004110006840F0804402F5A06000EB4110E2
:103F00000460D06A00F47F0048BB02F5A06000EBBB
:103F10004110006820F0004402F5A06000EB411061
:103F2000046002F5A06000EB4110006840F000441E
:103F300002F5A06000EB4110046000BF581C03466E
:103F4000B0F57A7F00D909E002F5A06000EB4110DE
:103F5000006800F00040B0F1004FEFD053E002F5F0
:103F6000A06000EB4110006840F0004402F5A06042
:103F700000EB4110046046E002F5A06000EB411048
:103F8000006840F0804402F5A06000EB411004603E
:103F90004FF48260805880B248BB02F5A06000EB0D
:103FA0004110006820F0004402F5A06000EB4110D1
:103FB000046002F5A06000EB4110006840F000448E
:103FC00002F5A06000EB4110046000BF581C0346DE
:103FD000B0F57A7F00D909E002F5A06000EB41104E
:103FE000006800F00040B0F1004FEFD00BE002F5A8
:103FF000A06000EB4110006840F0004402F5A060B2
:1040000000EB41100460002010BD0000F0B5DDE9B8
:1040100006564FF0FF3C00EB4114059FC4F808C55D
:1040200035B1012D21D0022D02D0032D2AD114E06B
:1040300040F29D4CC4F80CC55FEA026C05D500BF88
:10404000D4F80CC54CF4807C1AE0B0F1A04F19D024
:10405000D4F80CC54CF0600C12E040F29D6CC4F832
:104060000CC55FEA026CEBD40CE040F2252CC4F8DE
:104070000CC55FEA026C05D5D4F80CC54CF4C07CC5
:10408000C4F80CC5D0F818C44FF0010E0EFA01FEAA
:104090004CEA0E0CC0F818C4816941F000718161CE
:1040A0004FF0FE5000EA83504FF4F04101EAC22184
:1040B00008434FF4004101EA02210843022F10D0C7
:1040C0005FF0000140EA41404FF4402101EA8541A0
:1040D0000843C6F30A010843C4F80005032D02D0C3
:1040E00007E00121EEE7D4F8000540F00050C4F8E5
:1040F00000050020F0BD014640F21440405880B257
:10410000704700002DE9F84F05460C4616464FF063
:10411000000BDA4600274FF48078B946B5F1A04F7E
:104120001CD02079D0B94EB96079012806D16178C8
:104130002846FFF759FE0020BDE8F88F012E0DD16B
:10414000607805F5A06101EB4010C06820F06002C6
:10415000607801EB4010C26000206071206968B196
:10416000218920690844401EB0FBF1F087B2474521
:1041700005DD474620897843206100E00127E0788B
:1041800010B12089784320612069C0F312003E49B4
:1041900001EAC7410843A17A4FF0C04202EA4171E7
:1041A0000843617805F5A06202EB4111086136B160
:1041B000607805F5A06101EB4010E26842614FF4C0
:1041C0008160405900F0010080F0010B607805F536
:1041D000A06101EB4010006820F00052607801EB14
:1041E00040100260607801EB4010006840EA4B72BA
:1041F000607801EB40100260607801EB4010D0F86D
:10420000009029F0804949F00049607801EB4010A6
:10421000C0F80090AEBBE07898BB206988B3E07925
:1042200030B1012813D0022803D003281ED10DE09D
:1042300000BF2069C01CC0F38F0AE86A80B25045F5
:1042400003D2A86940F02000A86110E000BF2069F7
:10425000C01CC0F38F0A4FF48260405980B25045B1
:1042600003D2A86940F08060A86100E000BF00BFF1
:1042700000200090208A83B262782846E16800F02E
:1042800023F9002058E700000000F81F2DE9F0474F
:10429000174604460025DDF82090C0F8005E806BCC
:1042A00020F48020A063A06B20F40020A063A06B0A
:1042B00040F40010A0634FF0A048032B06D1444502
:1042C00004D0D4F8000440F0040003E0D4F8000463
:1042D00020F00400C4F8000410212046FFF7D0FDB0
:1042E0002046FFF7BDFD0020461E06E004EB40110E
:1042F000C1F80865C1F80C55401C8742F6D8012169
:104300002046FFF791FDC820FCF78EFBA561666192
:10431000444505D1802060620C48A0620C4805E04D
:104320004FF4007060620B48A0620B48C4F80001B3
:10433000B9F1000F03D1A06940F01000A061A0699D
:1043400006490843A0610020BDE8F08780006000B6
:10435000E0004000000200010003E000080020A38C
:10436000D0F8002422F00302C0F80024D0F8002482
:1043700001F003031A43C0F80024012902D00229E6
:1043800003D006E04BF6803101E041F27071C0F8D5
:10439000041400207047416980690840704710B5D7
:1043A00003460020D21C920803F5805303E01C68EA
:1043B00041F8044B401C9042F9D3084610BD38B573
:1043C0000446D0F8400420F02E00009040F48070A5
:1043D000C4F840040A2004F58864FCF725FB009823
:1043E00020F480702060002038BD10B5C26822F033
:1043F000C042C260012901D021B107E0C16841F08B
:10440000005102E0C16841F08041C1603220FCF7F8
:104410000BFB002010BDF0B505460027A86820F072
:104420000100A86010212846FFF72AFD2846FFF763
:1044300017FD002411E005F5A06000EB44100668AC
:1044400046F0804626F0004626F4004605F5A060BA
:1044500000EB44100660601CC4B20F2CEBDD00249E
:1044600023E005F5A06000EB4410066846F08046A6
:1044700046F0004626F4004605F5A06000EB441027
:10448000066000BF781C0746B0F57A7F00D909E0C6
:1044900005F5A06000EB4410006800F00040B0F1AA
:1044A000004FEFD000BF601CC4B20F2CD9DD4FF01D
:1044B000FF3140F21440415108466861A86840F05D
:1044C0000100A8600020F0BD30B50024039D6DB947
:1044D000DB1C9B0800EB023000F5805004E000BFBD
:1044E00051F8042B0260641C9C42F9D3002030BDBB
:1044F000FEE70000034800F06BF9642000F05EFA6C
:10450000F8E7000004000020034800F061F996205D
:1045100000F054FAF8E7000008000020034800F01B
:1045200057F9C82000F04AFAF8E700000C00002014
:104530002DE9F04F87B014216846FCF756F84E4835
:104540000024016841F010010160016801F01001D0
:104550000591016841F004010160016801F0040166
:104560000591016841F080010160016801F080015E
:104570000591016841F001010160016801F001014C
:104580000591016841F002010160016801F002013A
:104590000591016841F0080101600068002200F007
:1045A0000800059008213548FCF72CFBDFF8D08087
:1045B000012211464046FCF725FBDFF8C8B04FF258
:1045C0001009002249465846FCF71CFB0826012525
:1045D0000096CDE90154694628480394FCF736FA61
:1045E0000095CDE90154694640460394FCF72EFA44
:1045F00000960226CDE901640527CDE90347694607
:104600004046FCF723FADFF880800095CDE901846D
:1046100069461E48FCF71AFA0420CDE90004DFF8C9
:1046200070A0694650460294FCF710FAA802009068
:10463000CDE90164CDE9034769465046FCF706FA27
:10464000CDF80090CDE90154694658460394FCF733
:10465000FDF92020CDE90004694658460294FCF794
:10466000F5F90096CDE9018469460448FCF7EEF9B6
:1046700007B0BDE8F08F0000303802400010024063
:1046800000080240000C024000001210000002402E
:10469000000402400B480A494FF4007201604FF4D5
:1046A0008271416000218160C1600161C0E9051231
:1046B000C1610162416281620A21C162FDF764BB8E
:1046C0000030014050010020FEF772F9034800F06D
:1046D0007FF8322000F072F9F8E7000000000020B7
:1046E00070B596B030216846FBF77FFF14210CA807
:1046F000FBF77BFF00251F48119512951395149524
:10470000016841F080510160006800F08050159010
:104710001948016841F4804101600068012600F4F5
:10472000804015903004CDE9006002248001CDE97D
:104730000640082008904FF4A870CDE9090407202E
:104740000B906846FDF792F90CA90F2081E8310023
:104750004FF4A0500F90E002109005210CA8FDF737
:104760007DF8C020CDE91204119611A8FCF7D8FFFE
:1047700016B070BD403802400070004010B50446CD
:10478000018801220348FCF73DFA012060800020E7
:1047900010BD0000000C024010B504460188002244
:1047A0000248FCF72FFA0020608010BD000C024088
:1047B00010B50446FFF7E2FFFA20FCF735F9204672
:1047C000FFF7EAFFFA20FCF72FF9002010BD0000E8
:1047D00010B5044601880548FCF710FA60880128E6
:1047E00001D100206080002010BD0000000C0240BC
:1047F000018070477047000010B54FF48051134896
:10480000FFF7F6FF124A1349FBF761FE0F484FF41A
:104810000051001DFFF7ECFF0D4A0E49FBF757FE54
:104820000A484FF480410830FFF7E2FF084A09497F
:10483000FBF74DFE05484FF400410C30FFF7D8FF61
:10484000BDE81040024A0349FBF741BE00000020CA
:1048500000000008F5470008EFF30580002800D0AD
:104860000120704794B0FCF77FFEFFF739FFFFF798
:104870005FFE48484649002401604749C0E90114E9
:104880004FF48041C0E9034144618461C461046222
:10489000FCF7AAFB3F484149543001604915C0E983
:1048A0000114C0E903413E49C0E90514C461046232
:1048B000FCF748FDFFF7EEFE36483A49F430016058
:1048C0004FF4E131C0E901140C21C460C0E9044196
:1048D0008461C461FDF740FC3348FFF769FF32484B
:1048E000001DFFF765FF30480830FFF761FF2E48D5
:1048F0000C30FFF75DFF2C48FFF76AFFFA20FCF74A
:1049000093F82948001DFFF763FFFA20FCF78CF8A5
:1049100025480830FFF75CFFFA20FCF785F82248AD
:104920000C30FFF755FFFA20FCF77EF8641C022CD0
:10493000E1DB14221D496846FBF725FE002168468D
:1049400000F0C6F8184C194914222061143105A84A
:10495000FBF719FE002105A800F0BAF813496061C1
:10496000142228310AA8FBF70EFE00210AA800F045
:10497000AFF80E49A06114223C310FA8FBF703FEEB
:1049800000210FA800F0A4F8E06100F01EF8FEE797
:1049900000540040B4000020A0860100003C00400C
:1049A000007701000044004000000020905D0008F6
:1049B00001460020842900D0C81C704710B500B9FA
:1049C000012000F037FC002010BD10B500F0CAFC3B
:1049D000002010BD03C8002200F09EBD2DE9FF415C
:1049E0000D004FF00006CDE9016507461ED00024FA
:1049F0000396501C1FD002B11446FFF72DFF6946E5
:104A00004FF01008E8B103AA2846091D00F0B0FFD6
:104A1000012813D000960398F0B115494FF080504B
:104A20000860BFF34F8FBFF36F8F15E080203146D2
:104A30002A46009012E04FF0FF34DEE7CDF8008008
:104A4000E9E7002322462846091D00F089FD0128D8
:104A500008D054B1402000909DE8070087E8070087
:104A6000BDE8FF81CDF80080F6E70020F3E7000005
:104A700004ED00E037B5054682B000200090140038
:104A800000D10124FFF7E8FE4FF0000388B16A4629
:104A900003A9284600F00EFF012811D1009890B11B
:104AA0000A494FF080500860BFF34F8FBFF36F8FFC
:104AB00009E0224603A9284600F04CFE012802D056
:104AC000FF2005B030BD0020FBE7000004ED00E052
:104AD0003EB504460D46B0F90800FFF769FF02A98C
:104AE000CDE90001208A2B4682B2D4E9001000F003
:104AF000C3FF012801D000203EBD02983EBD00004A
:104B00002DE9F041184C0F460546E6682068001D67
:104B100000F0B0FA38B9206890F82C1001208840D5
:104B2000216981432161681C07D137B12168BDE843
:104B3000F0410E48091D00F0D5BA20683544B54251
:104B40004560216805D2A06BBDE8F041091D00F069
:104B5000B1BA606B091D00F0ADFAA06A854200D2BF
:104B6000A562BDE8F0810000540000206809002023
:104B70002DE9F041054600F0C1FA2E4CA068401C1A
:104B8000A06020682C4F10B1606940B32DE0256013
:104B9000A068012829D1002606EB860007EB8000DB
:104BA00000F07AFA761C072EF6D323488C3000F0FA
:104BB00073FA2148A03000F06FFA1F48B43000F0BB
:104BC0006BFA1D48C83000F067FA1B48DC3000F073
:104BD00063FA19488C3060631430A06305E02068E4
:104BE000E96AC06A884200D82560606A401C606239
:104BF000E96A0120226988401043206101EB8100AD
:104C000007EB8000291D00F06DFA00F097FA60694B
:104C100000280CD02068E96AC06A884207D2074998
:104C20004FF080500860BFF34F8FBFF36F8FBDE828
:104C3000F0810000540000208C08002004ED00E00A
:104C400070B5114E114C17E000F0C0FB3068B8B1E0
:104C500001F036F800F052FAF068C568281D00F03F
:104C600009FAA068401EA0606068401E606000F005
:104C700065FA284600F055F860680028E4D170BD58
:104C800001F01EF8F8E7000054090020540000204D
:104C900030B4026C0B46002A0BD0C1681144C160CD
:104CA0004468A14201D30168C16030BC1846FBF7DB
:104CB00025BC30BC70472DE9F041856B1746044692
:104CC0000026026C82B1C7B1E068FBF717FCE1680F
:104CD000206C091AE1602268914202D26168081AC8
:104CE000E060022F16D017E02068A8B9606800F0D5
:104CF00061FF0646002060600EE0A068FBF7FEFB47
:104D0000216CA0680844A0606168884204D32068D0
:104D1000A06001E005B16D1E6D1CA5633046BDE8C5
:104D2000F08110B50446006B00F01CFA2046BDE887
:104D3000104000F017BA000010484FF470514207BD
:104D400006D0C01D0D4920F00700411AC1F5705171
:104D50000B4A00230144C2E900030839103A21F04C
:104D6000070111604B600B600B1AC0E900139360E0
:104D70004FF000405360D060704700007C09002075
:104D8000A0000020074C4FF08056074DFFF758FF5A
:104D900020680128FAD92E60BFF34F8FBFF36F8FC1
:104DA000F4E700008C08002004ED00E02DE9F04756
:104DB0009A46DDE9098481466FF00303206B03EB1B
:104DC00082021044089D20F00706700707D050208B
:104DD00080F31188BFF34F8FBFF36F8FFEE7231867
:104DE0000A5C83F834200A5C12B1401C1028F6D308
:104DF000002784F84370072D00D30625E562C4E937
:104E00001157201D00F053F904F1180000F04FF97C
:104E10002461C5F107006462A061E76484F8507002
:104E200052464946304600F00FF92060B8F1000FB5
:104E300001D0C8F80040BDE8F087000030B5114946
:104E400000E011460A688242FBD34B685C1884423A
:104E500003D1406818444860084643681C189442CF
:104E600009D1084C103C2468A24209D052681A4467
:104E700042600A6812680260814200D0086030BD5A
:104E80000460F9E7A000002010B5044600F036F9F0
:104E9000A06B28B15FF0000400F050F9204610BD6F
:104EA0000124F9E70648416B096829B1416BC968DB
:104EB000C9684968816270474FF0FF31FAE7000026
:104EC0005400002008484068401C4FF0500080F318
:104ED000118804D0BFF34F8FBFF36F8FFEE7BFF38E
:104EE0004F8FBFF36F8FFEE7A80000202DE9F04140
:104EF000044600F003F994F9455004F1240609E052
:104F0000606A48B1304600F0A1FE08B100F0B8F97F
:104F10006D1E6DB2002DF3DC4FF0FF3684F8456056
:104F200000F00CF900F0EAF894F9445004F110078D
:104F300009E0206948B1384600F088FE08B100F069
:104F40009FF96D1E6DB2002DF3DC84F84460BDE85E
:104F5000F04100F0F3B800002DE9F04105460027CC
:104F600000F034FA314E306808B9FFF7E5FEF0681A
:104F700005424BD1C5B3083568070ED005F00700D0
:104F8000C0F108000544680707D0502080F311885D
:104F9000BFF34F8FBFF36F8FFEE72DB3706885426D
:104FA00034D82248103001460C6801E020460C46F7
:104FB0006168A94202D221680029F7D131688C4288
:104FC00024D007682168016060680837411B1029F8
:104FD0000FD96019420708D0502080F31188BFF321
:104FE0004F8FBFF36F8FFEE710E041606560FFF702
:104FF00025FF61687068401A7060B268904200D204
:10500000B060F06801430020C4E9000100F058FEE0
:10501000780707D0502080F31188BFF34F8FBFF37C
:105020006F8FFEE73846BDE8F08100009000002059
:105030000449086818B10868826C521C82640868C8
:10504000704700005400002010B5031F4FF080741B
:105050001C601B1F21F001011960191F044B0B601C
:1050600014390A60091F6FF0020244380A6010BD4B
:10507000C54E0008D0E9013201699A60D0E90123E8
:105080005A604A68824201D182684A600022026105
:105090000868401E0860704700F108014FF0FF32B9
:1050A000C0E90112C1600161002101607047002167
:1050B0000161704730B50B685A1C02D000F108023C
:1050C00002E0026904E02246546825689D42FAD94C
:1050D00053684B6099608A60516008610168491C9F
:1050E000016030BD42684A6093688B609368596084
:1050F000916008610168491C01607047502080F38D
:105100001188BFF34F8FBFF36F8F0A494868401C67
:10511000486001280CD10848006810F0FF0F07D044
:10512000502080F31188BFF34F8FBFF36F8FFEE7DE
:1051300070470000A800002004ED00E0084948681E
:1051400028B1401E486001D180F31188704750207B
:1051500080F31188BFF34F8FBFF36F8FFEE700001E
:10516000A800002070B5002827D0144DA0F1080435
:105170006168E868014207D1502080F31188BFF3CD
:105180004F8FBFF36F8FFEE722683AB1502080F354
:105190001188BFF34F8FBFF36F8FFEE781436160CC
:1051A00000F014F960686968084468602046FFF7F9
:1051B00045FEBDE8704000F083BD70BD900000204A
:1051C00006484FF47A710068B0FBF1F14FF0E0202F
:1051D000491E416107210161704700003000002035
:1051E00010B5FBF783F8114910280ED300F1E02029
:1051F00090F8F0030A78904207D2502080F311888B
:10520000BFF34F8FBFF36F8FFEE7094800688968CF
:1052100000F4E060884207D9502080F31188BFF382
:105220004F8FBFF36F8FFEE710BD0000A800002076
:105230000CED00E010B5020014D00F48006B38B13F
:10524000502080F31188BFF34F8FBFF36F8FFEE7BD
:1052500000F0BCF800211046FFF752FC00F030FDD2
:10526000002807D105494FF080500860BFF34F8FE9
:10527000BFF36F8F10BD00005400002004ED00E06C
:1052800001490120C86170475400002010B50C4648
:1052900050B1094909681831FFF70CFF2046BDE8F5
:1052A00010400121FFF72CBC502080F31188BFF380
:1052B0004F8FBFF36F8FFEE75400002070B50400DE
:1052C00039D01D4DE06A2968C96A884233D2A06985
:1052D000002804DB2868C06AC0F10700A061E16A09
:1052E000164E01EB8101606906EB810188421FD1F6
:1052F000201DFFF7BFFE012150B9E06A00EB8002DC
:1053000056F8222022B92A6901FA00F082432A6164
:105310002868C06AE0622A6981401143296100EB74
:10532000800006EB8000211DBDE87040FFF7DABE6B
:105330002868C06AE06270BD540000208C0800201C
:1053400028B107490A6A0260C96841607047502065
:1053500080F31188BFF34F8FBFF36F8FFEE700001C
:10536000540000201CB515480024CDE90040234618
:10537000802213A1144800F07FFB012809D0401CB3
:105380001AD1502080F31188BFF34F8FBFF36F8F76
:10539000FEE7502080F31188BFF34F8FBFF36F8F6C
:1053A00006484FF0FF312C38816201214161C46011
:1053B000BDE81C4000F040B81CBD0000800000208B
:1053C00049444C4500000000854D00080248016B2F
:1053D000491C016370470000540000201448016B11
:1053E00011B10121C16170470021C1610169B1FAA8
:1053F00081F1C1F11F0101EB81020E4951F8223008
:105400006BB101EB820101F108034A6852684A60FE
:105410009A4201D152684A60D168016070475020B9
:1054200080F31188BFF34F8FBFF36F8FFEE700004B
:10543000540000208C0800201CB532480168324A14
:10544000914207D1502080F31188BFF34F8FBFF3F3
:105450006F8FFEE700682C49491E884207D1502013
:1054600080F31188BFF34F8FBFF36F8FFEE727499B
:1054700008780190FF20087008788DF800009DF8EA
:1054800000009DF8002000F0F000904207D050206E
:1054900080F31188BFF34F8FBFF36F8FFEE79DF846
:1054A00000001B4A00F0500010700720906005E0DB
:1054B0009DF800305B008DF80030401E9DF80030F4
:1054C0001B06F5D4000200F4E060906001980870BB
:1054D0000C482030016841F470010160016841F01E
:1054E00070410160FFF76CFE00205060FAF7C4FEC7
:1054F0000848016841F040410160FAF7ADFE002024
:105500001CBD000000ED00E071C20F4100E400E0AE
:10551000A800002034EF00E070B50E46050013D05F
:10552000D6B105FB06F04830FFF716FD040009D0A0
:1055300004F1480120468EB10160C0E90F560121F7
:1055400000F0C4F8204670BD502080F31188BFF3EE
:105550004F8FBFF36F8FFEE70020E4E70060ECE7BA
:105560002DE9FF4F002683B09B468A46040003D0F6
:10557000BAF1000F08D011E0502080F31188BFF37A
:105580004F8FBFF36F8FFEE7206C38B1502080F350
:105590001188BFF34F8FBFF36F8FFEE700F098FACB
:1055A000DFF824814FF000094FF0805748B9059883
:1055B00038B1502080F31188BFF34F8FBFF36F8F46
:1055C000FEE7FFF79BFDA56B45B351462046E66815
:1055D000FFF75EFBBBF1000F13D0E660606A50B1CD
:1055E00004F1240000F032FB28B1C8F80070BFF3CA
:1055F0004F8FBFF36F8FFFF7A1FD012007B0BDE80C
:10560000F08F6D1EA563206810B9FFF711FD606073
:1056100020690028EFD004F11000E3E7059808B1F5
:105620001EB106E0FFF78AFD27E06846FFF788FE17
:105630000126FFF783FDFFF7C9FEFFF75FFD94F931
:105640004400401C01D184F8449094F94500401C6A
:1056500001D184F84590FFF771FD05A9684600F077
:10566000D5F9002820460AD0FFF740FC00F028FBBF
:105670002046FFF709FC0028A3D00020BEE7FFF773
:1056800003FCD8B1206830B9FFF738FD6068FFF738
:1056900015FEFFF753FD04F124000599FFF7F6FD11
:1056A0002046FFF723FC00F00BFB002889D1C8F847
:1056B0000070BFF34F8FBFF36F8F82E72046FFF775
:1056C00015FC00F0FDFA7CE704ED00E070B50D4636
:1056D000040025D0FFF712FDD4E90F20216802FB5A
:1056E000001161600021A1632168A1600A46D4E92C
:1056F0000F01401E00FB0121E16021464FF0FF3009
:1057000001F8440F487004F110008DB1FFF7C4FC9C
:1057100004F12400FFF7C0FCFFF710FD012070BD6D
:10572000502080F31188BFF34F8FBFF36F8FFEE7D8
:1057300021690029F0D000F089FA0028ECD0044952
:105740004FF080500860BFF34F8FBFF36F8FE3E7D8
:1057500004ED00E02DE9FF4782B01D468A464FF078
:105760000008040003D0BAF1000F08D011E0502067
:1057700080F31188BFF34F8FBFF36F8FFEE7206C6C
:1057800038B1502080F31188BFF34F8FBFF36F8F74
:10579000FEE7022D0AD1E06B012807D0502080F3EC
:1057A0001188BFF34F8FBFF36F8FFEE700F090F9C2
:1057B0003F4F4FF000094FF0805648B9049838B178
:1057C000502080F31188BFF34F8FBFF36F8FFEE738
:1057D000FFF794FCA06BE16B884207D3022D05D044
:1057E0000498D0B1B8F1000F1AD01EE02A465146F5
:1057F0002046FFF760FA616A19B104F1240000F055
:1058000025FA20B13E60BFF34F8FBFF36F8FFFF7D4
:1058100095FC012006B0BDE8F087FFF78FFC22E081
:105820006846FFF78DFD4FF00108FFF787FCFFF793
:10583000CDFDFFF763FC94F94400401C01D184F8CE
:10584000449094F94500401C01D184F84590FFF73D
:1058500075FC04A9684600F0D9F830B12046FFF77E
:1058600045FB00F02DFA0020D4E7FFF747FCA06BC2
:10587000E16B884213D1FFF761FC04F11000049939
:10588000FFF704FD2046FFF731FB00F019FA00286E
:105890009ED13E60BFF34F8FBFF36F8F98E7FFF746
:1058A0004DFC2046FFF722FB00F00AFA90E70000CB
:1058B00004ED00E02DE9F0471F46904689460400BC
:1058C00003D0B9F1000F08D011E0502080F3118807
:1058D000BFF34F8FBFF36F8FFEE7206C38B15020BE
:1058E00080F31188BFF34F8FBFF36F8FFEE7022F56
:1058F0000AD1E06B012807D0502080F31188BFF354
:105900004F8FBFF36F8FFEE7FFF76AFC5020EFF376
:10591000118680F31188BFF34F8FBFF36F8FA06B99
:10592000E16B884206D3022F04D0002086F3118851
:10593000BDE8F08794F945503A4649462046FFF7BE
:10594000BAF9681C04D06D1C84F845500120EDE7BD
:10595000606A0028FAD004F1240000F077F90028EA
:10596000F4D0B8F1000FF1D00121C8F80010EDE734
:105970002DE9F04790468946040003D0B9F1000FA5
:1059800008D011E0502080F31188BFF34F8FBFF390
:105990006F8FFEE7206C38B1502080F31188BFF381
:1059A0004F8FBFF36F8FFEE7FFF71AFC5020EFF326
:1059B000118680F31188BFF34F8FBFF36F8FA76BF2
:1059C000F7B194F9445049462046FFF761F97F1E2C
:1059D000A763681C04D06D1C84F84450012010E0BB
:1059E00020690028FAD004F1100000F02FF90028F7
:1059F000F4D0B8F1000FF1D00121C8F80010EDE7A4
:105A0000002086F31188BDE8F087000070B50D46D0
:105A1000040019D005B3FFF771FB164AD168286856
:105A2000431C0FD02368126A934202D062688A42F4
:105A30001AD96268891A814216D2401A2860204613
:105A4000FFF77EFC002410E0502080F31188BFF3A4
:105A50004F8FBFF36F8FFEE7502080F31188BFF3A5
:105A60004F8FBFF36F8FFEE70124FFF767FB2046E0
:105A700070BD0000540000202DE9FF5F8346DDE982
:105A80000E87994616468A469000FFF765FA05008C
:105A90001AD05420FFF760FA040012D025630021C9
:105AA000CDE90241CDE900874B4632465146584682
:105AB000FFF77CF92046FFF75BF8012004B0BDE852
:105AC000F09F2846FFF74EFB4FF0FF30F6E700004F
:105AD0000548416919B1006B18B1002070470120D9
