:020000040800F2
:10000000E8A8002075030008DD7100084D6F0008A6
:10001000D9710008010D00081BAB000800000000AA
:10002000000000000000000000000000B90200080D
:1000300035100008000000000D0300083D82000894
:100040008F0300088F0300088F0300088F03000848
:100050008F0300088F0300088F0300088F03000838
:100060008F0300088F0300088F0300088F03000828
:100070008F0300088F0300088F0300088F03000818
:100080008F0300088F0300088F0300088F03000808
:100090008F0300088F0300088F0300088F030008F8
:1000A0008F0300088F0300088F0300088F030008E8
:1000B0008F0300088F030008F18300088F030008F6
:1000C0008F0300088F0300088F0300088F030008C8
:1000D0008F0300088F0300088F0300088F030008B8
:1000E0008F0300088F0300088F0300088F030008A8
:1000F0008F0300088F0300088F0300088F03000898
:100100008F0300088F0300088F0300088F03000887
:100110008F0300088F030008018400081184000881
:100120008F0300088F0300088F0300088F03000867
:100130008F0300088F0300088F0300088F03000857
:100140008F0300088F0300088F030008197200084E
:100150008F0300088F0300088F0300088F03000837
:100160008F0300088F0300088F0300088F03000827
:100170008F0300088F0300088F03000800000000B1
:10018000757200088F0300088F0300088F030008B2
:100190008F0300088F0300088F0300088F030008F7
:1001A000516F00088F030008B50E00088F03000888
:1001B0008F0300088F0300088F0300088F030008D7
:1001C0008F0300088F03000800F002F800F065F8C4
:1001D0000AA090E8000C82448344AAF10107DA45A2
:1001E00001D100F05AF8AFF2090EBAE80F0013F08F
:1001F000010F18BFFB1A43F001031847508906008E
:10020000708906000A444FF0000C10F8013B13F00F
:10021000070408BF10F8014B1D1108BF10F8015B5F
:10022000641E05D010F8016B641E01F8016BF9D152
:1002300013F0080F1EBF10F8014BAD1C0C1B09D1A9
:100240006D1E58BF01F801CBFAD505E014F8016B1B
:1002500001F8016B6D1EF9D59142D6D370470000AD
:100260000023002400250026103A28BF78C1FBD8BF
:10027000520728BF30C148BF0B6070471FB513F04D
:10028000C2FA9DE8030000F0A7FA00F06DFA1FBD66
:1002900010B5002000F0D6FA10BD00F091FB114619
:1002A000FFF7ECFF11F020FA00F0AFFB03B4FFF70B
:1002B000EFFF03BC00F06AFA2B4B19680868B0E83E
:1002C000F04F80F30988BFF36F8F4FF0000080F389
:1002D000118870470000000006480068006880F33D
:1002E000088862B661B6BFF34F8FBFF36F8F00DF30
:1002F00000BF00BF08ED00E0DFF80C00016841F42A
:1003000070010160704700BF88ED00E0EFF30980E5
:10031000BFF36F8F144B1A681EF0100F08BF20ED4B
:10032000108A20E9F04F106008B44FF0500072B608
:1003300080F31188BFF34F8FBFF36F8F62B612F057
:1003400031F94FF0000080F3118808BC1968086883
:10035000B0E8F04F1EF0100F08BFB0EC108A80F329
:100360000988BFF36F8F704754000020EFF30580BA
:10037000704700000948804709480047FEE7FEE74C
:10038000FEE7FEE7FEE7FEE7FEE7FEE7FEE7FEE745
:1003900004480549054A064B704700008D83000854
:1003A000C9010008E8A20020E8A80020E8A4002075
:1003B000E8A4002070B5064600F0EEF9056806F1E5
:1003C0000B0020F00704B4429CBF002070BD2B46F8
:1003D0006A68BAB11068A04210D304F108018842DB
:1003E0003CBF5068586007D35168101941601168CC
:1003F000091B016058601460101D70BD13465268DF
:10040000002AE7D12146284600F0D2F90028DED1A3
:1004100070BD70B50446051F00F0BEF90068002CE1
:1004200014BF446870BD002C18BFAC423CBF2046CE
:100430006468F8D301680A18AA4218BF456003D15E
:100440002A6805461144016028684119A1421CBF71
:100450006C6070BD6168696021680844286070BD87
:1004600053EA020C00F069802DE9F04B4FF00006D2
:10047000002B1FBFB3FA83F503FA05F424FA05F63F
:100480005E4012BF1643B2FA82F502FA05F4C5F1D6
:1004900020051EBF22FA05FC44EA0C04203556EA6A
:1004A000044C4FEA144418BF641C4FF000084FF08E
:1004B0000009904271EB030C39D3002919BFB1FA3E
:1004C00081F701FA07F6B0FA80F700FA07F6C7F1EC
:1004D00020071EBF20FA07FC46EA0C062037B6FBB1
:1004E000F4FCA7EB0507103F07F01F0BCBF120062C
:1004F0000CFA0BFB2CFA06F644BFB3460026202F5D
:10050000A4BF5E464FF0000B5BEA060C08BF4FF03D
:10051000010B19EB0B09ABFB027C48EB0608C01B77
:1005200006FB02CC0BFB03CC71EB0C01C1E70B46C5
:10053000024641464846BDE8F08B13B54FF0000037
:100540004FF00001AFF30080BDE81C40704710B5CC
:10055000002000F098F9FFF79BFEBDE81040012055
:1005600000F014B92DE9F041074615460E4610205B
:10057000FFF720FF04000AD06760C4E9026500F0BD
:100580000FF90168216004600020BDE8F0810120BE
:10059000FBE700000EB5054614460E4613A000F01A
:1005A00080F9284600F07DF916A000F07AF930466F
:1005B00000F077F915A000F074F900218DF80B1008
:1005C0000A210DF10A008DF80A1008E094FBF1F2FF
:1005D00001FB124294FBF1F4303200F8012D002CA3
:1005E000F4DC00F05EF9FFF7B2FF00002A2A2A20AF
:1005F000617373657274696F6E206661696C65649E
:100600003A2000002C2066696C6520002C206C6963
:100610006E652000032A40F2308010F0030C00F0D9
:10062000158011F8013BBCF1020F624498BF11F82C
:1006300001CB00F8013B38BF11F8013BA2F10402E5
:1006400098BF00F801CB38BF00F8013B11F003035D
:1006500000F02580083AC0F0088051F8043B083AC1
:1006600051F804CBA0E80810F5E7121D5CBF51F863
:10067000043B40F8043BAFF30080D20724BF11F8DD
:10068000013B11F801CB48BF11F8012B24BF00F842
:10069000013B00F801CB48BF00F8012B704710B5B3
:1006A000203AC0F00B80B1E81850203AA0E818506A
:1006B000B1E81850A0E81850BFF4F5AF5FEA027C2B
:1006C00024BFB1E81850A0E8185044BF18C918C09A
:1006D000BDE810405FEA827C24BF51F8043B40F83B
:1006E000043B08BF7047D20728BF31F8023B48BF20
:1006F00011F8012B28BF20F8023B48BF00F8012B5E
:10070000704702F0FF0343EA032242EA024200F08C
:10071000D4B84FF0000200B51346944696462039EF
:1007200022BFA0E80C50A0E80C50B1F12001BFF4AA
:10073000F7AF090728BFA0E80C5048BF0CC05DF810
:1007400004EB890028BF40F8042B08BF704748BF5E
:1007500020F8022B11F0804F18BF00F8012B7047D2
:10076000704770477047000070B5064C7C44064DDA
:100770007D4403E0206820448047241DAC42F9D129
:1007800070BD0000C8840600D0840600014918200E
:10079000ABBEFEE72600020000487047DC9C00204C
:1007A000004870470C9D00207047704770477047A5
:1007B00038B504460A4600206946AFF30080002899
:1007C00008BF38BD02460099204600F0A2F801207B
:1007D00038BD012000F0D4B8F8B5AFF3008005466D
:1007E00000200C46102000BF0646A819A0420DD9D3
:1007F000324669460020AFF30080070008BF00F0D2
:10080000BFF80098A04218BF0546C419FFF7C4FFFF
:1008100005600746F01D20F007004619284600F045
:100820000AF8B44208BFF8BDA21B31463868BDE8DB
:10083000F84000F06EB800210160C0E90110704777
:10084000102070472DE9F0410646FFF7A9FF8046CA
:10085000454613E016B1E068B0420ED1206828602A
:10086000D4E90101D8F8007088472046FFF7D1FD90
:10087000D8F80000B842EBD100E025462C68002CE7
:10088000E8D1BDE8F08110B500F062F8BDE8104095
:1008900000F059B810B500F07BF8BDE8104000F04A
:1008A00052B810B5044602E0641C00F026F8207827
:1008B0000028F9D110BD4FF000020429C0F01280C9
:1008C00010F0030C3FF427AFCCF1040CBCF1020F85
:1008D00018BF00F8012BA8BF20F8022BA1EB0C01D8
:1008E000FFF719BF5FEAC17C24BF00F8012B00F8B5
:1008F000012B48BF00F8012B704708B569468DF8F9
:1009000000000320ABBE08BD00487047D49C002007
:100910007047034640688C46002818BF88423CBF99
:1009200003464068F8D318681844884207D00CF191
:10093000030020F00700001D411A521A0146081D4D
:100940000A60FFF766BD002801D0FFF71FBF7047A0
:1009500010B5002102A000F061F8012010BD0000D8
:10096000534947414252543A2041626E6F726D6161
:100970006C207465726D696E6174696F6E00000041
:1009800010B500F065F8BDE81040FFF7DCBF0000CF
:1009900010B5002102A000F041F8012010BD0000B8
:1009A0005349475056464E3A205075726520766935
:1009B000727475616C20666E2063616C6C65640096
:1009C0007546FFF7A1FFAE4605006946534620F085
:1009D0000700854618B020B5FFF7DAFCBDE82040D7
:1009E0004FF000064FF000074FF000084FF0000BEB
:1009F00021F00701AC46ACE8C009ACE8C009ACE89E
:100A0000C009ACE8C0098D46704710B50446AFF385
:100A100000802046BDE81040FFF748BC70B5054691
:100A20000C460A2000E06D1CFFF767FF35B12878FF
:100A30000028F8D102E0641CFFF75FFF14B12078B2
:100A40000028F8D1BDE870400A20FFF756BF00002B
:100A500010B5012805D0002103A0FFF7DFFF01201A
:100A600010BD09A1F8E7000053494752544D454DC8
:100A70003A204F7574206F662068656170206D653F
:100A80006D6F7279000000003A2048656170206D3A
:100A9000656D6F727920636F727275707465640032
:100AA0005749096821F44031564AC2F804131146E7
:100AB000D1F8041342681143514A11600168496832
:100AC00021F480710268516001684A68016942EA54
:100AD0000121026851600168496821F04071026893
:100AE0005160016849688268114302685160016879
:100AF000896821F400610268916001688968C268B0
:100B0000114302689160404A816A914218D001689D
:100B1000896821F070610268916001688968826A61
:100B20001143026891600168896821F040510268B0
:100B3000916001688968C26A1143026891600BE0A4
:100B40000168896821F070610268916001688968B4
:100B500021F04051026891600168896821F002012A
:100B60000268916001688A68816942EA410102680D
:100B70009160016AA1B10168496841F400610268AD
:100B800051600168496821F4604102685160016860
:100B90004A68416A491E42EA41310268516005E0F3
:100BA0000168496821F40061026851600168C96AFE
:100BB00021F470010268D1620168CA6A818B491E02
:100BC00042EA01510268D1620168896821F400712A
:100BD0000268916001688A68016B42EA41210268FB
:100BE00091600168896821F4806102689160016800
:100BF0008A68416942EA8121026891607047000079
:100C000004230140002001400100000F10B5012421
:100C10006103034801F0B8FA00B10024204610BD7A
:100C20000008024010B504462146024804F0B5FA17
:100C300010BD00009C04002010B5044804F0C0FA68
:100C4000042801D0012010BD0020FCE79C040020F6
:100C500010B5002400F014F8012801D0022010BDC6
:100C6000064804F0C1FA044634B94FF40061034861
:100C700004F046F900B101242046F0E79C0400206E
:100C800008B501200090FFF7C1FF08B900200090CF
:100C90009DF8000008BD00002DE9F04104460D4616
:100CA0001646002733462A462146044804F05AFBDC
:100CB00000B101273846BDE8F08100009C04002007
:100CC00010B54FF0FF3201210248006810F0F0FD2E
:100CD00010BD00003C0000202DE9F04104460D4607
:100CE0001646002733462A462146044804F0D4FB22
:100CF00000B101273846BDE8F08100009C040020C7
:100D000000BFFEE72DE9F0410646D6F87803C46936
:100D1000002794F84E00032802D0042833D109E0BC
:100D2000237B628B3046216A08F01FF8042084F888
:100D30004E0029E0217B304608F033FE0746012FA4
:100D400020D1217B304608F00BFE0546A16A481BE6
:100D50000CD0608BA84209D2A06A401BA062206A16
:100D600028442062032084F84E0005E0002084F827
:100D70004E00304608F0D4F900220421D6F8CC0306
:100D800010F096FD00E000BF00BFBDE8F081F8B5AF
:100D90000546D5F87803C469002694F84D0001286B
:100DA00002D002284FD119E0208B616A814208D914
:100DB00001200090637B228B2846E16907F0EAFF5F
:100DC00008E001200090637BA08C82B22846E16994
:100DD00007F0E0FF022084F84D0035E0617B2846F3
:100DE00008F0DFFD0646012E21D1208B616A814289
:100DF00008D9208B616A081A6062208BE169084477
:100E0000E06101E000206062606A18B1012084F8AE
:100E10004D0005E0002084F84D00284608F084F9D4
:100E200000220421D5F8CC0310F042FD0AE0022E86
:100E300008D1012084F84D0000220421D5F8CC030C
:100E400010F036FD00E000BF00BFF8BD144A10B539
:100E5000136823F001031360124A12680123AAB930
:100E6000114A12684FF08A44B4EB025F0ED10F4A68
:100E700013601368002BFCD10C4A083A106010680C
:100E8000884201D0002010BD012010BD084A9360A7
:100E90009368002BFCD1106010688842F4D0F1E711
:100EA000002000E0002004E00010005C084C025824
:100EB0000030024010B5024800F0EEFD10BD000009
:100EC000081400202DE9F0470C4616461F46DDF8B1
:100ED00020C04FF000080025002100220023D0F898
:100EE0000090D9F8449009F040494CEA074A49EA91
:100EF0000A09D0F800A0CAF84490D0F80090C9F8C8
:100F00003C60D0F80490B9F5403F4ED104F07F45E5
:100F100004F47F0104F47F42E3B2D0F80890B9F101
:100F2000000F06D142EA010949EA050949EA030826
:100F300036E0D0F80890B9F1010F04D142EA010976
:100F400049EA03082CE0D0F80890B9F1020F09D162
:100F5000C90C920ADB084FEA421949EAC12949EA59
:100F600003081DE0D0F80890B9F1030F0CD1ED0F84
:100F7000C90CD20ADB084FEA421949EA812949EA39
:100F8000C53949EA03080BE02D0F090D120B1B09A7
:100F90004FEA021949EA012949EA053949EA0308F1
:100FA000D0F80090C9F8388003E0D0F80090C9F874
:100FB0000C40BDE8F08730B50468246824F4802430
:100FC00005682C60046863608468402C04D1046860
:100FD000A2600468E16003E00468A1600468E26064
:100FE00030BD0146002205E0002301F5607040F8A5
:100FF0002230521C0F2AF7D3002204E0002301F50F
:101000008E708354521CB2F5007FF7D30020087015
:101010004870012088700020C1F8BC0301230B76C2
:1010200040238B7100234B7681F81C33012381F818
:101030001D3370477047704730B504460D46002297
:101040002946204600F002F830BD0000F0B5034606
:10105000012500241148407A01281CDA00200F4E97
:10106000767A0E4FB8553846467A001D40F826303D
:10107000001F467A083082553E46707A461C7E72C2
:10108000044604F1300008703A2048702F20887020
:101090000020C87000252846F0BD0000201B00205D
:1010A00030B50246002300240868012816D01368D2
:1010B0006FF30E03D1E901052843CD6828430D697C
:1010C00028434D6928438D692843CD6928430D6A1B
:1010D00028434D6A28430343136019E0136823F43F
:1010E000F843D1E9070528434D6A28430343546870
:1010F0006FF30E04D1E901052843CD6828430D693B
:1011000028434D6928438D69284304431360546084
:10111000002030BD0246506940EA41005061002085
:10112000704718B5034600200090D1E90004204321
:101130008C68641E40EA4410CC6840EA4420009069
:1011400000981861002018BD70B5034615460022AE
:101150000024012D1FD09A6802F070420868401EDA
:101160004E68761E40EA06168868401E46EA00264B
:10117000C868401E46EA0036088A401E46EA004615
:10118000888A401E46EA0056087E401E46EA0060F5
:1011900002439A6022E09A6811480240C868401EE3
:1011A0000603888A401E46EA00500243DC6804F0C9
:1011B00070440868401E4E68761E40EA061688682D
:1011C000401E46EA0026088A401E46EA0046087E7F
:1011D000401E46EA006004439A60DC60002070BD57
:1011E000FF0F0FFF70B504460D46A1212174212188
:1011F000617400216182A1820721E18207222946D0
:10120000204607F0C4FF70BD18B5024600200090CC
:1012100000BF92F83C00012801D1022018BD012036
:1012200082F83C0000BF0868092822D91068C0680D
:101230000B780A3B03EB43040723A340984313684E
:10124000D860594B0868984207D11068C0680B7A7B
:1012500040EA03601368D8601FE00B780A3B03EB99
:101260004303886898401368DB6818431368D860A4
:1012700013E0106800690B7803EB43040723A340D5
:101280009843136818610B7803EB43038868984010
:1012900013681B691843136818614868072817D238
:1012A0001068406B0B795B1E03EB83041F23A34084
:1012B000984313685863088880B20B795B1E03EB70
:1012C0008303984013685B6B18431368586331E0DD
:1012D00048680D2817D21068006B0B79DB1F03EBF1
:1012E00083041F23A340984313681863088880B2BF
:1012F0000B79DB1F03EB8303984013681B6B1843C8
:101300001368186316E01068C06A0B790D3B03EB95
:1013100083041F23A34098431368D862088880B2CF
:101320000B790D3B03EB830398401368DB6A18438A
:101330001368D8621D4B1068984208D108681228BB
:1013400005D11B48006840F48000C3F80403174B24
:101350001068984220D1144B0868984202D008685F
:10136000112819D11248006840F40000104B186091
:101370000D4B086898420FD10E4800680E4BB0FB29
:10138000F3F000EB80004000009002E00098401E67
:10139000009000980028F9D100BF002082F83C009E
:1013A00000BF00BF3AE7000012000010002001401B
:1013B000042301405000002040420F0070B5044655
:1013C00000250CB9012070BD1549A06A884200D0E3
:1013D00000BF206C30B90020606484F83C002046D7
:1013E00000F020F8206C00F0100088B9206C20F488
:1013F000885040F0020020642046FFF751FB002097
:101400006064206C20F0020040F00100206400E0E5
:10141000012500BF002084F83C0000BF2846D2E729
:101420000100000F10B586B00446142101A8FFF793
:1014300070F92349206888423FD100BF21480068E5
:1014400040F480601F4908600846006800F480602E
:10145000009000BF00BF00BF1A481438006840F079
:1014600020001849143908600846006800F0200080
:10147000009000BF00BF00BF0846006840F00100B8
:1014800008600846006800F00100009000BF00BF3F
:101490004FF4F8600190032002900020039001A90E
:1014A000094800F065FD0120019003200290002012
:1014B000039001A9054800F05BFD06B010BD0000D7
:1014C0000022014044380240001402400000024063
:1014D00030B503460C461F2100BF01208840204044
:1014E00018B9081EA1F10101F7D1A2B1082A0DD047
:1014F000102A06D0182A0FD1072901D3012030BDA8
:101500000BE0082901D30120F9E706E0102901D3F7
:101510000120F4E701E000E000BF00BF186844616B
:101520001868806820F0180010431D68A86000202B
:10153000E5E7000010B504460CB9012010BD607F3E
:1015400020B900202077204600F036F8022060778E
:10155000207948B91748216848612068806820F0E0
:1015600018002168886007E02046D4E90212FFF7DE
:10157000AFFF08B10120E1E7607920B94FF0FF30FB
:101580002168086102E0216820690861206880689C
:1015900020F06000616908432168886020688068E5
:1015A00020F08000A16908432168886001206077ED
:1015B0000020C3E7B71DC10408B5094A016891427C
:1015C0000DD100BF0749096841F48051054A1160F7
:1015D0001146096801F48051009100BF00BF08BDA9
:1015E000003002403038024010B504460CB90120EA
:1015F00010BD94F8350010B9204600F041F80220E3
:1016000084F83500206800681C490840216808609B
:10161000616960680843E168084321690843A1687B
:101620000843A1690843216A0843616A0843A16A23
:101630000843E16A0843216B0843216809680843AD
:1016400021680860606810280BD1217F607F41EA23
:101650000021A07F41EA0041E07F41EA006021686B
:1016600088612068C06840F01E002168C8600020C2
:10167000E064012084F835000020B9E707F0E0FFBE
:1016800010B586B00446142101A8FFF742F84D4971
:10169000206888427ED100BF4B48006840F00100BE
:1016A000494908600846006800F00100009000BF4A
:1016B00000BF00BF081F006840F01000091F08604D
:1016C0000846006800F01000009000BF00BF00BF97
:1016D0000846006840F0080008600846006800F00E
:1016E0000800009000BF00BF00BF0846006840F03F
:1016F000400008600846006800F04000009000BF0D
:1017000000BF00BF0846006840F08000086008463F
:10171000006800F08000009000BF00BF00BF0846D6
:10172000006840F0010008600846006800F0010011
:10173000009000BF00BF60200190022002900020B6
:10174000039004900D20059001A9204800F010FCA2
:1017500008200190022002900020039004900D20A8
:10176000059001A91A4800F003FC4FF400700190A5
:10177000022002900020039004900D20059001A902
:10178000144800F0F5FB4FF4BC4001900220029099
:10179000002000E014E0039004900D20059001A9C2
:1017A0000D4800F0E5FB502001900220029000203F
:1017B000039004900D20059001A9084800F0D8FB83
:1017C00006B010BD00000550343802400010024041
:1017D000000C024000180240001C024000000240C1
:1017E00070B5044600252068006820F00500001D43
:1017F0002168086000F0D6FC054613E000F0D2FC3A
:10180000401BB0F57A7F0DD9E06B40F02000E0631B
:10181000032084F8390000BF002084F8380000BF9E
:10182000032070BD2068006800F001000028E5D1A9
:101830002068006820F40C5021680860012084F8BA
:10184000390000BF002084F8380000BF00BFE8E77F
:101850002DE9F84304460F4615461E46DDE9088982
:1018600000BF94F83800012802D10220BDE8F883B7
:10187000012084F8380000BF022084F83900206875
:1018800045614346324639462046CDF80090FFF781
:1018900019FB2068006840F40C502168086020683B
:1018A000006840F00100216808600020DEE7704712
:1018B0002DE9F04104460D460026206800F124077A
:1018C0002068006840F0040021680860012D02D102
:1018D000206800F11C0700F065FC064614E000F0EB
:1018E00061FC801BB0F57A7F0ED9E06B40F02000E0
:1018F000E063032084F8390000BF002084F838003A
:1019000000BF0320BDE8F081386800F02000002807
:10191000E5D12068006820F4645021680860012047
:1019200084F8390000BF002084F8380000BF00BFF1
:10193000E8E7000070B502460C4602F1180000EB23
:101940000411002500235068B0F5403F02D05068D4
:1019500000B100BF00BF92F83800012801D1022079
:1019600070BD012082F8380000BF022082F83900E3
:101970000E89486840EA0643214D48680A2802D08B
:101980004868092804D1C86800F07F40034302E09A
:10199000087B43EA0063A4B91068406AA84318436F
:1019A0001668706208681668B06148680A2802D034
:1019B0004868092819D1C86820F07F401668B062CD
:1019C00013E01068C069A84318431668F0610868FE
:1019D0001668306148680A2802D04868092804D18E
:1019E000C86820F07F4016683062012082F8390014
:1019F00000BF002082F8380000BF00BFB0E7000041
:101A00000F0003FF10B504460CB9012010BD21489A
:101A1000006800F4000020B32068006800F00100B6
:101A200028B12046FFF7DCFED8B10120EEE72068A0
:101A3000406A00F02000202806D100212046FFF750
:101A400037FF70B10120E1E72068C06900F0200095
:101A5000202806D101212046FFF72AFF08B10120E6
:101A6000D4E7204600F0FCF80020216808602168D7
:101A70000861216888612168C8612168486221681D
:101A80004863E06384F8390000BF84F8380000BF81
:101A900000BFBBE73038024070B504462068456897
:101AA0002068066805F00100E0B106F48070C8B156
:101AB0002068006820F4807021680860E06B40F0C6
:101AC0000100E063012021688860042084F8390067
:101AD00000BF002084F8380000BF606910B12046C4
:101AE0006169884705F02000E0B106F40050C8B1F4
:101AF0002068006820F400502168086020202168D8
:101B00008860E06B40F00200E063042084F8390054
:101B100000BF002084F8380000BF606910B1204683
:101B20006169884705F00800E0B106F40060C8B1BB
:101B30002068006820F4006021680860082021689F
:101B40008860E06B40F00400E063042084F8390012
:101B500000BF002084F8380000BF606910B1204643
:101B60006169884705F0040070B106F4806058B1DF
:101B70002068006820F480602168086004202168E3
:101B80008860204600F06BF805F00200D0B106F442
:101B90000070B8B12068006820F400702168086007
:101BA000022021688860E06BE063012084F839003E
:101BB00000BF002084F8380000BF206910B1204623
:101BC0002169884705F01000C0B106F48050A8B123
:101BD0002068006820F48050216808601020216887
:101BE0008860E06BE063012084F8390000BF0020CA
:101BF00084F8380000BF2046FFF759FE70BD10B5CD
:101C000004460CB9012010BD94F8390028B9002011
:101C100084F83800204600F037F8022084F83900B4
:101C20002068006820F4403061680843216808603B
:101C30002068406B20F00700A168084321684863D2
:101C40002068006C6FF30D00E168084321680864A8
:101C50000020E063012084F839000020D3E77047BA
:101C600010B5044606492068884208D10548006836
:101C700020F40000034908605A2001F071FA10BDF9
:101C800000B002403038024038B504460C492068A4
:101C9000884214D100BF0B48006840F40000094995
:101CA00008600846006800F40000009000BF0022B1
:101CB00005215A2001F06FFA5A2001F05FFA38BD71
:101CC00000B00240303802402DE9F84304460D468A
:101CD00016461F46DDF8208000BF94F83800012822
:101CE00002D10220BDE8F883012084F8380000BF4B
:101CF000022084F839003B46324629462046CDF87A
:101D00000080FFF7DFF82068006840F40C5021687D
:101D100008602068006840F0010021680860002029
:101D2000E0E70146486D70472DE9F04704460D464F
:101D300016461F464FF00008D4F8589000BF94F89C
:101D40003400012802D10220BDE8F087012084F888
:101D5000340000BF94F8350001282BD1022084F80C
:101D60003500002060653B46324629462046FFF795
:101D700022F994F85C103F208840C9F808002068D8
:101D8000006840F01600216808602068406940F053
:101D9000800021684861206C28B12068006840F00C
:101DA0000800216808602068006840F00100216890
:101DB000086006E000BF002084F8340000BF4FF048
:101DC00002084046C0E7000070B5044600F0EAF99A
:101DD00006462546681C10B104480078054400BF3B
:101DE00000F0E0F9801BA842FAD370BD4C0000203F
:101DF000F0B50C4600250022002300219CE00126BE
:101E000006FA01F504EA0502AA427DD106684FEA06
:101E1000410C032707FA0CF7BE430660CF0800F118
:101E2000200656F827604F074FEAD76C0F2707FAAE
:101E30000CF7BE434FEAD10C00F1200747F82C60A5
:101E400086684FEA410C032707FA0CF7BE43866009
:101E5000476801268E40B7434760C6684FEA410C89
:101E6000032707FA0CF7BE43C660354E8F0856F8B5
:101E700027308E07370F0F26BE403340314EB04219
:101E800001D100262DE0304EB04201D1012628E0DC
:101E90002E4EB04201D1022623E02D4EB04201D198
:101EA00003261EE02B4EB04201D1042619E02A4E33
:101EB000B04201D1052614E0284EB04201D10626D9
:101EC0000FE0274EB04201D107260AE0254EB0426E
:101ED00001D1082605E0244EB04201D1092600E0D8
:101EE0000A268F073F0FBE409E4224D18E07370F30
:101EF0000F2606FA07F3124E8F0856F827609E4306
:101F00000F4F4FEA910C00E015E047F82C60174E98
:101F100036689643154F3E603E1D366896433F1D1A
:101F20003E603E1D366896433F1D3E603E1D36684E
:101F300096433F1D3E60491C1029FFF460AFF0BD81
:101F4000083801400000024000040240000802403E
:101F5000000C024000100240001402400018024031
:101F6000001C02400020024000240240003C0140CE
:101F7000F8B502460B46002100250024002000BFD2
:101F8000E4E0012606FA01F51E6806EA0504AC4203
:101F900071D15E68022E02D05E68122E13D1CF0876
:101FA00002F1200656F827004E07F70E0F26BE4016
:101FB000B0434F07FF0E1E69BE403043CF0802F109
:101FC000200646F8270010684F000326BE40B043A5
:101FD0001E7906F003064F00BE40304310605E6875
:101FE000012E08D05E68022E05D05E68112E02D048
:101FF0005E68122E13D190684F000326BE40B04396
:102000004F00DE68BE4030439060506801268E402D
:10201000B0431E79C6F300168E4030435060D0683E
:102020004F000326BE40B0434F009E68BE40304381
:10203000D0605E6806F08056B6F1805FA8D100BF20
:10204000444E366846F48046424F3E603E4636680F
:1020500006F48046009600BF00BF3F4E8F0856F83A
:1020600027008E07370F0F26BE40B0433B4EB242CB
:1020700002D100262EE068E0394EB24201D101269D
:1020800028E0384EB24201D1022623E0364EB24259
:1020900001D103261EE0354EB24201D1042619E0DB
:1020A000334EB24201D1052614E0324EB24201D184
:1020B00006260FE0304EB24201D107260AE02F4E2D
:1020C000B24201D1082605E02D4EB24201D10926C7
:1020D00000E00A268F073F0FBE4030431E4E8F0898
:1020E00046F82700274E3068A0435E6806F4803625
:1020F000B6F5803F00D12043224E3060361D306857
:10210000A0435E6806F40036B6F5003F00D12043D8
:102110001C4E361D3060361D3068A0435E6806F4E4
:102120008016B6F5801F00D12043164E0836306069
:10213000361D3068A0435E6806F40016B6F5001F31
:1021400000D120430F4E0C363060491C1029FFF49B
:1021500018AFF8BD44380240083801400000024082
:102160000004024000080240000C0240001002403F
:102170000014024000180240001C024000200240EF
:1021800000240240003C0140024613690B400BB1A1
:10219000012000E0002070470AB1816101E00B04DA
:1021A00083617047014800687047000044000020C8
:1021B00010B50446D4F8BC0207F080FB10BD10B582
:1021C0000446D4F8BC0207F097FB10BD10B50446D6
:1021D000206808F0B1F810BD10B50446206808F07A
:1021E000B2F810BD024601EB810302F1380000EBAA
:1021F000C30090F824007047024601EB810302F10E
:10220000380000EBC3004069704770B504460D46C6
:10221000002600BF94F8B802012801D1022070BD49
:10222000012084F8B80200BF2946206808F09CF815
:1022300000BF002084F8B80200BF3046EFE72DE968
:10224000FE4F04460D4616461F46DDE90D9ADDF8A1
:10225000308000BF94F8B802012802D10220BDE806
:10226000FE8F012084F8B80200BF002105EB850233
:1022700004F1380000EBC200417105EB850104F167
:10228000380000F8317005EB850100EBC100A0F8C3
:1022900008A005EB850104F1380000EBC100457092
:1022A00005EB850104F1380000EBC10080F80790D0
:1022B00006F07F0105EB850204F1380000EBC20057
:1022C000817006F08000802808D1012105EB85028D
:1022D00004F1380000EBC200C17007E0002105EBFB
:1022E000850204F1380000EBC200C17005EB8501E6
:1022F00004F1380000EBC10080F804808DE800078D
:102300003B4632462946206808F0E9F8834600BF7C
:10231000002084F8B80200BF5846A0E770B5044614
:102320000D461646D4F8BC0207F07CFB70BD2DE9C3
:10233000F05F04460D4616461F46DDE90C9BDDE9BD
:102340000A8A05EB850104F1380000EBC100C67074
:1023500005EB850104F1380000EBC100C771B8F14D
:10236000000F08D1032105EB850204F1380000EBD2
:10237000C200817207E0022105EB850204F13800FA
:1023800000EBC200817237B1012F74D0022F2BD025
:10239000032F71D15DE0B8F1010F24D11EBBB9F15B
:1023A000000F07D1012105EB850204F1380000EB95
:1023B000C200417605EB850104F1380000EBC10055
:1023C000407E40B9002105EB850204F1380000EBA6
:1023D000C200817207E0022105EB850204F138009A
:1023E00000EBC200817275E0CEB905EB850104F106
:1023F000380000EBC100407E40B9002105EB8502AA
:1024000004F1380000EBC200817221E0022105EBEB
:10241000850204F1380000EBC200817218E005EB80
:10242000850104F1380000EBC100007E40B90021B5
:1024300005EB850204F1380000EBC200817207E071
:10244000022105EB850204F1380000EBC200817225
:1024500040E0DEB905EB850104F1380000EBC10076
:10246000407E50B9002105EB850204F1380000EBF5
:10247000C200817223E023E02BE0022105EB8502FC
:1024800004F1380000EBC200817218E005EB850111
:1024900004F1380000EBC100007E40B9002105EBDB
:1024A000850204F1380000EBC200817207E00221CE
:1024B00005EB850204F1380000EBC200817209E0EF
:1024C000002105EB850204F1380000EBC2008172A7
:1024D00000E000BF00BF05EB850104F1380000EB10
:1024E000C100C0F80CA005EB850104F1380000EB39
:1024F000C100C0F81090002105EB850204F13800FE
:1025000000EBC20080F8241005EB850204F13800CE
:1025100000EBC200416105EB850104F1380000EBDE
:10252000C1004570002105EB850204F1380000EB85
:10253000C20080F82510227C05EB850C04F13803DD
:1025400003EBCC01206808F0A9F8BDE8F09F2DE965
:10255000F0410446D4F800804646206807F0FFFEAC
:10256000012871D1206808F011FA08B9BDE8F0819E
:10257000206808F00BFA00F40010B0F5001F03D13A
:102580004FF4001021684861206808F0FFF900F45A
:102590008010B0F5801F03D14FF48010216848618E
:1025A000206808F0F3F900F08060B0F1806F03D18B
:1025B0004FF0806021684861206808F0E7F900F07A
:1025C0000200022801D121684861206808F0DEF984
:1025D00000F00050B0F1005F10D1D6F8400420F0B8
:1025E0002E00C6F840042046FFF7E9FD01212068CF
:1025F00008F0AAF94FF0005021684861206808F0FF
:10260000C5F900F08070B0F1807F02D1204604F05F
:10261000A9FB206808F0BAF900F00800082805D1E5
:10262000204600F0D3F8082021684861206808F0AF
:10263000ADF900F00070B0F1007F27D1206808F0FC
:1026400025F8074600251AE035E005F00F010120C6
:102650008840384090B106F5A06000EB4510006856
:1026600000F40040B0F5004F04D1E9B2204603F079
:1026700025FE03E0E9B2204604F0D8F86D1CA068FE
:10268000A842E2D84FF0007021684861206808F045
:102690007DF9C0F3001070B12068806920F010004F
:1026A00021688861204604F0CDFB2068806940F0F5
:1026B00010002168886100BF58E710B58AB0044651
:1026C00014B901200AB010BD94F8B90228B900204D
:1026D00084F8B802204600F023F8032084F8B902F9
:1026E000206807F0A5FD282204F110016846FDF7D7
:1026F000D6FF94E80F0007F03DFD0121206808F0A7
:1027000079F9282204F110016846FDF7C8FF94E822
:102710000F0008F0ABF8012084F8B9020020D1E7DF
:1027200010B588B004462068B0F1A04F34D14FF402
:10273000E0500390022004900020059003200690B2
:102740000A20079003A91548FFF712FC00BF1448A0
:10275000006840F08000124908600846006800F0F8
:102760008000029000BF00BF0D481030006840F4A8
:1027700080400B49103108600846006800F4804032
:10278000019000BF00BF00BF00220521432000F0E0
:1027900002FD432000F0F2FC08B010BD0000024032
:1027A0003438024010B50446D4F8BC0207F07DF975
:1027B00010BD10B50446D4F8BC0207F07AF910BD7C
:1027C00010B50446206808F0F7F810BD10B50446AF
:1027D000D4F8BC0207F0EEF810BD10B5044600BFF7
:1027E00094F8B802012801D1022010BD012084F81C
:1027F000B80200BF206807F06AFD0121206807F0D9
:1028000041FD00BF002084F8B80200BF00BFECE724
:1028100010B5044600BF94F8B802012801D1022087
:1028200010BD012084F8B80200BF206808F0FDF850
:1028300000BF002084F8B80200BF00BFF0E70246E6
:1028400092F8410020282DD100BF92F840000128C5
:1028500001D102207047012082F8400000BF2420EF
:1028600082F841001068006820F0010013681860C9
:102870001068006820F480501368186010680068C1
:102880000843136818601068006840F0010013687E
:102890001860202082F8410000BF002082F840002C
:1028A00000BFD7E70220D5E710B502460B4600214E
:1028B00092F8410020282AD100BF92F84000012858
:1028C00001D1022010BD012082F8400000BF242069
:1028D00082F841001068006820F001001468206050
:1028E0001068016821F4706141EA032110680160F9
:1028F0001068006840F0010014682060202082F811
:10290000410000BF002082F8400000BFDAE702204B
:10291000D8E7000010B504460CB9012010BD94F8AA
:10292000410028B9002084F84000204600F054F807
:10293000242084F841002068006820F0010021680C
:102940000860606820F07060216808612068806815
:1029500020F4004021688860E068012805D1A06863
:1029600040F400402168886004E0A06840F404401E
:1029700021688860E068022802D1800221684860EE
:102980002068406813490843216848602068C0688F
:1029900020F400402168C860D4E904010843A1691B
:1029A00040EA01202168C860D4E907010843216892
:1029B00008602068006840F001002168086000207D
:1029C0006064202084F841000020206384F84200E5
:1029D00000BFA3E70080000210B586B004461421B2
:1029E00001A8FDF796FE3249206888422CD100BF2D
:1029F0003048006840F002002E4908600846006830
:102A000000F00200009000BF00BF4FF44070019042
:102A100012200290012003900020049004200590D1
:102A200001A92548FFF7A4FA00BF2248103000682A
:102A300040F400101F49103108600846006800F497
:102A40000010009000BF30E01C49206888422CD163
:102A500000BF1848006840F080001649086008462A
:102A6000006800F08000009000BF00BF4FF4C0700D
:102A70000190122002900120039003200490042072
:102A8000059001A90E48FFF773FA00BF09481030FE
:102A9000006840F4000007491031086008460068EB
:102AA00000F40000009000BF00BF06B010BD0000A1
:102AB000005400403038024000040240005C0040F6
:102AC000001C024003480068034909780844014992
:102AD00008607047440000204C00002010B503201F
:102AE00000F098FB002000F005F800F013FB002038
:102AF00010BD000070B588B00446002500260022F5
:102B00002146362000F047FB362000F037FB00BF9F
:102B10001648006840F01000144908600846006834
:102B200000F01000019000BF00BF02A903A801F04F
:102B3000EBF901F011FA45000D48B5FBF0F0461E27
:102B40000C480D49086040F2E7310B48C16046600F
:102B500000210161816002F003FF20B9064802F004
:102B6000C0FF08B070BD0120FBE700004038024004
:102B700040420F00001000403008002070B50446AD
:102B80000E46154600BF94F8A000012801D102208E
:102B900070BD012084F8A00000BF022084F8A100CD
:102BA00005EB850101EBC50204F1380101EB820060
:102BB00034223146FDF773FD2A463146204604F0A3
:102BC000CFF901202168486284F8A10000BF0020ED
:102BD00084F8A00000BF00BFDAE710B50446204625
:102BE00000F064F90020C4F8A40084F8A10000BF3C
:102BF00084F8A00000BF10BD704710B504462068DF
:102C0000806B00F00400F0B12068806B00F00400DD
:102C1000C8B12068406B20F004002168486304209C
:102C20002168C863D4F8A40040F00100C4F8A400EF
:102C3000042084F8A10000BF002084F8A00000BF99
:102C40002046FFF7D9FF2068806B00F00200F0B14A
:102C50002068806B00F00200C8B12068406B20F053
:102C600002002168486302202168C863D4F8A400E8
:102C700040F00200C4F8A400042084F8A10000BFC2
:102C8000002084F8A00000BF2046FFF7B5FF2068B1
:102C9000806B00F00100B8B12068806B00F001008B
:102CA00090B12068406B20F001002168486301204A
:102CB0002168C86384F8A10000BF002084F8A00048
:102CC00000BF204600F0B4F82068806B00F00800D8
:102CD000C0B12068806B00F0080098B12068406B9C
:102CE00020F008002168486308202168C86301209B
:102CF00084F8A10000BF002084F8A00000BF204697
:102D000000F09EF910BD000070B5044600250026B5
:102D10000CB9012070BD94F8A10028B9002084F8F6
:102D2000A000204600F0F8F8022084F8A1002068F6
:102D3000806920F0704021688861D4E9010108436E
:102D4000E1680843216908432168896908432168CB
:102D50008861206880683549084021688860A08AB9
:102D6000050420688068A1692943084321688860B8
:102D70002068C0682D4908402168C860A08B050400
:102D80002068C068216A294308432168C860206818
:102D900000692649084021680861A08C0504206864
:102DA0000069A16A294308432168086120684069D5
:102DB0001E49084021684861A08D050420684069CB
:102DC000216B294308432168486194F835000502C6
:102DD00094F8360006042068C06A00F07F4021683D
:102DE000C86246EA050094F8341008432168C96AAD
:102DF00008432168C8622068406B40F004002168E5
:102E000048632068406B40F00200216848632068F6
:102E1000806940F00100216888610020C4F8A400A6
:102E2000012084F8A100002074E7000000F800F001
:102E300070B50546194800681949098888421AD1B1
:102E400018480188284600F0D7F800BF16490868DE
:102E500000BF90F85610491C80F8561000BF09F0CA
:102E6000EDFC00BF1048006804460AF0C3FD0020D6
:102E70000BF099FC11E00A480188284600F0BCF8E4
:102E800000200BF092FC00BF0748046800BF2068D8
:102E900081692046884700BF00BF70BD406801407F
:102EA00024000020260000206401002010B5044604
:102EB0001249206888421FD11148006820F08060C4
:102EC0000F49086010210F48FEF792FF4EF6FF7180
:102ED0000D48FEF78DFFF7210C48FEF789FF4FF4F0
:102EE00080510B48FEF784FF4FF446410948FEF736
:102EF0007FFF582000F034F910BD00000068014049
:102F000044380240001002400024024000280240E1
:102F1000001802400020024010B586B004462F4938
:102F20002068884258D100BF2D48006840F080607A
:102F30002B4908600846006800F08060009000BFE0
:102F400010200190022002900020039004900E2097
:102F5000059001A92348FFF70BF84EF6FF7001908A
:102F6000022002900020039004900E20059001A9F9
:102F70001D48FEF7FDFFF72001900220029000207F
:102F8000039004900E20059001A91848FEF7F0FF69
:102F90004FF4805001900220029000200390049092
:102FA0000920059001A91248FEF7E2FF4FF44640C0
:102FB0000190022002900020039004900E200590C2
:102FC00001A90C48FEF7D4FF00220521582000F08B
:102FD000E2F8582000F0D2F806B010BD00680140B9
:102FE0004438024000100240002402400028024001
:102FF0000018024000200240024600BF92F8A000E4
:10300000012801D102207047012082F8A00000BFF2
:10301000022082F8A1001068406B40F001001368A4
:10302000586306480160012082F8A10000BF00201B
:1030300082F8A00000BF00BFE5E700004068014043
:1030400070470000F0B503460C460025002600211D
:1030500000BF93F8A000012801D10220F0BD01209B
:1030600083F8A00000BF022083F8A10002EB8200D9
:1030700000EBC20703F1380000EB8700016909B9D2
:1030800004250EE0012901D103250AE0042905D019
:10309000022903D0032901D0072901D1022500E02C
:1030A000012504FB05F0060418688430802707FB1F
:1030B0000200C06A154F38401F6884374FF0800CFB
:1030C0000CFB0277F8621248006840F00100104FD4
:1030D000386018688430802707FB0200C06A3043DC
:1030E0001F6884370CFB0277F8620948006840F0DB
:1030F0000100074F3860012083F8A10000BF0020C5
:1031000083F8A00000BF00BFA8E70000FFFF00E0B9
:103110002468014008B500BF1048006840F08050A6
:103120000E4908600846006800F08050009000BF1B
:1031300000BF00BF081D006840F48040091D086002
:103140000846006800F48040009000BF00BF0022E5
:103150000F21901E00F01FF808BD0000403802400B
:1031600000BF00F01F0201219140034A430942F8C9
:10317000231000BF7047000080E100E000BF00F0B6
:103180001F02012191404209920002F1E022C2F89F
:10319000001100BF70472DE9F05F80460D461646CE
:1031A000002704F01DF8074639462A46334601F049
:1031B0000700C0F1070ABAF1040F02D94FF0040A60
:1031C00001E0C0F1070AD14600F1040ABAF1070F85
:1031D00002D24FF0000A01E0A0F1030AD4464FF0FA
:1031E000010A0AFA09FAAAF1010A0AEA020A0AFA23
:1031F0000CFA4FF0010B0BFA0CFBABF1010B0BEAD5
:10320000030B4AEA0B042146404603F0F1FFBDE8F8
:10321000F09F000000BF00F00702064B19684FF650
:10322000FF031940044B0B4343EA0221014B196091
:1032300000BF70470CED00E00000FA0538B500242F
:1032400000BF2048006840F080501E4908600846D2
:10325000006800F08050009000BF00BF1A4800686E
:1032600040F4803018490860FEF79CFF044607E0F0
:10327000FEF798FF001BB0F57A7F01D9032038BD17
:103280001148406800F48030B0F5803FF0D10E481E
:10329000006840F400300C490860FEF783FF0446E4
:1032A00007E0FEF77FFF001BB0F57A7F01D903200E
:1032B000E5E70548406800F40030B0F5003FF0D184
:1032C0000020DCE7403802400070004003480068FE
:1032D00040F48070014908607047000000700040B1
:1032E000F8B504460125FEF75DFF06460CB901203E
:1032F000F8BD206A402800D000BF00BF94F840000D
:10330000012801D10220F3E7012084F8400000BF2A
:1033100094F8410050B9002084F84000204600F0A5
:103320004BF841F28831204600F0CEF82068006862
:1033300020F4F851A068401E41EA0020216808608E
:10334000A06C3346002220210090204603F06CFF41
:10335000054635BB2179E06840EA0160E169084330
:10336000216A084321680968114A1140084321680D
:103370000860208A616941EA0040A1690843216828
:1033800049680C4A11400843216848602068006879
:1033900040F001002168086000206064012084F88A
:1033A000410000BF002084F8400000BF28469FE78E
:1033B0002FFFFF00FEF8E0FF10B586B00446142191
:1033C00001A8FDF7A6F93B492068884270D100BFEB
:1033D0003948006840F00200374908600846006834
:1033E00000F00200009000BF00BF00BF3248083864
:1033F000006840F01000304908390860084600684D
:1034000000F01000009000BF00BF00BF0846006839
:1034100040F0020008600846006800F002000090DA
:1034200000BF00BF00BF0846006840F00800086009
:103430000846006800F00800009000BF00BF0420AC
:1034400001900220029000200390032004900920A4
:10345000059001A91948FEF78BFD4020019002203C
:10346000029000200390032004900A20059001A9F7
:103470001348FEF77DFD04200190022002900020F9
:103480000390032004900920059001A90C48FEF741
:103490006FFD4FF4605001900220029000200390D5
:1034A000032004900920059001A90648FEF760FD5D
:1034B00006B010BD001000A03838024000100240D5
:1034C00000040240000C02408164704770B504465D
:1034D0000021002000220023B4F5002F67D16A4D9F
:1034E0002B6803F4401333B1B3F5801F2FD0B3F52D
:1034F000001F5AD157E0644D883D2D6805F48005C2
:1035000045B9614D883D2D6805F03F055F4EB6FB1E
:10351000F5F207E05C4D883D2D6805F03F055C4EF7
:10352000B6FBF5F2584D2D1F2D68C5F30361564DBE
:103530002D1F2D68C5F388155543B5FBF1F0524D8D
:103540002D68C5F30425691CB0FBF1F02EE04E4D4B
:10355000883D2D6805F4800545B94B4D883D2D68A3
:1035600005F03F05494EB6FBF5F207E0464D883DB4
:103570002D6805F03F05464EB6FBF5F2424D083D7D
:103580002D68C5F30361404D083D2D68C5F38815CE
:103590005543B5FBF1F03C4D2D6805F01F05691C46
:1035A000B0FBF1F002E03B4800E000BF00BFB4F523
:1035B000801F67D1344D2B6803F4400333B1B3F55A
:1035C000800F2FD0B3F5000F5AD157E02E4D883D14
:1035D0002D6805F4800545B92B4D883D2D6805F013
:1035E0003F052A4EB6FBF5F207E0274D883D2D68D2
:1035F00005F03F05264EB6FBF5F2234D2D1F2D6835
:10360000C5F30361204D2D1F2D68C5F38815554363
:10361000B5FBF1F01C4D2D68C5F30425691CB0FB0A
:10362000F1F02EE0184D883D2D6805F4800545B970
:10363000154D883D2D6805F03F05144EB6FBF5F29B
:1036400007E0114D883D2D6805F03F05104EB6FB93
:10365000F5F20D4D083D2D68C5F303610A4D083D97
:103660002D68C5F388155543B5FBF1F0064D2D685F
:1036700005F01F05691CB0FBF1F002E0054800E011
:1036800000BF00BF70BD00008C3802400024F40071
:1036900040787D010080BB002DE9F84304460026F8
:1036A00000250027A846A946207800F0010088B12F
:1036B00000BFFE48006820F40000FC49086008468E
:1036C0000068616B0843F949086000BF606B08B986
:1036D0004FF00108206800F40020B0F5002F13D14E
:1036E000F2488430006820F44010E16B0843EF4951
:1036F00084310860E06BB0F5801F01D14FF0010804
:10370000E06B08B94FF00109206800F48010B0F5B3
:10371000801F13D1E5488430006820F44000216CFC
:103720000843E24984310860206CB0F5800F01D174
:103730004FF00108206C08B94FF00109206800F033
:103740008070B0F1807F01D14FF00108207800F047
:103750002000202870D100BFD4483830006840F0E5
:103760008050D249383108600846006800F0805027
:10377000009000BF00BFCE48006840F48070CC4984
:103780000860FEF70FFD064607E0FEF70BFD801B05
:10379000642802D90320BDE8F883C548006800F416
:1037A00080700028F1D0C1486830006800F440758E
:1037B00085B3208E00F44070A8422BD0BB486830FF
:1037C000006820F44075B9486830006840F48030E3
:1037D000B649683108600846006820F48030086007
:1037E00008460560006800F0010098B1FEF7DAFCB9
:1037F000064608E0FEF7D6FC801B41F2883188427D
:1038000001D90320C7E7A94868300068C0F3400029
:103810000028EFD000BF208E00F44070B0F5407F4C
:103820000BD1A248006820F4F810A24A216B114085
:1038300008439E49086006E010E09C48006820F4B8
:10384000F8109A490860994868300068218EC1F3E1
:103850000B01084395496831086000BF207800F0EB
:103860001000102810D100BF90488430006820F06C
:1038700080708E498431086008460068A16B084357
:103880008A498431086000BF208800F48040B0F588
:10389000804F09D185488830006820F44030616E3F
:1038A0000843824988310860208800F40040B0F560
:1038B000004F09D17D488830006820F44020A16E77
:1038C00008437A4988310860206800F48030B0F5F8
:1038D000803F09D175488830006820F44010E16EBF
:1038E0000843724988310860206800F40030B0F560
:1038F000003F09D16D488830006820F44000216FF6
:1039000008436A4988310860207800F04000402868
:1039100009D166488830006820F00300616C0843D4
:10392000624988310860207800F08000802809D141
:103930005E488830006820F00C00A16C08435B49A9
:1039400088310860208800F48070B0F5807F09D14C
:1039500056488830006820F03000E16C0843534935
:1039600088310860208800F40070B0F5007F09D12C
:103970004E488830006820F0C000216D08434B4954
:1039800088310860208800F48060B0F5806F09D12C
:1039900046488830006820F44070616D0843434910
:1039A00088310860208800F40060B0F5006F09D10C
:1039B0003E488830006820F44060A16D08433B49D0
:1039C00088310860208800F48050B0F5805F09D10C
:1039D00036488830006820F44050E16D0843334990
:1039E00088310860208800F40050B0F5005F09D1EC
:1039F0002E488830006820F44040216E08432B494F
:103A000088310860206800F48000B0F5800F09D18B
:103A100026488830006820F08060A16F0843234961
:103A200088310860206800F40010B0F5001F0FD145
:103A30001E488830006820F00060E16F08431B4991
:103A400088310860E06FB0F1006F01D14FF00109DB
:103A5000207800F00800082801D14FF00109206803
:103A600000F48020B0F5802F09D11048883000681C
:103A700020F04070616F08430C498831086020686D
:103A800000F40000B0F5000F0AD108488830006843
:103A900020F08050D4F88010084304498831086031
:103AA000B8F1010F0BD0206806E000000838024092
:103AB00000700040FFFCFF0FB0F1007F7DD1AD48EA
:103AC000006820F08060AB490860FEF76BFB06469B
:103AD00006E0FEF767FB801B642801D903205AE645
:103AE000A4480068C0F3C0600028F2D1207800F03C
:103AF0000100B8B1606BA8B99E4884300068C0F37B
:103B000001459C4884300068C0F303676068800109
:103B100040EA054040EA0761207A41EA0070954991
:103B200084310860206800F40020B0F5002F03D134
:103B3000E06BB0F5801F09D0206800F48010B0F56C
:103B4000801F24D1206CB0F5800F20D189488430AB
:103B50000068C0F30145874884300068C0F30277ED
:103B60006068800140EA0541207B41EA006040EA4C
:103B700007708049843108607E488C30006820F0EE
:103B80001F00616A491E08437A498C310860206829
:103B900000F08070B0F1807F17D1764884300068E3
:103BA000C0F30365734884300068C0F3027760682F
:103BB0008101208A41EA004000E031E040EA0560EE
:103BC00040EA07706B4984310860206800F000709B
:103BD000B0F1007F0DD160688101208A41EA004187
:103BE000207B41EA0061207A41EA0070614984311A
:103BF00008606048006840F080605E490860FEF739
:103C0000D1FA064606E0FEF7CDFA801B642801D9FA
:103C10000320C0E557480068C0F3C0600028F2D018
:103C2000B9F1010F7ED15348006820F0805051490E
:103C30000860FEF7B7FA064606E0FEF7B3FA801B07
:103C4000642801D90320A6E54A480068C0F3407003
:103C50000028F2D1206800F40020B0F5002F01D137
:103C6000E06B38B1206800F48010B0F5801F22D1DD
:103C7000206C00BB3F4888300068C0F301453D48D8
:103C800088300068C0F302776069800140EA05412E
:103C9000207E41EA006040EA0770364988310860BA
:103CA000081D006820F4F851A06A401E41EA002077
:103CB00030498C310860206800F40010B0F5001F16
:103CC00019D1E06FB0F1006F15D12A488830006833
:103CD000C0F30365274888300068C0F30277606945
:103CE0008101208C41EA004040EA056040EA07700B
:103CF000204988310860207800F00800082820D189
:103D00001C4888300068C0F303651A488830006892
:103D1000C0F301476069800140EA074040EA05615D
:103D2000207F00E024E041EA0070124988310860F9
:103D3000081D006820F44030E16A08430D498C31C9
:103D400008600C48006840F080500A490860FEF79F
:103D500029FA064606E0FEF725FA801B642801D9F9
:103D6000032018E503480068C0F340700028F2D033
:103D7000002010E50038024070B504460D460026CC
:103D80000CB9012070BD5C48006800F00F00A8422B
:103D90000ED25948006820F00F00284356490860A9
:103DA0000846006800F00F00A84201D00120E9E7B2
:103DB000207800F0020002281DD1207800F00400D5
:103DC000042805D14D48006840F4E0504B49086094
:103DD000207800F00800082805D14848006840F421
:103DE0006040464908604548006820F0F000A1683E
:103DF000084342490860207800F0010090B36068F1
:103E0000012807D13D4808380068C0F34040A0B9F8
:103E10000120B7E76068022807D1384808380068F1
:103E2000C0F3406048B90120ACE734480838006866
:103E3000C0F3400008B90120A4E73048006820F032
:103E40000300616808432D490860FEF7ABF9064698
:103E500009E0FEF7A7F9801B41F28831884202D9B8
:103E600003208FE707E02548006800F00C00616838
:103E7000B0EB810FEDD12048006800F00F00A842A0
:103E80000ED91D48006820F00F0028431A49086029
:103E90000846006800F00F00A84201D0012071E739
:103EA000207800F00400042807D11448006820F4AA
:103EB000E050E168084311490860207800F00800EC
:103EC000082808D10D48006820F46040216940EAC4
:103ED000C1000A49086000F05FF808490968C1F3A9
:103EE0000311074A515CC840064908600020FEF7EC
:103EF00001FE002046E70000003C02400838024076
:103F000068380108500000200F2202600D4A126834
:103F100002F0030242600B4A126802F0F002826073
:103F2000084A126802F4E052C260064A126802F4BB
:103F30006042D2080261044A126802F00F020A606D
:103F40007047000008380240003C02400148006809
:103F5000704700005000002000B5FFF7F7FF04494C
:103F60000968C1F38221034A515CC84000BD0000CA
:103F7000083802407838010800B5FFF7E7FF044928
:103F80000968C1F34231034A515CC84000BD0000DA
:103F900008380240783801082DE9F0470024002550
:103FA0000026A1462548006800F00C0020B1042836
:103FB00005D008283AD105E0DFF8849039E0DFF831
:103FC000849036E01D48001F006800F03F041B4845
:103FD000001F006800F4800078B11A481749091FD3
:103FE0000968C1F38811A0FB017001462246002335
:103FF0003846FCF735FA05460EE011480F49091F0F
:104000000968C1F38811A0FB017001462246002314
:104010003846FCF725FA05460848001F0068C0F33B
:104020000140401C4600B5FBF6F902E0DFF81090B5
:1040300000BF00BF4846BDE8F087000008380240D6
:104040000024F40040787D01F8B5044600260CB940
:104050000120F8BD207800F00100002871D0F84858
:10406000006800F00C0004280DD0F548006800F04E
:104070000C00082813D1F248001F006800F48000EB
:10408000B0F5800F0BD1EE4808380068C0F340400F
:10409000002869D06068002866D10120D9E700BFF8
:1040A0006068B0F5803F08D1E5480838006840F402
:1040B0008030E349083908602EE0606868B9E0485C
:1040C0000838006820F48030DD4908390860084667
:1040D000006820F4802008601EE06068B0F5A02F22
:1040E0000DD1D7480838006840F48020D4490839F9
:1040F00008600846006840F4803008600CE0D04852
:104100000838006820F48030CD4908390860084636
:10411000006820F48020086000BF606890B1FEF75E
:1041200041F8054606E0FEF73DF8401B642801D93A
:1041300003208EE7C24808380068C0F340400028DA
:10414000F1D011E0FEF72EF8054606E0FEF72AF85A
:10415000401B642801D903207BE7B9480838006870
:10416000C0F340400028F1D1207800F0020002287E
:1041700069D1B348006800F00C0058B1B04800683D
:1041800000F00C0008281CD1AD48001F006800F4A6
:104190008000B0B9AA4808380068C0F3400020B1D8
:1041A000E068012801D0012053E7A54808380068DD
:1041B00020F0F800216940EAC100A14908390860EF
:1041C00041E0E06828B39E480838006840F00100EC
:1041D0009B4908390860FDF7E5FF054606E0FDF755
:1041E000E1FF401B022801D9032032E79448083838
:1041F0000068C0F340000028F1D0914808380068FA
:1042000020F0F800216940EAC1008D4908390860B2
:1042100019E08B480838006820F001008849083907
:104220000860FDF7BFFF054606E0FDF7BBFF401B3A
:10423000022801D903200CE7814808380068C0F340
:1042400040000028F1D1207800F00800082836D17D
:104250006069D0B17A486C30006840F0010078495C
:104260006C310860FDF79EFF054606E0FDF79AFFFA
:10427000401B022801D90320EBE671486C3000682E
:10428000C0F340000028F1D019E06D486C300068A0
:1042900020F001006A496C310860FDF783FF054694
:1042A00006E0FDF77FFF401B022801D90320D0E67E
:1042B00063486C300068C0F340000028F1D12078DA
:1042C00000F00400042874D15D483830006800F024
:1042D000805080B900BF5A483830006840F08050A4
:1042E0005749383108600846006800F08050009057
:1042F00000BF00BF01265348006800F48070B0B9C9
:104300005048006840F480704E490860FDF74AFF4D
:10431000054606E0FDF746FF401B642801D903204F
:1043200097E64848006800F480700028F2D000BF8B
:10433000A068012808D142486830006840F00100B8
:104340003F49683108602DE0A06868B93C48683092
:10435000006820F001003A496831086008460068AA
:1043600020F0040008601DE0A06805280DD1344845
:104370006830006840F00400314968310860084640
:10438000006840F0010008600CE02D4868300068CB
:1043900020F001002A49683108600846006820F0D2
:1043A0000400086000BFA068A8B1FDF7FBFE054649
:1043B00009E02EE0FDF7F6FE401B41F2883188420D
:1043C00001D9032045E61E4868300068C0F340006C
:1043D0000028EFD013E0FDF7E5FE054608E0FDF705
:1043E000E1FE401B41F28831884201D9032030E6CA
:1043F000134868300068C0F340000028EFD1012E58
:1044000007D10F483830006820F080500C4938310F
:104410000860A069E8B30A48006800F00C000828AA
:1044200066D0A06902284BD105480838006820F002
:104430008070034908390860FDF7B4FE05460AE0BC
:104440000838024000700040FDF7ACFE401B022817
:1044500001D90320FDE528480068C0F3406000282A
:10446000F2D1E06940F00050216A0843616A40EAF5
:1044700081110122A06AC2EB500041EA00412C20C8
:10448000005D41EA00601C49091D0860081F0068C2
:1044900000E02FE040F08070091F0860FDF782FE09
:1044A000054606E0FDF77EFE401B022801D90320E9
:1044B000CFE511480068C0F340600028F2D019E051
:1044C0000D48006820F080700B490860FDF76AFE17
:1044D000054606E0FDF766FE401B022801D90320D1
:1044E000B7E505480068C0F340600028F2D101E05C
:1044F0000120AEE50020ACE500380240704710B561
:10450000044620684068C0F3401020B92068406825
:10451000C0F3801040B1042060722046FFF7EEFF28
:104520006FF06000216848602068406800F001007A
:1045300088B12068006820F00800216808602068C1
:1045400080686060607A042805D00120607220468F
:10455000616800F03BF810BD10B504460CB90120AD
:1045600010BD607A20B900202072204600F00CF8BF
:10457000022060722068006840F004002168086032
:10458000012060720020EBE738B504460D49206831
:10459000884215D100BF0C48006840F040000A492D
:1045A00008600846006800F04000009000BF00BFAF
:1045B000002205215020FEF7EEFD5020FEF7DEFD23
:1045C00038BD00000008065034380240704730B54E
:1045D0000346002400BF187F012801D1022030BD0E
:1045E0000120187700BF022058771868806840F6CD
:1045F000080520EA05040C4300BFCA201D68686254
:1046000053201D68686200BF1868C06C20F0060067
:104610001D68E8641868C06C10431D68E864186879
:1046200084601868806840F400601D68A86000BF5E
:10463000FF201D68686200BF0120587700BF00207E
:10464000187700BF00BFCAE710B504460CB90120B7
:1046500010BD607F20B900202077204600F04EF882
:104660000220607700BFCA20216848625320216879
:10467000486200BF204602F01DFE40B100BFFF208F
:104680002168486200BF042060770120E0E72068CD
:10469000806819490840216888602169606808437A
:1046A0006169084321688968084321688860216836
:1046B000E068086120680169208941EA00402168BA
:1046C00008612068C06820F080002168C860206808
:1046D000C06C20F008002168C8642068C06CA16923
:1046E00008432168C86400BFFF202168486200BFFA
:1046F000012060770020ABE7BFFF8FFF054A01680C
:10470000914205D10449096841F40041024A11600F
:104710007047000000280040703802402DE9F04743
:1047200004460D4616460027B846B94600BF207F0E
:10473000012802D10220BDE8F0870120207700BFC8
:104740000220607746BB2068806800F0400000B11E
:1047500002E00020287300BF286A00B900E000BF13
:10476000287802F09AFD0304687802F096FD43EA87
:104770000023A87802F091FD0343287B43EA00431D
:1047800095F8240002F089FD43EA0060296A084395
:10479000A96940EA01082DE02068806800F0400027
:1047A00020B1287802F06EFD804602E000202873D8
:1047B00000BF286A28B995F8240002F063FD8046FE
:1047C00005E095F8240002F05DFD804600BF2878E2
:1047D0000004697840EA0120A9780843297B40EA6F
:1047E000014095F8241040EA0160296A0843A9694C
:1047F00040EA0108E969686840EA010900BFCA2087
:104800002168486253202168486200BFA86AB0F559
:10481000807F35D12068806820F4807021688860AE
:104820002068806820F4805021688860FDF7BAFC19
:10483000074612E0FDF7B6FCC01BB0F57A7F0CD935
:1048400000BFFF202168486200BF0320607700BFDF
:104850000020207700BF03206DE72068C06800F0CB
:1048600001000028E6D02068C0F81C802068C0F84D
:1048700044902068806840F480702168886034E04B
:104880002068806820F40070216888602068806853
:1048900020F4005021688860FDF784FC074612E090
:1048A000FDF780FCC01BB0F57A7F0CD900BFFF205C
:1048B0002168486200BF0320607700BF0020207796
:1048C00000BF032037E72068C068C0F3400000281D
:1048D000E6D02068C0F820802068C0F848902068A2
:1048E000806840F400702168886000BFFF20216864
:1048F000486200BF0120607700BF0020207700BF22
:1049000000BF18E72DE9F04104460D461646002782
:1049100000BF207F012802D10220BDE8F0810120E4
:10492000207700BF022060774EB9687800F0100051
:10493000102804D1687800F0EF000A30687086B95A
:10494000E87802F0AAFC0304687802F0A6FC43EAC7
:104950000023A87802F0A1FC0343287843EA4037FB
:1049600009E0E8780004697840EA0120A978084362
:10497000297840EA413700BFCA20216848625320A5
:104980002168486200BF204602F094FC60B100BF7D
:10499000FF202168486200BF0420607700BF00202C
:1049A000207700BF0120B8E71648384021684860EA
:1049B0002068C06820F080002168C8602068806896
:1049C00000F0200080B9204600F0B8F860B100BFC8
:1049D000FF202168486200BF0420607700BF0020EC
:1049E000207700BF012098E700BFFF2021684862C0
:1049F00000BF0120607700BF0020207700BF00BF0C
:104A00008BE700003FFFFF002DE9F04104460D4613
:104A10001646002700BF207F012802D10220BDE8F2
:104A2000F0810120207700BF02206077CEB9206896
:104A3000806800F0400000B102E00020287300BF51
:104A4000287802F02AFC0304687802F026FC43EA86
:104A50000023A87802F021FC0343287B43EA0047A7
:104A600016E02068806800F0400020B1287802F04D
:104A700009FC074602E00020287300BF28780004E4
:104A8000697840EA0120A9780843297B40EA014778
:104A900000BFCA202168486253202168486200BFD5
:104AA000204602F007FC60B100BFFF202168486289
:104AB00000BF0420607700BF0020207700BF0120E6
:104AC000ADE71D483840216808602068806820F400
:104AD000802021688860D5E904010843216889683D
:104AE0000843216888602068C06820F08000216841
:104AF000C8602068806800F0200080B9204600F07F
:104B00001DF860B100BFFF202168486200BF04208B
:104B1000607700BF0020207700BF01207FE700BF43
:104B2000FF202168486200BF0120607700BF00209D
:104B3000207700BF00BF72E77F7F7F0070B504461B
:104B400000252068C06820F0A0002168C860FDF73B
:104B500029FB054607E0FDF725FB401BB0F57A7FF2
:104B600001D9032070BD2068C06800F02000002833
:104B7000F1D00020F6E700002DE9F04704460025BB
:104B80000027A84614B90120BDE8F08794F87D00FD
:104B900028B9002084F87C00204600F0FBF80220B1
:104BA00084F87D00204602F0A5FBE06820B10128D2
:104BB00004D0022806D103E0002504E0102502E01D
:104BC000202500E000BF00BFA06830B1012807D059
:104BD000022808D003280ED108E04FF000080BE0AF
:104BE0004FF4806808E04FF4006805E04FF4006877
:104BF00045F0010500E000BF00BF6249206888421F
:104C000004D0604920312068884203D15D48001FEC
:104C1000056001E05C480560E06998B34FF0000969
:104C200058492068884204D056492031206888427B
:104C300004D14FF40020FEF749FC81465249091D7A
:104C40002068884204D0504924312068884204D129
:104C50004FF48010FEF73AFC814609EB89004100D1
:104C6000E0694002B1FBF0F60A20B6FBF0F12162E8
:104C7000B6FBF0F100FB1160082802D9206A401C45
:104C8000206200BF606810B16068022808D1E06B44
:104C9000012801D1002001E04FF40070074606E032
:104CA000E06B012801D1400200E0002007462068A7
:104CB00000683649084021680860216B6068084335
:104CC000616B0843A16B0843384340EA0800616AFE
:104CD00008432169084361690843218C40EA015077
:104CE00021680968084321680860206840684EF21E
:104CF0000F01884321684860A16AA0690843E16AFE
:104D00000843216849680843216848602068806832
:104D10001F49084021688860206C401E216D0843AF
:104D2000A16C0843E16C0843616C491E40EA012014
:104D3000216889680843216888602068C0684FF24C
:104D4000200108402168C860D4E9150108436021AA
:104D5000095B40EA0141E06D401E41EA0020216804
:104D6000C96808432168C8600020C4F88000012099
:104D700084F87D0000BF002084F87C0000BF00BFE5
:104D800002E7000004580140005C014010C005FF2C
:104D90000080F8FF10B586B0044629492068884293
:104DA00022D12848006868B900BF2748006840F44D
:104DB0000000254908600846006800F400000090E3
:104DC00000BF00BF1F480068401C1E490860F0205B
:104DD0000190022002900020039004900A20059088
:104DE00001A91A48FDF7C4F8154920312068884206
:104DF00023D11448006868B900BF1348006840F424
:104E00000000114908600846006800F400000090A6
:104E100000BF00BF0B480068401C0A4908604FF4FF
:104E200080600190022002900020039004900A20EC
:104E3000059001A90648FDF79BF806B010BD0000DB
:104E4000045C01400C000020443802400020024075
:104E50000018024070B504460D460CB9012070BD23
:104E600094F82C0028B9002084F82D00204600F08A
:104E700011F8022084F82C00211D2068FCF710F99D
:104E80002946D4E90002FCF75FF9012084F82C00E0
:104E90000020E4E710B5044606F0E2FB10BD70B553
:104EA00004460D4694F82C00022800D170BD022063
:104EB00084F82C0029462068FCF72CF9012084F89E
:104EC0002C000020F2E770B504460D46164694F813
:104ED0002C00022800D170BD022084F82C0032463C
:104EE00029462068FCF71DF92868022803D105200F
:104EF00084F82C0002E0012084F82C000020EAE76E
:104F000070B58AB004460D460026032084F83400AC
:104F1000606C032820D0B5F5805F04D1A06B40F011
:104F20008050A0631CE0B5F5006F07D1204603F068
:104F300069F80646A06B3043A06311E03DB92046F6
:104F400003F02BF80646A06B3043A06308E0A06B8B
:104F500040F00060A06303E0A06B40F08050A063CD
:104F6000A06B40B140F2FF5021688863012084F8B3
:104F700034000AB070BD60680490A0680590E068D5
:104F80000690079560690890A069099007A807C86E
:104F90008DE80700206804A90EC902F0AFFD0120CA
:104FA00084F834000020E4E7704730B5034600225F
:104FB000586E020E90090870C2F38300487002F028
:104FC00003008870586EC0F30742CA70B3F86400DB
:104FD000C0F307220A7193F864204A71986E020E9A
:104FE0004FF6FF7000EA0210C880986EC0F30742C7
:104FF000C88840EA1210C88002F00F0008726820CA
:10500000C05AC0F30722D0094872C2F380108872D8
:10501000C2F34010C872C2F3001008730020487336
:10502000586C00283ED19007000D08616820C25CD2
:10503000086940EA82000861D86E020E086940EAF9
:1050400092100861C2F3C200087502F007004875AB
:10505000D86EC0F3074250098875C2F38200C87544
:105060009007400F08766C20C05AC0F30722087ED4
:1050700040EAD21008760869401C58650C7E586DCD
:10508000A41C0125A540684358650C7A0120A04066
:105090009865D3E91504640A6043D8654FF4007439
:1050A0001C6630E0586C012821D16820C25C900653
:1050B000800A0861D86E020E086940EA0220086181
:1050C000D86EC0F307420869104308616C20C05ACB
:1050D000C0F307220869441C4FF48060A4FB00045D
:1050E0005865D8654FF400749C651C660BE040F26F
:1050F000FF501C68A063986B40F0805098630120BB
:1051000083F8340030BDC2F3801001F8190F900607
:10511000400E48706C20C25C487840EAD21048705B
:1051200002F07F008870186F020ED009C870C2F3B9
:1051300041100871C2F3820048719007000F887116
:10514000186FC0F30742887940EA92108871C2F361
:105150004010C8710020087202F0010048727020EF
:10516000C05AC0F30722D0098872C2F38010C872F7
:10517000C2F340100873C2F300104873C2F38100F9
:10518000887302F00300C8737020C25C5008087472
:105190000120487419390020B4E70246506C0860B9
:1051A000906C4860D06C8860106DC860506D08616C
:1051B000906D4861D06D8861106EC86100207047A5
:1051C000F8B50446042600250020009069462046D4
:1051D00002F0CAFE054615B1A06B2843A0630098F3
:1051E000C0F343263046F8BD10B504460CB9012083
:1051F00010BD94F8340020B900202077204600F03C
:1052000053F8032084F83400204600F008F800200A
:10521000A0632063012084F834000020E8E730B563
:1052200089B0044600250020039004900590069064
:1052300007907620089006A807C88DE80700206828
:1052400003A90EC902F05AFC2068406820F480705F
:1052500021684860206802F06BFC2068406840F4D8
:105260008070216848600220FCF7AEFD204602F005
:1052700004FE054645B1012084F83400A06B2843A4
:10528000A063012009B030BD204602F078FD05463C
:105290003DB1012084F83400A06B2843A0630120B5
:1052A000F0E70020EEE7000010B586B004461421B8
:1052B00001A8FBF72EFA27492068884247D100BF92
:1052C0002548006840F400602349086008460068EB
:1052D00000F40060009000BF00BF00BF1E481438FB
:1052E000006840F004001C49143908600846006852
:1052F00000F00400009000BF00BF00BF0846006837
:1053000040F0080008600846006800F008000090BF
:1053100000BF00BF4FF4F85001900220029000201F
:105320000390032004900C20059001A90B48FCF782
:105330001FFE042001900220029000200390032011
:1053400004900C20059001A90548FCF711FE06B059
:1053500010BD0000002C014044380240000802400B
:10536000000C02402DE9F04186B0044688461646FE
:105370001D460027B8F1000F07D1A06B40F0006078
:10538000A063012006B0BDE8F08194F83400012844
:1053900076D10020A0637119E06D814205D9A06B20
:1053A00040F00070A0630120ECE7032084F8340093
:1053B00000202168C8622068C06B40F495702168A5
:1053C000C8633048E16BC8632F48E16BC8640020B4
:1053D000E16B08656A029308226802F18001424687
:1053E000E06BFCF7A1FC2068C06A40F0080021686F
:1053F000C862606C012800D076024FF0FF30009048
:1054000068020190902002900220039000200490F6
:10541000012005906946206802F07AF94FF4007186
:10542000206801F0CDFF074657B140F2FF502168D8
:105430008863A06B3843A063012084F83400A1E79F
:10544000012D07D9822020633146206802F024F81C
:10545000074606E0812020633146206802F039F8D3
:1054600007465FB140F2FF5021688863A06B384364
:10547000A063012084F8340084E701E0002081E784
:1054800002207FE7FB7B0008957B000810B50446EF
:10549000FBF716FC10BD00002DE9F04186B0044674
:1054A000884616461D460027B8F1000F07D1A06BAD
:1054B00040F00060A063012006B0BDE8F08194F8E0
:1054C0003400012875D10020A0637119E06D81427C
:1054D00005D9A06B40F00070A0630120ECE7032029
:1054E00084F8340000202168C8622068C06B40F056
:1054F0001A002168C8633048216CC8632F48216CAA
:10550000C8640020216C0865606C012800D0760218
:105510004FF40071206801F053FF074657B140F285
:10552000FF5021688863A06B3843A063012084F892
:105530003400C1E7012D07D9A0202063314620683F
:1055400002F0ACF8074606E0902020633146206860
:1055500002F0C1F8074657B140F2FF502168886356
:10556000A06B3843A063012084F83400A4E72068CE
:10557000C06A40F008002168C86269028B0821688F
:1055800001F180024146206CFCF7CEFB4FF0FF306A
:1055900000906802019090200290002003900490F7
:1055A000012005906946206802F0B2F8002083E7E8
:1055B000FFE7022080E70000417C0008957B00089F
:1055C00070B5044600250CB9012070BD94F8450063
:1055D00028B9002084F84400204600F02DF802206D
:1055E00084F845002068006820F003002168086006
:1055F000206805680F480540208B80B26168084329
:10560000A1680843E16808432169084361690843C8
:10561000E1690843216A0843616A0843A16A0843B3
:105620000543206805600020A064012084F845003F
:105630000020CAE70784F8FF10B586B0044614219D
:1056400001A8FBF766F82068B0F1402F2AD100BF0F
:105650001548006840F48030134908600846006827
:1056600000F48030009000BF00BF00BF0E4810382B
:10567000006840F008000C491039086008460068CE
:1056800000F00800009000BF00BF802001900220C1
:1056900002900020039004900820059001A903487F
:1056A000FCF766FC06B010BD40380240000C02401A
:1056B00070B504460CB9012070BD606A00B900BF26
:1056C0000021A16294F85D0028B9002084F85C00F4
:1056D000204600F053F8022084F85D00206800683E
:1056E00020F0400021680860E068B0F5E06F01D963
:1056F000002501E04FF48055E068B0F5706F05D0EB
:10570000E068B0F5E06F01D00021A162206B40B9E4
:10571000E068B0F5E06F02D90221216301E00121C8
:105720002163D4E901010843216908436169084301
:10573000218B01F400710843E1690843216A0843A1
:10574000A16A0843216808600421A06901EA1040A9
:10575000616A0843616B0843E16808432843216894
:1057600048602068C06920F400602168C86100209A
:105770002066012084F85D0000209DE710B586B00A
:105780000446142101A8FAF7C4FF2549206888427D
:1057900044D100BF2348006840F48040214908609C
:1057A0000846006800F48040009000BF00BF00BFC2
:1057B0001C481038006840F480701A49103908609D
:1057C0000846006800F48070009000BF00BF00BF72
:1057D0000846006840F0020008600846006800F0D3
:1057E0000200009000BF00BF022001900290002044
:1057F000039004900520059001A90B48FCF7B8FB25
:105800004FF4404001900220029000200390049049
:105810000520059001A90548FCF7AAFB06B010BDBC
:10582000003800404038024000200240000402409E
:105830007047704710B50346002200BF93F83C0044
:10584000012801D1022010BD012083F83C0000BFD7
:1058500022F0FF00CC6840EA040222F440708C6819
:1058600040EA040222F480604C6840EA040222F418
:1058700000600C6840EA040222F480500C6940EA9F
:10588000040222F400504C6940EA040222F48040F1
:105890008C6A40EA040222F400408C6A40EA040266
:1058A00022F470200C8B40EA0442104C1868A0428D
:1058B00003D00F4C1868A0420ED122F470008C8CDB
:1058C00040EA045222F08070CC6940EA040222F0DF
:1058D00000700C6A40EA04021868426400BF0020AD
:1058E00083F83C0000BF00BFADE7000000000140AE
:1058F0000004014030B502460B4600BF92F83C0060
:10590000012801D1022030BD012082F83C0000BFF7
:1059100010684168106884680F4D1068A84203D071
:105920000E4D1068A84203D121F47001586801435C
:1059300021F070011868014324F080049868044342
:10594000106841601068846000BF002082F83C004D
:1059500000BF00BFD7E70000000001400004014085
:1059600010B504460CB9012010BD94F83D0028B9CB
:10597000002084F83C00204600F00CF8022084F857
:105980003D00211D206802F04BFD012084F83D0000
:105990000020E9E738B504464349206888420DD124
:1059A00000BF4248006840F00100404908600846D6
:1059B000006800F00100009000BF73E03C492068DF
:1059C00088420FD100BF3948001F006840F0020034
:1059D0003649091F08600846006800F00200009080
:1059E00000BF5FE033492068884218D100BF2F48CC
:1059F000001F006840F004002C49091F0860084699
:105A0000006800F00400009000BF00BF00220521E4
:105A10001E20FDF7C0FB1E20FDF7B0FB42E026492B
:105A2000206888420FD100BF2048001F006840F066
:105A300008001E49091F08600846006800F00800B9
:105A4000009000BF2EE01D492068884218D100BF99
:105A50001648001F006840F020001449091F086024
:105A60000846006800F02000009000BF00BF002240
:105A700005213720FDF78FFB3720FDF77FFB11E075
:105A80000F49206888420DD100BF0848006840F0E7
:105A90000200064908600846006800F00200009015
:105AA00000BF00BF38BD0000000001404438024084
:105AB0000004004000080040000C004000140040BA
:105AC000000401400146022081F83D00086800689A
:105AD00040F001000A681060012081F83D000020BC
