:020000040800F2
:10000000E80600209D010008491500084515000874
:1000100047150008E50200082D1B0008000000003D
:100020000000000000000000000000005B15000858
:10003000E702000800000000591500085D150008DF
:10004000B7010008B7010008B7010008B7010008B0
:10005000B7010008B7010008B7010008B7010008A0
:10006000B7010008B7010008B7010008B701000890
:10007000B7010008B7010008B7010008B701000880
:10008000B7010008B7010008B7010008B701000870
:10009000B7010008B7010008B7010008B701000860
:1000A000B7010008B7010008B7010008B701000850
:1000B000B7010008B7010008B7010008B701000840
:1000C000B7010008B7010008B7010008B701000830
:1000D000B7010008B7010008B7010008B701000820
:1000E000B7010008B7010008B7010008B701000810
:1000F000B7010008B7010008B7010008B701000800
:10010000B7010008B7010008B7010008B7010008EF
:10011000B7010008B7010008B7010008B7010008DF
:10012000B7010008B7010008B7010008B7010008CF
:10013000B7010008B7010008B7010008B7010008BF
:10014000B7010008B7010008B70100084D15000805
:10015000B7010008B7010008B7010008B70100089F
:10016000B7010008B7010008B7010008B70100088F
:10017000B7010008B7010008B7010008000000003F
:10018000B7010008B7010008DFF80CD000F098F8BC
:1001900000480047311B0008E80600200648804759
:1001A00006480047FEE7FEE7FEE7FEE7FEE7FEE75C
:1001B000FEE7FEE7FEE7FEE7FD15000889010008FF
:1001C0002DE9F05F0546002092469B46884606468C
:1001D000814640241BE0284641464746224600F01F
:1001E0005EF853465A46C01A914110D3114618463C
:1001F000224600F045F82D1A67EB01084F462246CB
:100200000120002100F03CF817EB00094E41201EB0
:10021000A4F10104DFDC484631462A464346BDE8E6
:10022000F09FD2B201E000F8012B491EFBD27047CB
:100230000022F6E710B513460A4604461946FFF7B2
:10024000F0FF204610BD421C10F8011B0029FBD115
:10025000801A704730B50B46014600202022012449
:1002600009E021FA02F59D4205D303FA02F5491B84
:1002700004FA02F52844151EA2F10102F1DC30BD9A
:10028000202A04DB203A00FA02F100207047914056
:10029000C2F1200320FA03F3194390407047202A4B
:1002A00004DB203A21FA02F00021704721FA02F320
:1002B000D040C2F120029140084319467047000027
:1002C000064C074D06E0E06840F0010394E80700A3
:1002D00098471034AC42F6D3FFF75AFF5C21000870
:1002E0007C210008FEE77047B0B5044600F0DEF858
:1002F00005467048611C007818BF044400F0D6F829
:10030000401BA042FAD3B0BD2DE9F84F5D4A4FF033
:1003100008094FF0010A4FF0000E4FF0000B904219
:10032000594A08BF4FF0070902444FEAB223072B8E
:1003300038BF4FEAB2290022102A08BFBDE8F88F63
:100340000B680AFA02F6334200F095804B6843F0DE
:100350001004122C13D1504D0BF01C030F2707FA79
:1003600003F405EA52050544D5F820C02CEA040C34
:100370000C6904FA03F343EA0C032B624B6803276E
:1003800003F00305122B07FA0EF4076805FA0EF5C1
:1003900027EA04076FEA040447EA0507076012D852
:1003A0000AFA03F717F0061F0DD08768CD682740BB
:1003B00005FA0EF52F438760C3F300174568974091
:1003C000B5432F434760C7688D68DB0007EA040721
:1003D00005FA0EF547EA0507C7604CD500232B4CFC
:1003E0000BF00C0500932B4BA4462C4C1F463B688E
:1003F000A0460F24AC4009FA05F543F480433B6066
:100400003B6803F48043009322F00303009F63449E
:1004100053F80870A7432F4343F80870DCF8003006
:100420004D6843EA060715F4803F08BF23EA060734
:1004300015F4003FCCF80070DCF8043043EA0607FE
:1004400008BF23EA060715F4801FCCF80470DCF817
:10045000083043EA060708BF23EA06070C4B15F4E9
:10046000001FCCF808701C46236843EA060708BF43
:1004700023EA060727600EF1020E0BF1040B01328E
:100480005AE700BF001C02400000FEBF003C0140D4
:100490000C3C014044380240FCFFFF7F08FCFFFF9A
:1004A000002A08BF09048161704700000148806884
:1004B000704700BF00000020D0F8940201F0BAB9E4
:1004C000D0F8940201F0CBB9704700002DE9FE4F3F
:1004D00004462668304601F063FA012840F08C8318
:1004E000206801F0CCFA002800F08683206801F033
:1004F000C6FA0146206811F4001F1CBF4FF400111A
:10050000416101F0BCFA0146206811F4801F1CBF54
:100510004FF48011416101F0B2FA0146206811F0F8
:10052000806F1CBF4FF08061416101F0A8FA014665
:10053000206811F0020F1CBF0221416101F09FFAF7
:1005400010F0005F01D1206810E0D6F8400420F0E0
:100550002E00C6F840042046FFF7B2FF20680121B4
:1005600001F072FA20684FF00051416101F087FA02
:1005700010F0807F59D02568D5F840040290D5F856
:1005800040040190019820F02E000190029810F094
:10059000020F0ED0029810F0010F06D0A86920F0CB
:1005A0000050A8612046FFF787FF019840F0020045
:1005B0000190029810F0080F2CD0019840F008002C
:1005C0000190029810F0040F0BD1D5F8400420F0F0
:1005D0002E00C5F840042068816941F00051816116
:1005E00018E0A06902280BD10299206801F4C0210B
:1005F000B1F5802F14BF0121022101F025FA06E098
:10060000E068032804BF4EF66020C5F804042046C5
:10061000FFF752FF029810F0200F1EBF019840F024
:10062000200001900198C5F84004206801F027FAE5
:1006300010F0080F01D1206805E0204600F0E0FA34
:1006400020680821416101F01AFA0146206811F082
:10065000007F00F08D8201F0F3F9814606F5A06776
:1006600001234FF00008CDF80090A068804580F08D
:100670007B8203FA08F010EA090F00F001823A6861
:1006800020685FFA88F600EB461112F4004F01F57E
:10069000A16B01F5A06AD1F8081501F004015FD142
:1006A000002940F08680DBF8001011F0200F40F0A8
:1006B0009480DBF8001011F0400F40F0AF80DBF8C1
:1006C000001011F4007F40F09881DBF8001011F069
:1006D000010F40F0B081DBF8001011F0080F40F07E
:1006E000D381DBF8001011F0100F40F0E281DBF84D
:1006F000001011F0800F40F0F181DBF8001011F4D0
:10070000806F40F0FD81DBF8000010F0020F00F078
:10071000B781DAF80C0020F00200CAF80C0006EBF2
:10072000860004EBC00090F85D100139072900F243
:100730001182DFE811F0FA010F020D020A02120223
:1007400008000F020800816D0222032901F1010156
:1007500088BF042280F85C2088BF00218165FFE10A
:1007600089BBDBF8001011F0200F53D1DBF800102B
:1007700011F0080F66D1DBF8001011F4806F78D00B
:10078000DAF80C1041F00201CAF80C10314601F001
:100790000BF9102008210123CAF8080006EB860097
:1007A00004EBC00080F85D104FF48060CAF80800C8
:1007B0005FE00420CAF80800DAF80C0040F00200FC
:1007C000CAF80C005CE10420CAF80800DAF80C0052
:1007D00040F00200CAF80C004BE02021CBF80010DA
:1007E00006EB860104EBC10595F83D10012940F0A8
:1007F0004781042185F85D10DAF80C1041F0020100
:10080000CAF80C10314601F0CFF80220012385F818
:100810005C0035E12020CBF800002AE006EB8601E1
:10082000002204EBC1018A65042281F85D20DAF818
:100830000C1041F00201CAF80C10314601F0B4F876
:10084000402068E0DAF80C10052241F00201CAF8F5
:100850000C1006EB860104EBC10181F85D2010212C
:10086000CAF808100821CAF80810314601F09CF8AF
:100870000123DBF8000010F4007F40D1DBF800001A
:1008800010F0010F4BD1DBF8000010F0020F74D113
:10089000DBF8000010F0800F40F0B680DBF80000BD
:1008A00010F0100F00F0EC8006EB860004EBC005A2
:1008B000A94619F83F0F03280CD1DAF80C0031468D
:1008C00040F00200CAF80C00206801F06DF899F8B9
:1008D00000000123032140F0020085F85D10102183
:1008E0000228CBF80010DDF8009040F0C980DAF85B
:1008F0000000022161F39F70CAF80000C0E0DAF83E
:100900000C0040F00200CAF80C002068314601F0EB
:100910004BF84FF400700123CAF80800B0E02069DA
:1009200050B106EB860004EBC000816CDAF81020B1
:100930006FF3DF42891AC16406EB860004EBC0093D
:100940000020C9F8580089F85D30CBF8003099F8DC
:100950003F0018B1032839D0022845D1DAF80C003D
:10096000314640F00200CAF80C00206801F01CF883
:1009700010200123CAF8080036E0DAF80C0020F055
:100980000200CAF80C0006EB860004EBC00090F8E9
:100990005D100139072965D8DFE801F062646464FD
:1009A00067046404816D0222032901F1010188BFFB
:1009B000042280F85C2088BF002181650221DAF8DA
:1009C000000061F39F70CAF8000052E0DAF80000FE
:1009D0003146012240F00050CAF80000204689F854
:1009E0005C30FFF771FD012399F8500080F00100A1
:1009F00089F85000DDF8009042E0DAF80C1041F080
:100A00000201CAF80C1081E7DAF80C00062140F068
:100A10000200CAF80C0006EB860004EBC00080F868
:100A20005D10816D013181653146206800F0BCFFA9
:100A30000123802070E706EB860104EBC10500214D
:100A4000A965DAF80C1041F00201CAF80C10314621
:100A500000F0AAFF0123CAF8083085F85D300FE0E6
:100A6000012203E090F85C2002E0052280F85C207F
:100A70000221CBF8001020463146FFF725FD012367
:100A8000203708F10108F0E50821CAF80810DAF863
:100A90000C1041F00201CAF80C10314600F084FF3E
:100AA00006EB86000521012304EBC00080F85D10F1
:100AB000E6E706EB860104EBC1050021A965DAF83B
:100AC0000C1041F00201CAF80C10314600F06CFF26
:100AD0000320012385F85D0010201DE7DAF80C10D3
:100AE00041F00201CAF80C10314600F05DFF06EB40
:100AF00086000123062104EBC00080F85D1098E712
:100B0000DAF80C1041F00201CAF80C10314600F07E
:100B10004BFF102008210123CAF808004FF4806021
:100B2000CAF8080006EB8600BEE70122022380F81F
:100B30005C2090F83F10022913D190F85110012247
:100B400081F0010180F851100BE0002180F83D1088
:100B5000022203E090F85C2002E0052280F85C208D
:100B60000223CBF8003086E720684FF00071416126
:100B700000F085FF10F0100F08BFBDE8FE8F25685C
:100B8000A86920F01000A861286A00F4F011C0F3F1
:100B90000A17B1F5802F2AD14FB300F00F0808EBE8
:100BA000880004EBC0094E4656F8441FF9B1BAB2AA
:100BB000284600F069FF3068104A38443060D9F8A0
:100BC0004C003844C9F84C0005EB4810D0F810151B
:100BD00011420CD000F5A0600222016862F39F71FF
:100BE000016099F8500080F0010089F850002068F9
:100BF000816941F010018161BDE8FE8F0000F81F9E
:100C0000D0F8940200F047BE10B5044694F8900264
:100C1000012801D102200CE0012084F89002206814
:100C200000F08FFE2068012100F06AFE002084F8A9
:100C30009002C0B210BD10B5044694F8900201288D
:100C400001D1022008E0012084F89002206800F021
:100C500031FF002084F89002C0B210BD1D48017819
:100C6000826811448160704780B50B48016841F487
:100C700000710160016841F480610160016841F424
:100C800080710160032000F073F8002000F006F886
:100C900000F022F8002080BD003C024070B50D4EEF
:100CA00004464FF47A713078B1FBF0F0DB49096803
:100CB000B1FBF0F000F07AFB01250F2C08D838B911
:100CC0004FF0FF3021460022002500F023F8746029
:100CD000284670BD0000002082B000200C49019021
:100CE0004A6842F480424A604A6802F480420192B3
:100CF000019A0090086840F080500860086800F091
:100D0000805000900098072002B000F031B800BF7A
:100D10004038024010B5154B1B4C002800EB030C6B
:100D200000F00F03A3F104032344B8BF03F10C0C3C
:100D30002068C0F30220031DC41E80F00700072BAB
:100D40004FF0010338BF0024042828BF042003FA11
:100D500000F00138084003FA04F10F31A0401140BF
:100D6000084300018CF8000010BD00BF00E400E063
:100D700005494FF6FF030A681A4060F30A22034848
:100D800010430860704700BF0CED00E00000FA055A
:100D90002DE9FC410446206810F0050F2DD046498E
:100DA0000020464E88460860FFF780FB05464FF45A
:100DB000E437F05910F0006F05D0FFF777FB401BC8
:100DC0000228F6D939E0D4E90101090741EA801087
:100DD0009349C8670120C8F80000FFF767FB054684
:100DE0004FF4E437F05910F0006F05D1FFF75EFBC8
:100DF000401B0228F6D920E0206880074FF0000051
:100E00001CD5874E01902D4FB06B40F08050B063E1
:100E1000B06B00F0805001900198386840F4807009
:100E20003860FFF743FB0546386810F4807F09D12E
:100E3000FFF73CFB401B0228F6D90320C0B202B0EA
:100E4000BDE8F081B06E10F4407021D0E16801F48B
:100E5000407188421CD0B06E194901220A600022FC
:100E600020F440700A60B066B06E10F0010F0FD031
:100E7000FFF71CFB054641F28837B06E10F0020FF9
:100E800006D1FFF713FB411B0320B942F5D9D5E783
:100E9000E0680C49326800F44073014022F4F81213
:100EA0006FF31F30B3F5407F08BF0A433260B16E65
:100EB0000843B0660020C1E7680047420070004068
:100EC000400E4742FFFCFF0F2DE9F04104468846E3
:100ED000002C00F08680454BD3F8000400F00F0092
:100EE000404507D283F80084D3F8000400F00F00D7
:100EF000404576D1206810F0020F11D0410742BF63
:100F0000996841F4E0519960010742BF996841F442
:100F1000604199609968A26821F0F00111439960DD
:100F2000C0072DD06068811E022904D2196811F013
:100F3000007F0BD155E0012804D1196811F4003F5E
:100F400004D14EE0196811F0020F4AD099681D468D
:100F500021F0030108439860FFF7A8FA064641F222
:100F600088372B469868616800F00C00B0EB810F61
:100F700006D0FFF79BFA801BB842F2D9032431E078
:100F8000D3F8000400F00F00404507D983F800842F
:100F9000D3F8000400F00F00404522D1206810F083
:100FA000040F05D09968E26821F4E051114399607B
:100FB000000706D59868216920F4604040EAC10026
:100FC00098601C4600F030F8A168094A0024C1F37B
:100FD0000311515CC840114908600020FFF75EFE14
:100FE00000E00124E0B2BDE8F08100BF003802401B
:100FF0003E21000809480A490A4A00680968C1F305
:101000008221515CC840704704480549054A006880
:101010000968C1F34231515CC84070470C000020A0
:10102000083802404E21000810B5DD4C606800F021
:101030000C011248082904D0042904BF104810BD2F
:1010400010BD2168236801F03F02216813F4800F6E
:10105000C1F3881105D1A1FB00010023FFF7B0F80F
:1010600003E007484843B0FBF2F021680222C1F3D5
:10107000014102EB4101B0FBF1F010BD0024F4008E
:1010800000127A002DE9F8430446002C00F01D817F
:101090002078C24EC24FC007B14636D0786800F003
:1010A0000C00042829D0786800F00C00082803D12F
:1010B000386810F4800F20D16668B6F5803F0AD0FA
:1010C000C846B6F5A02FD8F8000040F0248140F4BF
:1010D0008020C8F800004E46306840F48030306010
:1010E000FFF7E4F90546306810F4003F0DD1FFF733
:1010F000DDF9401B6428F6D9ABE0306810F4003FFE
:1011000003D06068002800F0E080207880072FD5A9
:10111000786810F00C0F08D0786800F00C000828F0
:101120000BD1386810F4800F07D1306810F0020F2F
:1011300017D0E068012814D0C7E0E1689948002979
:1011400000F0898001210160FFF7B0F905463068A1
:1011500010F0020F05D1FFF7A9F9401B0228F6D9BC
:1011600077E03068216920F0F80040EAC100306083
:101170002078000723D5606980B18A480121C0F832
:10118000801EFFF793F90546386F10F0020F16D155
:10119000FFF78CF9401B0228F6D95AE0814800215C
:1011A000C0F8801EFFF782F90546386F10F0020F75
:1011B00005D0FFF77BF9401B0228F6D949E02078DB
:1011C00040077AD5F86B4FF0000810F0805F0CD123
:1011D000CDF800804FF00108F86B40F08050F863C4
:1011E000F86B00F08050009000986F4E4846805990
:1011F00010F4807F12D14946885940F4807088519C
:10120000FFF754F905464846805910F4807F05D110
:10121000FFF74CF9401B0228F5D91AE0A668012E09
:1012200005D0F86E052E28D140F00400F866F86E5F
:1012300040F00100F866FFF739F9054641F28836BB
:10124000F86E10F0020F31D1FFF730F9401BB042B9
:10125000F6D903203AE000210160FFF727F905469F
:101260004846006810F0020F3FF482AFFFF71EF906
:10127000411B03200229F3D928E020F00100F86681
:10128000F86E20F00400F866FFF710F90546002E0E
:10129000D4D141F28836F86E10F0020F06D0FFF775
:1012A00005F9411B0320B142F5D90FE0B8F1000F59
:1012B0001EBFF86B20F08050F863A669002E6AD03C
:1012C000786800F00C00082804D10120C0B201B0F9
:1012D000BDE8F0833349002088460866FFF7E6F84A
:1012E0000546022E0BD14846006810F0007F30D032
:1012F000FFF7DCF8411B03200229F4D9E6E7484652
:10130000006810F0007F46D0FFF7D0F8411B0320A3
:101310000329F4D3DAE720F48030C8F80000D8F8C5
:10132000000020F48020C8F80000FFF7BFF8002E6E
:10133000054646467FF4D7AE4E46306810F4003F6F
:101340003FF4E3AEFFF7B2F8411B03206429F3D961
:10135000BCE704F11C064FCE0843D90340EA8210D3
:101360004FF6FF72914340EA0660A1F580310843D1
:1013700038600120C8F86000FFF798F80446484636
:10138000006810F0007F06D1FFF790F8011B0320E2
:101390000229F4D99AE7002098E700BF00380240FC
:1013A00004380240000047420038FEFF411E002082
:1013B000B0EB116F1CBF01207047044AF02351604D
:1013C00003490B70072190601160704710E000E046
:1013D00023ED00E010B5044644B394F8390028B971
:1013E000002084F83800204600F022F8242084F8F9
:1013F00039002068C16821F40051C160204600F026
:1014000023F92068016921F490410161416921F0CB
:101410002A014161C16841F40051C16000202021CE
:10142000E06384F8391084F83A1010BD012010BD33
:1014300010B586B0044601A81421FEF7F9FE216814
:101440001448814224D10021134A00F5DE30009176
:10145000136943F400331361136903F400330093F9
:10146000009B0091116841F001011160116801F0C9
:10147000010100910099022102910C2101910121A9
:101480000391032104910721059101A9FEF73CFF77
:1014900006B010BD00440040303802402DE9F04154
:1014A00004461D4617460E4694F83900202806D1FA
:1014B00001202EB127B194F83800012803D1022071
:1014C000C0B2BDE8F0810020E063012084F838005C
:1014D000212084F83900FEF7E9FF8046A784E784DD
:1014E0001DE0E08C802142462B460138E0842046F6
:1014F000A76800F067F9B7F5805F0BD1C8B93188EC
:1015000020686FF35F2141602069002814BF013615
:10151000023604E068B9206816F8011B4160E08CCF
:101520000028DED12046402142462B4600F04AF9F1
:1015300008B10320C4E70020202184F8380084F893
:101540003910BDE7FEE7FEE7704700000148FEF7EF
:10155000BDBF00BF1000002070477047FFF77EBB83
:1015600070B596B00024234801260225CDE90E442B
:10157000CDE90C4404940594016841F08051016068
:10158000006800F080500590059805941A4801689D
:1015900041F480410160006800F4804005900598A6
:1015A0004FF480300B904FF480000A961095119004
:1015B000082012904FF4A870CDE91305072015906C
:1015C0000AA8FFF75FFD0F200521CDE905054FF4BF
:1015D000A050079408904FF48050099005A8FFF799
:1015E00073FCC0200196CDE9020501A8FFF7D0FBEE
:1015F00016B070BD403802400070004010B50E4873
:101600000F4CD0F8801041F47001C0F880100B49E5
:101610000A6842F001020A6000228A600B682340D7
:101620000B60084B4B600B6823F480230B60CA608F
:101630004FF00061016010BD08ED00E0003802408D
:10164000FFFFF6FE103000242DE9F0470446206825
:101650000169E26821F44051114349F20C620161D1
:10166000C1689143A268D4E90437E6691143B6F52D
:10167000004F41EA030141EA070141EA0601C16066
:101680004169A26921F4407141EA020141614A497C
:1016900040F480603DD188420CBFDFF820A1DFF824
:1016A00020A1D047D4F804808146D047656806461B
:1016B000D04761681927784306FB07F36E0049009D
:1016C000B3FBF6F3B0FBF1F06421B0FBF1F202FBE7
:1016D0001102181A4FEA48031044322202EBC000EC
:1016E0004FF4F872B0FBF1F002EA400009FB07F298
:1016F000B2FBF3F2B2FBF1F100EB0115D0476168E8
:1017000078434900B0FBF1F6D047072103220123BB
:101710003AE0884214BFDFF8A8A0DFF8A0A0D047C5
:10172000D4F804808146D04765680646D047616892
:101730001927784306FB07F3AE008900B3FBF6F3E5
:10174000B0FBF1F06421B0FBF1F202FB1102181AB8
:101750004FEA88031044322202EB001009FB07F223
:10176000B0FBF1F0B2FBF3F200F0F000B2FBF1F1EC
:1017700000EB0115D047616878438900B0FBF1F6B2
:10178000D0470F210422022319277843D4E900749B
:1017900004FA03F3B0FBF3F06423B0FBF3F404FBAF
:1017A0001304301A204490403230B0FBF3F008406C
:1017B0002843B860BDE8F087001401400910000814
:1017C000F50F00082DE9F0411D4690460F460446EE
:1017D0006E1C206801683940B9421BD0002EF8D039
:1017E00035B1FEF763FEA0EB0800A842F1D92068EE
:1017F000C16821F4D071C160416921F001014161EA
:101800002020002184F8390084F8381084F83A0048
:10181000032000E00020C0B2BDE8F0810A2907D80B
:1018200000EB8100D0F87C136FF3DF31C0F87C133C
:1018300000207047017829B10178012904BF0221F5
:1018400001700AE0012180F81E13D0F8C42322B1F0
:1018500080B504219047BDE880400020704710B556
:10186000044600F03BF821792046FFF7D7FF617965
:101870002046FFF7D3FF002084F81E03D4F8C423CA
:1018800012B1204605219047204600F017F80320AA
:101890002070002010BDD0F8B8130131C0F8B81383
:1018A00001780A2909D1D0F87413002908BF7047BC
:1018B00080B589698847BDE88040704780B5D0F819
:1018C000C003FFF7A1F903288FBF0220C0000B4916
:1018D00021FA00F098BFC0B280BD00BF80B5D0F83B
:1018E000C003FFF7A8F903288FBF0220C0000349F7
:1018F00021FA00F098BFC0B280BD00BF0002010213
:1019000081B0D0F8402401290092009A22F02E02E2
:101910000092009B009A08BF13F4805309D069B964
:1019200012F480511EBF009921F48051C0F8401478
:1019300004E042F48051C0F840140098002001B047
:101940007047816841F0010181600020704700000C
:101950001021124A01614FF0FF310131914205D847
:10196000036913F0100FF8D1002000E00320C0B28B
:10197000704700BF202242EA8111084A01614FF0FE
:10198000FF310131914205D8036913F0200FF8D1DE
:10199000002000E00320C0B2704700BF3F0D0300ED
:1019A000406900F001007047490100F5A0625358FA
:1019B00013F4402F05D08B5803F44023B3F5002FC8
:1019C0000BD18B5843F080438B50C36A885813F473
:1019D0007F0F13D040F000400DE08B5843F0804360
:1019E0008B50D0F810344FF6FF7051F802C003420C
:1019F00015D04CF0004088500020704720F0004087
:101A00008850885840F0004088504FF0FF30013037
:101A1000C3087C2BF0D88B58002BF8DBECE72CF0BC
:101A200000408850885840F0004088504FF0FF3008
:101A30000130C3087C2BDFD88B58002BF8DBDBE7A9
:101A4000D0F8140480B27047D0F8002401F00303EA
:101A5000012922F00302C0F80024D0F8002442EA51
:101A60000302C0F8002404D0022906D141F27071AB
:101A700001E04BF68031C0F8041400207047416942
:101A8000806908407047000010B5094B03324FF4DD
:101A9000805E02EA030C93080A4603E050F80E4009
:101AA000013B10C2002BF9D101EB0C0010BD00BFAF
:101AB000FCFF010070B506461021B06820F001005F
:101AC000B0603046FFF756FF3046FFF741FF16493A
:101AD00006F5A060002205E083580B4043F08043E8
:101AE00083502032B2F5007FF6D1002200230DE0B2
:101AF000540105590D4045F0404505510133B3F5FA
:101B00007A7F02D82558002DF8DB0132102AEFD158
:101B10004FF0FF30C6F814047061B06840F0010067
:101B2000B060002070BD00BFFF7FFF3FFEE70000F8
:101B30002DE9F04F91B0FFF797F8FFF711FD00275F
:101B4000B548B64DB64C00224FF0080A10970997D9
:101B5000016805F5E63841F010010160016801F007
:101B60001001099109990997016841F00401016088
:101B7000016801F00401099109990997016841F090
:101B800080010160016801F08001099109990997BC
:101B9000016841F001010160016801F00101099152
:101BA00009990997016841F002010160016801F09B
:101BB0000201099109990997016841F00801016042
:101BC0000821006800F00800099009984046A047E5
:101BD00005F5E236012101224FF001093046A04708
:101BE00005F5E43B4FF2100100225846A0470CAD2A
:101BF0008C4C4046CDE90CA9CDE90E772946A0478B
:101C000030462946CDE90C99CDE90E77A047022050
:101C1000CDF830A04FF0050A2946CDE90D07304632
:101C20000F97CDF840A0A0477F487C4E2946CDE9CC
:101C30000C9006F5DE300E97A047042006F5E0363E
:101C40002946CDE90C0730460E97A0474FF4806037
:101C500029460C90CDF840A04FF0020A3046CDE95D
:101C60000DA70F97A0474FF21000CDF834902946EA
:101C70000C905846CDE90E77A04720202946CDE9A3
:101C80000C0758460E97A04767482946CDE90CA097
:101C900040460E97A0476548604B4FF4E1320C2157
:101CA000C0E90032C0E90277C0E90471C0E90677F3
:101CB000FFF790FB5EA0684EDFF8A8A1D0E9011005
:101CC000CDE90A105A4809905CA0D0E90112CDE98B
:101CD0000D125A498DF814700C91817B8089ADF8F2
:101CE0003C005A488DF83E100790594806905948D4
:101CF00004904E4C09AD0F224FF6FF732946204643
:101D0000B047284600F0F1F835465849534E0DF1DA
:101D10000409DFF84CB10246484688463146D847A8
:101D20006420D04750494846884782B220464946F9
:101D30004346A8470DF1240B584600F0CFF8314632
:101D40002E46474D024647464846DFF81C81A847C5
:101D50006420D0474846C04782B2204649463B46A9
:101D6000B04758466E2100F098F80278484640A1E6
:101D7000A8474846C04782B2204649463B46B0473E
:101D80006420D0475846494600F0A0F84846C0476E
:101D900082B2204649463B46B0476420D047584669
:101DA000494600F086F818B901A804A900F08EF899
:101DB00001AD2846C0472D4C1C4F82B229463846FB
:101DC0002346B0476420D047284600F0A4F82846B0
:101DD000C04782B2384629462346B0476420D047E0
:101DE000284600F08AF82846C04782B2384629467D
:101DF0002346B0476420D0470DF1300B06A9584662
:101E000000F03AF85846C04782B238465946234651
:101E1000B0476420D0476CE73038024000440040AF
:101E2000A10400080903000800001210A802002005
:101E30005461726B616E20442E0A0D005461726B06
:101E4000616E20000000000000000000790A0D0013
:101E500044616C614F4B0A0D9D1400085621000827
:101E6000351F0008E902000847020008FFFFFF00D5
:101E700025630A0D00000000421E12F8013F002BEE
:101E8000FBD14FF0000C01E00CF1010C11F80C300B
:101E9000002B02F80C30F7D1704703E08A4208BFEC
:101EA000704701300278002AF8D1002918BF0020BD
:101EB000704701E0013101300B7802789A421CBF73
:101EC000D01A7047002AF5D100207047002200E0A8
:101ED00001328B5C002B8354FAD170470021425CA5
:101EE0000131002AFBD1481E70470146002000E066
:101EF00001300A5C002AFBD17047014607E0A2F1DD
:101F00004103DBB2192B9CBF20320A7001310A78E1
:101F1000002AF4D17047014607E0A2F16103DBB269
:101F2000192B9CBFE0320A7001310A78002AF4D1E3
:101F3000704700000FB4084B10B504A902AA03981B
:101F400000F01CF8044602A9002000F0F3F8204637
:101F500010BC5DF814FB00003521000802E008C841
:101F6000121F08C1002AFAD170477047002001E013
:101F700001C1121F002AFBD1704700002DE9FF4F5D
:101F80008BB09A460F460546002606E025280BD062
:101F900052460D9990476D1C761C28780028F5D183
:101FA0000FB03046BDE8F08F0024A0460122604902
:101FB00000E0044315F8013F203B02FA03F0084219
:101FC000F7D128782E2817D115F8010F44F0040412
:101FD0002A280ED06FF02F022878A0F130010929AD
:101FE0000AD808EB880102EB410100EB01086D1CE7
:101FF000F2E757F8048B6D1C287869283ED006DC80
:102000000028CDD063280BD0642804D136E0732893
:1020100010D075284BD052460D999047761C85E01C
:1020200017F8040B8DF8000000208DF80100E94638
:10203000012003E057F8049B4FF0FF3061074FF099
:10204000000401D40AE0641C44450DDA8442FADB42
:1020500019F804100029F6D106E0641C8442FCDB68
:1020600019F804100029F8D1264404E019F8010BEE
:1020700052460D999047641EF8D257E001CF4FF0B9
:102080000A0B002802DA40422D2102E0210504D586
:102090002B218DF82410012103E0E10705D0202138
:1020A000F7E70DF1200908910CE00021F9E701CFD5
:1020B0004FF00A0BF9E75946FEF7CCF801F1300270
:1020C00009F8012D0028F6D1ADEB090000F1200B35
:1020D000600701D44FF00108D84502DDA8EB0B00E2
:1020E00000E000208046002406E009A85246005D7A
:1020F0000D999047641C761C08988442F5DB04E037
:10210000302052460D999047761CB8F10001A8F195
:102110000108F5DC05E019F8010B52460D999047CE
:10212000761CBBF10001ABF1010BF4DC6D1C34E754
:10213000092801000A68531C0B60107070470000EA
:102140000000000000000102030406070809000067
:1021500000000102030425640A0D0000802100082C
:1021600000000020100000005C1F00089021000803
:1021700010000020D80600006C1F000800000000BE
:102180000100000010000000000000000024F40026
:040000050800018965
:00000001FF
