:020000040800F2
:1000000090470020610200086F1F00086D1D000866
:100010006D1F00082F040008D52400080000000010
:10002000000000000000000000000000A501000822
:100030003104000800000000F90100089D1F0008BD
:100040007B0200087B0200087B0200087B0200089C
:100050007B0200087B0200087B0200087B0200088C
:100060007B0200087B0200087B0200087B0200087C
:100070007B0200087B0200087B0200087B0200086C
:100080007B0200087B0200087B0200087B0200085C
:100090007B0200087B0200087B0200087B0200084C
:1000A0007B0200087B0200087B0200087B0200083C
:1000B0007B0200087B0200087B0200087B0200082C
:1000C0007B0200087B0200087B0200087B0200081C
:1000D0007B0200087B0200087B0200087B0200080C
:1000E0007B0200087B0200087B0200087B020008FC
:1000F0007B0200087B0200087B0200087B020008EC
:100100007B0200087B0200087B0200087B020008DB
:100110007B0200087B0200081D2000087B0200080B
:100120007B0200087B0200087B0200087B020008BB
:100130007B0200087B0200087B0200087B020008AB
:100140007B0200087B0200087B020008911F000868
:100150007B0200087B0200087B0200087B0200088B
:100160007B0200087B0200087B0200087B0200087B
:100170007B0200087B0200087B02000800000000F0
:100180007B0200087B020008DFF814D000F03CF985
:1001900000F0CEF800480047A528000800F012F94A
:1001A000904700202B4B19680868B0E8F04F80F3A7
:1001B0000988BFF36F8F4FF0000080F311887047FC
:1001C0000000000006480068006880F3088862B6F6
:1001D00061B6BFF34F8FBFF36F8F00DF00BF00BF6B
:1001E00008ED00E0DFF80C00016841F470010160E7
:1001F000704700BF88ED00E0EFF30980BFF36F8F19
:10020000144B1A681EF0100F08BF20ED108A20E969
:10021000F04F106008B44FF0500080F31188BFF326
:100220004F8FBFF36F8F03F0E9F84FF0000080F3BA
:10023000118808BC19680868B0E8F04F1EF0100F6C
:1002400008BFB0EC108A80F30988BFF36F8F704746
:1002500000BF00BF6C000020EFF305807047000076
:100260000648804706480047FEE7FEE7FEE7FEE750
:10027000FEE7FEE7FEE7FEE7FEE7FEE7C91F000830
:10028000890100082DE9F05F0546002092469B4653
:1002900088460646814640241BE02846414647469C
:1002A000224600F07BF853465A46C01A914110D3BB
:1002B00011461846224600F062F82D1A67EB010835
:1002C0004F4622460120002100F059F817EB0009A3
:1002D0004E41201EA4F10104DFDC484631462A4687
:1002E0004346BDE8F09F40EA01039B0703D009E0C5
:1002F00008C9121F08C0042AFAD203E011F8013B12
:1003000000F8013B521EF9D27047D2B201E000F86A
:10031000012B491EFBD270470022F6E710B51346A9
:100320000A4604461946FFF7F0FF204610BD0000BC
:1003300070B5054C054D03E0206820448047241D1E
:10034000AC42F9D170BD0000983C00089C3C00080C
:100350002DE9F041074615460E46102002F0AEFB8F
:1003600004000AD06760C4E9026500F027F801685C
:10037000216004600020BDE8F0810120FBE7202A15
:1003800004DB203A00FA02F1002070479140C2F1EC
:10039000200320FA03F3194390407047202A04DB1E
:1003A000203A21FA02F00021704721FA02F3D040EE
:1003B000C2F1200291400843194670470048704737
:1003C000D40000202DE9F0410646FFF7F7FF8046F4
:1003D000454613E016B1E068B0420ED120682860AF
:1003E000D4E90101D8F800708847204602F02CFAC1
:1003F000D8F80000B842EBD100E025462C68002C6C
:10040000E8D1BDE8F0810000064C074D06E0E06849
:1004100040F0010394E8070098471034AC42F6D34B
:10042000FFF7B6FE783C0008983C00087047FEE7EE
:100430007047000070B5044600F0F0F80546601CF7
:1004400002D004480078044400F0E8F8401BA042C1
:10045000FAD370BD5C0000202DE9F84FDFF87CB1C5
:1004600000224FF001084FF0030A4FF00F090BF183
:10047000040E00BF0B6808FA02F42340A3426ED1B9
:100480004D68022D01D0122D0ED1D50800EB850C40
:10049000DCF820505607F70E09FA07F6B5430E6947
:1004A000BE402E43CCF82060066855000F790AFA4A
:1004B00005FC07F0030726EA0C06AF403743076048
:1004C0004E68012E05D0022E03D0112E01D0122E1F
:1004D0000ED18668CF6826EA0C06AF4037438760A6
:1004E0004668A6430C79C4F3001494403443446036
:1004F000C6688C6826EA0C06AC403443C4604C687D
:10050000E40065D5364C256845F4804525602468AF
:1005100022F0030504F480440094324C2E19D6F8DE
:10052000084895072F0F09FA07F5AC432E4DA8424E
:1005300001D1002524E02D4DA84201D101251FE065
:100540002B4DA84201D102251AE02A4DA84201D123
:10055000032515E0284DA84202D1042510E037E01C
:10056000264DA84201D105250AE0254DA84201D11A
:10057000062505E0234DA84201D1072500E0082506
:10058000BD402543C6F80858DBF800405D464E687C
:100590009C43F60300D51C432C60DEF800407546F2
:1005A0004E689C43B60300D51C432C600B4D0835A8
:1005B0002C684E689C43F60200D51C432C60074D06
:1005C0000C352C684E689C43B60200D51C432C6049
:1005D000521C102AFFF44EAFBDE8F88F003C0140DA
:1005E0004438024000300140000002400004024054
:1005F00000080240000C02400010024000140240BB
:1006000000180240001C024042694A4042617047A3
:100610000AB1816170470904FBE700000148806866
:10062000704700005C000020D0F8940201F068BD23
:10063000D0F8940201F080BDD0F8940201F0ADBD75
:100640002DE9F041044600680025064601F00CFE45
:1006500001287DD1206801F0D0FE002878D02068E4
:1006600001F0CBFE800203D521684FF400104861F1
:10067000206801F0C2FEC00203D521684FF480104B
:100680004861206801F0B9FE400103D521684FF0B0
:1006900080604861206801F0B0FE800702D52168C3
:1006A00002204861206801F0A8FE800010D5D6F82D
:1006B000400420F02E00C6F840042046FFF7B8FFA3
:1006C0000121206801F07EFE21684FF00050486152
:1006D000206801F092FEC00102D5204601F0B7FA71
:1006E000206801F08AFE000705D5204600F03FF89B
:1006F000216808204861206801F07FFE800120D534
:10070000206801F059FE07464FF0010812E000BFD3
:1007100008FA05F038420CD006EB4510D0F8000579
:10072000E9B20004204602D501F06DF801E001F0C5
:1007300083F96D1CA068A842EAD821684FF00070C8
:100740004861206801F059FEC0060ED5206800E01F
:100750000BE0816921F010018161204601F0CEFAA1
:100760002068816941F010018161BDE8F081D0F815
:10077000940201F003BD10B5044690F890020128E0
:100780000DD0012084F89002206801F045FD012180
:10079000206801F02BFD002084F8900210BD02209B
:1007A00010BD10B5044690F89002012809D0012030
:1007B00084F89002206801F034FE002084F8900252
:1007C00010BD022010BD000070B5040004D094F8E4
:1007D0003D00002510B106E0012070BD84F83C50BA
:1007E000204600F075F8242084F83D002068016858
:1007F00021F00101016000F0D9FC33492268B0FB0F
:10080000F1F15160314A6368934206D94FF496730F
:1008100059434FF47A73B1FBF3F12368491C196211
:10082000616891420BD84900B0FBF1F2C2F30B02B0
:10083000042A01D2042019E0B0FBF1F016E0A3680D
:100840009BB301EBC10202EB0112B0FBF2F242F4E6
:100850008042120530D04BB301EBC10202EB011113
:10086000B0FBF1F040F4804040F400402168C861E2
:10087000D4E90701084321680860D4E9031008435C
:1008800021688860D4E9050108432168C8602068B0
:10089000016841F0010101602564202084F83D00D9
:1008A000256384F83E50002070BD00E006E001EBB7
:1008B0004102B0FBF2F2CCE70120D7E701EB4101A6
:1008C000B0FBF1F0D0E7000040420F00A08601002D
:1008D00010B586B0044614216846FFF71DFD144983
:1008E0002068884221D113480021026842F00202A8
:1008F0000260006800F0020005904FF41070009054
:10090000122001900120CDE90201042004906946E3
:100910000948FFF7A1FD07481030016841F40011B4
:100920000160006800F40010059006B010BD0000E2
:100930000054004030380240000402402DE9FE43DC
:10094000044600688168744D744E4FF04027029150
:10095000A84201D1314600E0394689680191C16958
:100960004FF00108C1F3012102290AD0C16911F435
:10097000407F06D00199890773D5A84267D13046D8
:1009800066E00299890707D54068C043000603D492
:100990000021204601F030FA0198C0070DD02068F0
:1009A000A84201D1304600E038464068C0434006C6
:1009B00003D40121204601F0DBF901984FF65F795D
:1009C000400628D52068A84201D1314600E03946CA
:1009D0004968C94389061ED4A84201D1304600E0C7
:1009E0003846406820F0600101D1304600E03846CA
:1009F00041602068416801EA090141602068C168DE
:100A00008068009084F84180606C40F0020060646F
:100A1000204600F086F8029800077BD520684168E0
:100A2000C943890676D4416801EA0901416020681A
:100A3000A84201D1304600E03846406820F060000E
:100A400000D03E46706020688068009057E03846CD
:100A500040686FEA0000000603D40121204601F03F
:100A6000CBF90298C00708D020684068C043400610
:100A700003D40021204601F07BF902984FF69F79BC
:100A800040061FD520684168C94389061AD44168C9
:100A900001EA090141602068A84201D1304600E026
:100AA0003846406820F0A00101D1304600E03846C9
:100AB000416084F84180606C40F002006064204630
:100AC00000F02FF80198000724D52068A84201D132
:100AD000314600E039464968C94389061AD4A8421C
:100AE00001D1304600E03846406820F0A00000D038
:100AF0003E4670602068416801EA0901416084F85F
:100B00004180606C40F0040060642046BDE8FE4314
:100B100000F007B8BDE8FE83003800400034004014
:100B2000704770472DE9F05F04004FF002064FF068
:100B300000074FF010052CD04FF00209C84684F88A
:100B4000419054486063204600F0ACF82068C169C9
:100B500040F6BF7A21EA0A01C1612168C1F820800C
:100B60002068D0F81C8060694FF4007B022835D0E3
:100B7000E06800B12025A068202800D86D00012081
:100B800000F090F92169594525D1E16821B1A9000A
:100B900003E00120BDE8F09FE900B0FBF1F000BFE9
:100BA00000EB800061694000B0FBF1F0401D0A21BC
:100BB000B0FBF1F101F00100091AC1F34F06070281
:100BC000B01EFE280AD3606C40F01000606420461E
:100BD000FFF7A7FFDDE7B0FBF5F0E1E7206921684B
:100BE0003E4330430862A0882189228B0843A189B3
:100BF0001143084380B2216840EA080040F40060D5
:100C0000C861206A01283AD12348606323482168DB
:100C1000234A4FF04023814201D1114600E019469A
:100C2000C96921EA0A0101D1154600E01D46E961C2
:100C300025684946854201D1154600E01D462962D6
:100C40002568854201D1114600E01946CE696168E8
:100C500059451BD0D1B100212789B4F80CC047EA0F
:100C60000C07B4F818C04CEA010C47EA0C07B9B2FB
:100C7000314341F40061854200D01A46D161002021
:100C80006064012084F84100002083E74FF4807104
:100C9000E2E700007D1E00083D0900080038004022
:100CA0000034004070B586B0044614216846FFF752
:100CB00033FB1C492068884232D11B48002401685C
:100CC00041F400410160006800F4004005901648BE
:100CD0001038016841F001010160016801F0010173
:100CE0000591016841F0040101600068022500F0EF
:100CF0000400059010200090CDE901540626CDE9AE
:100D0000034669460948FFF7A7FB4FF4A45000903B
:100D1000CDE90154CDE9034669460548FFF79CFB40
:100D200006B070BD003C0040403802400000024068
:100D300000080240704770470248816802781144F9
:100D4000816070475C0000200B4810B5016841F4D9
:100D500000710160016841F480610160016841F443
:100D600080710160032000F08BF8002000F006F88D
:100D700000F03EF8002010BD003C024010B50146D6
:100D800088B00022362000F05BF8362000F04CF8E6
:100D900013480024016841F010010160006805A9B2
:100DA00000F010000690684600F0E0F900F0FEF94F
:100DB0000C494000B0FBF1F10C480B4A491E02609F
:100DC00040F2E732C0E90324C0E9011400F032FC2C
:100DD00010B1012008B010BD044800F047FCF9E74D
:100DE0004038024040420F0000100040CC0100207B
:100DF0000C4882B0016841F480410160006800F451
:100E0000804000900748001F016841F08051016058
:100E10000068002200F0805000900F21901E02B068
:100E200000F00EB84438024000F01F02012191404A
:100E30004009800000F1E020C0F800117047000078
:100E4000F0B40E4B1B680C46C3F30223C3F1070535
:100E5000042D00D90425191D072901D2002300E023
:100E6000DB1E012606FA05F1491E214099409E40ED
:100E7000761E16403143F0BC01F07AB80CED00E06C
:100E8000064900F0070208684FF6FF03184040EAE1
:100E90000220034A10430860704700000CED00E098
:100EA0000000FA0501460020012907D11049096810
:100EB00011F4000103D0012900D10E4870470C48FD
:100EC000001F01680068490200F03F0001D50A498F
:100ED00000E00A49064AB1FBF0F07C321168C1F328
:100EE000881141431068C0F30270B1FBF0F0704705
:100EF000083802400080BB0000127A000024F40091
:100F00002DE9F843054600684FF00109C1074FF08D
:100F1000000601D1400727D5DFF80C81C8F86860CA
:100F2000FFF77CFB0746414C05E000BFFFF776FB6F
:100F3000C01B022857D820680001F7D468688101D7
:100F4000287A41EA0070394984310860C8F868900D
:100F5000FFF764FB074604E0FFF760FBC01B0228B5
:100F600041D820680001F7D52878800752D52F484E
:100F70004030016841F08051016000682C4C00F065
:100F800080500090206840F480702060FFF746FB9E
:100F9000074604E0FFF742FBC01B022823D8206865
:100FA000C005F7D5214C7034206810F4407020D073
:100FB000A98901F4407181421BD020681D4920F4A9
:100FC0004070C1F800900E6020602068C00710D00B
:100FD000FFF724FB064641F2883707E0FFF71EFBC8
:100FE000801BB84202D90320BDE8F883206880073F
:100FF000F4D5E9680D48C1F301220830032A0BD06B
:10100000016821F4F81101602068A989C1F30B017E
:10101000084320600020E7E70268074B22F4F8123B
:1010200019400A430260EFE70000474200380240DF
:1010300000700040400E4742FFFCFF0F2DE9F047D3
:101040000E46050065D0DFF81481D8F80000F7B22D
:1010500000F00F00B04207D288F80070D8F8000006
:1010600000F00F00B04254D128683D4C810712D5E2
:10107000400703D5206840F4E0502060287800073E
:1010800003D5206840F4604020602068A96820F003
:10109000F000084320602878C0072DD030496868E8
:1010A0000839012812D0022813D0032811D009686A
:1010B000890700292DDA216821F00301014321600D
:1010C000FFF7ACFA814641F2883A0EE009688903DD
:1010D000EFE709688901ECE7FFF7A0FAA0EB090147
:1010E000514502D90320BDE8F0872068696800F007
:1010F0000C00B0EB810FEFD1D8F80010404601F0A2
:101100000F01B14207D90770006800F00F00B0422C
:1011100001D00120E7E72878400705D52068E96875
:1011200020F4E050084320602878000706D52068A6
:10113000296920F4604040EAC100206000F046F8D0
:101140002168084AC1F30311515CC8400649086090
:101150000020FFF713FE0020C5E70000003C02401E
:1011600008380240303C0008680000200F2202606E
:101170000C4A136803F003034360136803F0F003A1
:101180008360136803F4E053C36012684FF4E053C4
:1011900003EAD20202610448006800F00F00086010
:1011A0007047000008380240003C024004480549EE
:1011B00000680968044AC1F38221515CC840704745
:1011C0006800002008380240403C0008154810B56F
:1011D000006810F00C02144813D04110042A0FD0FC
:1011E000082A0ED10F4C241F2268236802F03F0208
:1011F0005B0207D52068C0F38810A0FB010106E060
:10120000084610BD2168C1F38811A1FB000100232D
:10121000FFF738F82168C1F30141491C4900B0FBD0
:10122000F1F010BD083802400024F4002DE9F84F19
:10123000050076D02878DFF8F8B2BE4CC00749D058
:10124000DBF800105846C1F38101012908D000687D
:10125000C0F3810002280AD1201D0068400206D593
:101260002068800336D568680028E2D032E06868DC
:10127000B0F5803F10D0B0F5A02F206810D020F43A
:1012800080302060206820F4802020606868A0B151
:10129000FFF7C4F906460CE0206840F48030F4E71C
:1012A00040F480202060F7E7FFF7B8F9801B64283E
:1012B00073D820688003F7D50CE0FFF7AFF9064636
:1012C00005E000BFFFF7AAF9801B6428F0D820686A
:1012D0008003F7D42878DFF8608280074FF0000998
:1012E0003ED5DBF80010584611F00C0F09D000680D
:1012F000C0F3810002280BD18D48001F0068400216
:1013000006D42068800715D5E868012809D111E0C6
:10131000E868B8B10120C8F80000FFF77FF9064679
:1013200005E002E1FFF77AF9801B0228C0D82068A7
:101330008007F7D52068296920F0F80040EAC1004D
:1013400020600DE0C8F80090FFF768F9064604E059
:10135000FFF764F9801B02281FD820688007F7D4A4
:101360002878000722D5724E744869696C3671B1CD
:1013700001210160FFF752F9074604E0FFF74EF93B
:10138000C01B022809D830688007F7D50EE0C0F8E6
:101390000090FFF743F9074605E083E0FFF73EF9C9
:1013A000C01B02287ED830688007F7D42878400711
:1013B00068D5DFF87CA100270AF1380ADAF80000C6
:1013C000C0000BD4DAF8001041F08051CAF80010C8
:1013D000DAF80000012700F080500090584E306885
:1013E000C00510D4306840F480703060FFF716F903
:1013F000009005E0FFF712F90099401A022851D831
:101400003068C005F6D54A4EA868683601280FD066
:101410000528306810D020F001003060306820F0DE
:1014200004003060A868B8B1FFF7F8F800900FE04A
:10143000306840F00100F4E740F004003060F7E766
:10144000FFF7ECF80099411A41F28830814264D8E4
:1014500030688007F4D50EE0FFF7E0F8009007E071
:10146000FFF7DCF80099411A41F28830814254D8E4
:1014700030688007F4D42FB1DAF8001021F08051E1
:10148000CAF80010A869C0B3DBF80010C1F38101ED
:1014900002294AD00228484607D0C8F86000FFF762
:1014A000BDF800E039E005463AE04746C8F860007C
:1014B000FFF7B4F8064604E0FFF7B0F8801B0228F7
:1014C0002BD820688001F7D4D5E907010843A96A21
:1014D0001C4A490802EB01416A6A41EA8211084349
:1014E00095F82C1040EA01611148001F01600120AD
:1014F0003866FFF793F8054605E014E0FFF78EF82D
:10150000401B022809D820688001F7D50BE000BFF6
:10151000FFF784F8401B022802D90320BDE8F88FAA
:1015200020688001F4D40020F8E70120F6E70000ED
:10153000083802400038024000004742800E47420F
:10154000007000400000FFFF70B5040005D00025CA
:10155000A56294F8510010B106E0012070BD84F836
:101560005050204600F030F8022084F851002068E6
:10157000016821F040010160D4E901010843D4E988
:1015800003121143084361690843218B01F4007180
:101590000843E1690843216A0843A16A08432168B6
:1015A0000860A069042101EA1040616A08432168CB
:1015B00048602068C16921F40061C161656501204E
:1015C00084F85100002070BD10B586B00446142187
:1015D0006846FEF7A1FE1349206888421FD11248D1
:1015E0000021026842F480520260006800F48050DA
:1015F00005900D481438026842F00102026000684C
:1016000000F001000590E02000900220CDE90101EA
:101610000520CDE9031069460448FEF71DFF06B01A
:1016200010BD00000030014044380240000002407C
:101630007047704710B5040003D094F8390010B11A
:1016400007E0012010BD002084F83800204600F09B
:101650000CF8022084F83900211D206800F0E4FC19
:10166000012084F83900002010BD70470168CA6865
:1016700042F00102CA600068016841F001010160A6
:1016800000207047704770B50446006801694FF04C
:101690000005C943890715D4C168C943890711D416
:1016A000E91E0161012020762068806980072046BC
:1016B00002D0FFF7E7FF04E000F098F8204600F0C2
:1016C00096F8257620680169C943490717D4C1688F
:1016D000C943490713D46FF0040101610220207649
:1016E0002068806910F4407F204602D0FFF7CAFFCF
:1016F00004E000F07BF8204600F079F825762068B9
:101700000169C943090716D4C168C943090712D43E
:101710006FF008010161042020762068C06980070D
:10172000204602D0FFF7AEFF04E000F05FF820464D
:1017300000F05DF8257620680169C943C90617D411
:10174000C168C943C90613D46FF0100101610820B4
:1017500020762068C06910F4407F204602D0FFF751
:1017600091FF04E000F042F8204600F040F82576B2
:1017700020680169C943C90708D1C168C943C907BD
:1017800004D1891E0161204600F032F82068016909
:10179000C943090609D4C168C943090605D46FF0D5
:1017A000800101612046FFF743FF20680169C943BA
:1017B000490609D4C168C943490605D46FF0400100
:1017C0000161204600F01EF820680169C9438906BE
:1017D0000BD4C168C943890607D46FF020010161A9
:1017E0002046BDE87040FFF724BF70BD70477047CA
:1017F00000680349884201D1FFF79EBA7047000094
:101800000010004070472DE9F05F064600688846EA
:1018100000EB4814D4F808054FF0040B410708EB1F
:1018200088004FF0050A4FF0100706EBC00508D5F9
:10183000C4F808B5D4F80C0540F00200C4F80C0553
:1018400032E0D4F80805800601D520202AE0D4F83B
:1018500008054FF00809000710D5D4F80C0540F032
:101860000200C4F80C0585F85DA0C4F80875C4F83A
:1018700008954146306800F0FBFC15E0D4F80805F7
:10188000400511D5D4F80C0540F00200C4F80C0551
:101890004146306800F0ECFCC4F8087585F85D90AE
:1018A0004FF48060C4F80805D4F8080580050ED50B
:1018B000D4F80C0540F00200C4F80C05414604F5CC
:1018C000A164306800F0D4FC4FF400708DE0D4F8CF
:1018D00008054FF00001C0074FF0010236D0306913
:1018E00030B1A86CD4F81035C3F31203C01AE86401
:1018F00085F85D20A965C4F8082595F83F0020B15A
:10190000022802D003280ED019E0D4F80C0540F0CC
:101910000200C4F80C05414604F5A164306800F0EB
:10192000A7FC27600BE0D4F8000540F00050C4F895
:10193000000585F85C2041463046FEF77DFE15F82F
:10194000500F80F001002870BDE8F09FD4F8080522
:10195000800733D5D4F80C0520F00200C4F80C053C
:1019600095F85D000223012806D0052807D0062837
:1019700008D0082806D018E085F85C2015E085F826
:101980005CA012E0A86D421CAA65032803D9A965D2
:1019900085F85CB001E085F85C30D4F8000520F0F3
:1019A000804040F00040C4F80005C4F8083595F8C0
:1019B0005C2041463046FEF73FFEC5E7D4F80805F7
:1019C000000614D5D4F80C0540F00200C4F80C054C
:1019D000A86D4146401CA865062085F85D0004F509
:1019E000A164306800F044FC80202060ACE7D4F8AB
:1019F0000805C006A8D595F83F00032809D1D4F8FA
:101A00000C0540F00200C4F80C054146306800F0B7
:101A10002FFC032085F85D00C4F8087595F83F0099
:101A200008B1022890D1D4F8000520F0804040F0A1
:101A30000040C4F8000587E72DE9F047026802EB93
:101A40004114D4F808254FF0040C520709D5C4F806
:101A500008C5D4F80C0540F00200C4F80C05BDE838
:101A6000F087D4F8082501EB810392064FF00206B7
:101A700000EBC30514D52022C4F8082595F83D20B5
:101A8000012AECD185F85DC0D4F80C2542F00202A1
:101A9000C4F80C25006800F0EBFB85F85C60DEE71D
:101AA000D4F808254FF0000352060FD585F85DC025
:101AB000AB65D4F80C2542F00202C4F80C2500688E
:101AC00004F5A16400F0D4FB402010E0D4F8082510
:101AD00092050ED5D4F80C2542F00202C4F80C256C
:101AE000006804F5A16400F0C3FB4FF400702060AF
:101AF000B5E7D4F808254FF00108D20710D0AB6540
:101B0000D4F80C2542F00202C4F80C25006804F554
:101B1000A16400F0ADFBC4F8008085F85D809EE70D
:101B2000D4F808254FF0080912074FF0050A0DD523
:101B3000C4F80895D4F80C2542F00202C4F80C252C
:101B4000006800F095FB85F85DA088E7D4F80825CB
:101B50004FF01007D20610D5AB65D4F80C2542F033
:101B60000202C4F80C25006804F5A16400F080FBB3
:101B7000032085F85D00276071E7D4F80825120678
:101B80000FD5D4F80C2542F00202C4F80C250068E9
:101B900004F5A16400F06CFB062085F85D00802050
:101BA000A5E7D4F80825520511D5D4F80C2542F044
:101BB0000202C4F80C25006804F5A16400F058FB8B
:101BC00027604FF48060206085F85D9047E7D4F887
:101BD000082592078CD5D4F80C2522F00202C4F80F
:101BE0000C2595F85D20012A0AD0032A26D0042A64
:101BF00013D0052A16D0062A17D0082A15D01FE0C0
:101C000085F85C8095F83F20022A19D195F851207B
:101C100082F0010285F8512012E085F85C6085F8B9
:101C20003D300DE085F85CA00AE0AA6D571CAF6559
:101C3000032A03D9AB6585F85CC001E085F85C60D8
:101C4000C4F8086595F85C20FEF7F6FC07E77CB55C
:101C500004680546D4F840040190D4F8400420F00C
:101C60002E000090019880070DD50198C00706D07E
:101C7000A06920F00051A1612846FEF7D5FC00982C
:101C800040F002000090019800072CD5009840F029
:101C900008000090019840071AD5A869022803D0CF
:101CA000E86803280CD00FE00198C0F341400228F7
:101CB000286803D0012100F085FB05E00221FAE746
:101CC0004EF66020C4F804042846FEF7ADFC0AE096
:101CD000D4F8400420F02E00C4F84004286881693C
:101CE00041F00051816101988006009802D540F0D2
:101CF00020000090C4F840047CBD00002DE9F041B4
:101D0000024600680646016AC1F3434301F00F072B
:101D1000C1F30A14022B25D1002C23D007EB870135
:101D200002EBC105696C00291CD0224600F069FB5A
:101D3000686C20446864E86C2044E86406EB471053
:101D4000D0F81015084A11420CD0D0F8001521F037
:101D5000804141F00041C0F8001515F8500F80F0A7
:101D600001002870BDE8F0810000F81FFEE70000C8
:101D70002DE9F041C26A012613460468921C39B16C
:101D80001B491C4D4FF040278C4217D12C4616E0C2
:101D9000E168C2621980418E491E4186418E002948
:101DA0000AD101684A684FF69F731A404A601BE0E7
:101DB00080F84160FEF7B4FEBDE8F0813C46E4687F
:101DC000C2621C80428E521E4286428E002AF3D18D
:101DD00002688A4201D1294600E03946496821F06B
:101DE000600100D03D466960418D0029E0D0E3E705
:101DF000003800400034004070B5426A0125941C50
:101E00000368446241B11B4912881B4C4FF04026C5
:101E10008B4216D1234615E01188D960418D491EA9
:101E20004185418D00290BD101684A684FF65F73E7
:101E30001A404A6019E000BF80F84150FEF770FE7A
:101E400070BD3346DA60428D521E4285428D002AB3
:101E5000F6D102688A4201D1214600E03146496844
:101E600021F0A00100D034466160418E0029E3D00A
:101E700070BD00000038004000340040FEB501682D
:101E800004468868019094F841000125042833D164
:101E900001984FF69F76C00716D04868C0434006A9
:101EA00012D4CA682046E16A8B1CE3620A80618E04
:101EB000491E6186618E39B901684A6832404A60BC
:101EC00080F84150FEF736FF0198400614D520688F
:101ED0004168C94389060FD4416831404160206898
:101EE000C1688068009084F84150606C40F0020046
:101EF00060642046FEF715FE94F84100032834D1B3
:101F000001984FF65F76800718D520684068C04377
:101F1000000613D4616A20468A1C6262226809881E
:101F2000D160618D491E6185618D39B901684A684A
:101F300032404A6080F84150FEF7FDFE01980007EC
:101F400013D520684168C94389060ED441683140E1
:101F5000416020688068009084F84150606C40F0D7
:101F6000040060642046FEF7DCFDFEBDFEE770471E
:101F70000907090E002806DA00F00F0000F1E02042
:101F800080F8141D704700F1E02080F800147047BD
:101F90000148FEF755BB00000802002010B5502094
:101FA00080F31188BFF34F8FBFF36F8F01F0BCFC3C
:101FB00018B104494FF080500860002080F3118868
:101FC00010BD000004ED00E01048016841F470010C
:101FD00001600F48016841F0010101600C4A0021D5
:101FE0000832116002680B4B1A400260031D0A4A56
:101FF0001A60026822F48022026005480C300160F9
:1020000002495806803908607047000088ED00E0FA
:1020100000380240FFFFF6FE103000240148FFF7B1
:1020200032BB0000CC010020F0B50268234B244DE8
:10203000244E254F254C4FF0804C984209D06045E6
:1020400007D0A84205D0B04203D0B84201D0A04288
:1020500004D122F0700E4A6842EA0E0298421BD068
:10206000604519D0A84217D0B04215D0B84213D05D
:10207000A04211D0164DA8420ED0164DA8420BD04A
:10208000154DA84208D0154DA84205D0144DA842C0
:1020900002D0144DA84203D122F44075CA682A43E5
:1020A00002608A68C2620A688262984201D0A042D5
:1020B00001D10969016301214161F0BD00000140C6
:1020C0000004004000080040000C004000040140F3
:1020D0000040014000440140004801400018004019
:1020E000001C0040002000400B2907D200EB8100BB
:1020F000B0F87C13C1F30E01C0F87C1300207047C8
:1021000010B50446007818B1207801280AD00BE0F9
:10211000012084F81E03D4F8C4232AB104212046E8
:10212000904701E00220207000220121D4F8C8036A
:1021300000F00AFD002010BD10B5044600F046F87E
:1021400021792046FFF7D0FF61792046FFF7CCFFC9
:10215000002084F81E03D4F8C42312B105212046C0
:102160009047204600F022F8032020700022012131
:10217000D4F8C80300F0E8FC002010BDD0F8B81374
:10218000491CC0F8B81301780A2905D1D0F8741396
:10219000002901D089690847704710B5D0F8C803F5
:1021A0000022022100F0D0FC002010BD10B5002458
:1021B000D0F8C003FEF7DFFA30B1012801D00228C1
:1021C00001D0022400E00124204610BD10B50024F7
:1021D000D0F8C003FEF7E5FA30B1012801D002289B
:1021E00001D0022400E00124204610BD08B5D0F83B
:1021F000402422F02E020092D20405D4012909D1F4
:10220000009941F4805103E021B9009921F48051F3
:10221000C0F84014002008BD816841F001018160D0
:1022200000207047002110220261054A491C91429A
:1022300001D9032070470369DB06F7D400207047FB
:10224000400D03000022202343EA8111016105496A
:10225000521C8A4201D90320704703699B06F7D4B8
:1022600000207047400D0300406900F001007047F6
:1022700010B50246002302F5A06000EB4110006893
:10228000C0F3814040B102F5A06000EB411000684E
:10229000C0F38140022846D102F5A06000EB411056
:1022A000006840F0804402F5A06000EB411004603B
:1022B000D06A00F47F0048BB02F5A06000EB41103B
:1022C000006820F0004402F5A06000EB41100460BB
:1022D00002F5A06000EB4110006840F0004402F5F8
:1022E000A06000EB4110046000BF581C0346B0F52D
:1022F0007A7F00D909E002F5A06000EB4110006888
:1023000000F00040B0F1004FEFD053E002F5A060C4
:1023100000EB4110006840F0004402F5A06000EBC3
:102320004110046046E002F5A06000EB4110006837
:1023300040F0804402F5A06000EB411004604FF4CF
:102340008260805880B248BB02F5A06000EB41106B
:10235000006820F0004402F5A06000EB411004602A
:1023600002F5A06000EB4110006840F0004402F567
:10237000A06000EB4110046000BF581C0346B0F59C
:102380007A7F00D909E002F5A06000EB41100068F7
:1023900000F00040B0F1004FEFD00BE002F5A0607C
:1023A00000EB4110006840F0004402F5A06000EB33
:1023B00041100460002010BD014640F21440405816
:1023C00080B27047D0F8002422F00302C0F8002445
:1023D000D0F8002401F003031A43C0F800240129B7
:1023E00002D0022903D006E04BF6803101E041F231
:1023F0007071C0F80414002070474169806908407A
:10240000704710B503460020D21C920803F5805394
:1024100003E01C6841F8044B401C9042F9D3084685
:1024200010BDF0B505460027A86820F00100A8609F
:1024300010212846FFF706FF2846FFF7F3FE002489
:1024400011E005F5A06000EB4410066846F08046F8
:1024500026F0004626F4004605F5A06000EB441087
:102460000660601CC4B20F2CEBDD002423E005F5F0
:10247000A06000EB4410066846F0804646F0004637
:1024800026F4004605F5A06000EB4410066000BF8E
:10249000781C0746B0F57A7F00D909E005F5A06001
:1024A00000EB4410006800F00040B0F1004FEFD0A6
:1024B00000BF601CC4B20F2CD9DD4FF0FF3140F2D9
:1024C0001440415108466861A86840F00100A860C6
:1024D0000020F0BDFEE70000034800F05DF9962003
:1024E00000F022FBF8E7000044000020034800F061
:1024F00053F9C82000F018FBF8E700004C0000205A
:102500004FF4FA74034800F047F9204600F00CFB42
:10251000F8E70000540000202DE9F04F87B01421A7
:102520006846FDF7F9FE4E480024016841F01001AD
:102530000160016801F010010591016841F004019A
:102540000160016801F004010591016841F080011A
:102550000160016801F080010591016841F001010D
:102560000160016801F001010591016841F002017B
:102570000160016801F002010591016841F0080164
:1025800001600068002200F008000590082135482D
:10259000FEF73EF8DFF8D080012211464046FEF7F4
:1025A00037F8DFF8C8B04FF2100900224946584604
:1025B000FEF72EF8082601250096CDE9015469465C
:1025C00028480394FDF748FF0095CDE9015469467A
:1025D00040460394FDF740FF00960226CDE90164D2
:1025E0000527CDE9034769464046FDF735FFDFF88B
:1025F00080800095CDE9018469461E48FDF72CFFD7
:102600000420CDE90004DFF870A06946504602942A
:10261000FDF722FFA8020090CDE90164CDE9034750
:1026200069465046FDF718FFCDF80090CDE90154FA
:10263000694658460394FDF70FFF2020CDE90004BA
:10264000694658460294FDF707FF0096CDE90184DC
:1026500069460448FDF700FF07B0BDE8F08F0000B1
:10266000303802400010024000080240000C0240D6
:102670000000121000000240000402400B480A490A
:102680004FF4007201604FF482714160002181605B
:10269000C1600161C0E90512C161016241628162EC
:1026A0000A21C162FEF750BF0030014074010020D2
:1026B000034800F071F8642000F036FAF8E70000F3
:1026C0003C00002070B596B030216846FDF724FE2E
:1026D00014210CA8FDF720FE00251F481195129526
:1026E00013951495016841F080510160006800F075
:1026F000805015901948016841F4804101600068DC
:10270000012600F4804015903004CDE900600224D9
:102710008001CDE90640082008904FF4A870CDE96B
:10272000090407200B906846FEF780FD0CA90F20D6
:1027300081E831004FF4A0500F90E0021090052185
:102740000CA8FEF77BFCC020CDE91204119611A85D
:10275000FEF7D6FB16B070BD403802400070004056
:1027600010B504468088012281B20348FDF750FF6E
:1027700001202060002010BD000C024010B504466E
:102780008088002281B20348FDF742FF00202060CC
:1027900010BD0000000C024010B50446808881B2D4
:1027A0000648FDF731FF206810B1012802D003E090
:1027B000012000E000202060002010BD000C02403D
:1027C0004160002101607047704702E008C8121F95
:1027D00008C1002AFAD170477047002001E001C10A
:1027E000121F002AFBD1704710B54FF480511348D7
:1027F000FFF7E6FF124A1349FDF7AAFD0F484FF411
:1028000000510830FFF7DCFF0D4A0E49FDF7A0FD2F
:102810000A484FF480411030FFF7D2FF084A0949B7
:10282000FDF796FD05484FF400411830FFF7C8FF4B
:10283000BDE81040024A0349FDF78ABD3C00002074
:1028400000000008C927000810B5002821D0114B4E
:102850000022001F196803E0814203D80A46496834
:102860000029F9D152B11368841A9C4204D100683E
:1028700018441060104602E0506000E0186039B162
:1028800002680B1A934203D10B681A44026049682C
:10289000416010BDCC000020EFF30580002800D07F
:1028A00001207047A4B0FEF74FFAFFF70BFFFFF7C8
:1028B00033FE79487749002401607849C0E9011462
:1028C0004FF48041C0E9034144618461C461046202
:1028D000FDF77AFF70487249543001604915C0E92C
:1028E0000114C0E903416F49C0E90514C4610462E1
:1028F000FEF718F9FFF7C2FE6B48FFF731FFFA2029
:10290000FDF798FD6848FFF739FF67480830FFF783
:1029100027FFFA20FDF78EFD63480830FFF72EFFF2
:1029200061481030FFF71CFFFA20FDF783FD5E4879
:102930001030FFF723FF5C481830FFF711FFFA2033
:10294000FDF778FD58481830FFF718FFFA20FDF71B
:1029500071FD5548FFF720FFFA20FDF76BFD524847
:102960000830FFF719FFFA20FDF764FD4E481030DC
:10297000FFF712FFFA20FDF75DFD4B481830FFF717
:102980000BFFFA20FDF756FD4FF47A70FDF752FD6C
:102990001CA81C9400F006F9434D3C3DE8611DA8BD
:1029A0001D9400F0FFF828621EA81E9400F0FAF8AB
:1029B00068621FA81F9400F0F5F8A862012120A802
:1029C000209400F0F2F8E862012121A8219400F09F
:1029D000ECF82863012122A8229400F0E6F868634D
:1029E000012123A8239400F0E0F8A86314222F49C2
:1029F0006846FDF778FC0021684600F0E9F82B49AD
:102A000028601422143105A8FDF76DFC002105A8EB
:102A100000F0DEF825496860142228310AA8FDF785
:102A200062FC00210AA800F0D3F82049A860142213
:102A30003C310FA8FDF757FC00210FA800F0C8F8A3
:102A40001A4CE860203CD4E90001CDE914010021D2
:102A500014A800F075F82861D4E90201CDE9160147
:102A6000002116A800F06CF86861D4E90401CDE9F2
:102A70001801002118A800F063F8A861D4E9060144
:102A8000CDE91A0100211AA800F05AF8A86100F057
:102A900052F8FEE700540040D8000020A086010054
:102AA000003C0040007701003C000020E03B0008B3
:102AB00001460020842900D0C81C7047F0B50B30B7
:102AC000154D20F007010024144A0FE003688B42E3
:102AD0000BD38B4205D95E1A43184768C3E90067D8
:102AE00000E04368136002C004E0021D1068002883
:102AF000ECD12046002802D1286808B10020F0BDA2
:102B0000064A07481060074A121A22F00702C0E975
:102B1000002401202860D7E7D0000020CC0000204E
:102B2000944100209043002010B500B9012000F02E
:102B3000D3FB002010BD10B500F024FC002010BD18
:102B400003C8002200F00ABD37B5054682B0002058
:102B50000090140000D10124FFF79EFE4FF0000307
:102B600088B16A4603A9284600F010FE012811D159
:102B7000009890B10A494FF080500860BFF34F8F22
:102B8000BFF36F8F09E0224603A9284600F04EFDEF
:102B9000012802D0FF2005B030BD0020FBE7000077
:102BA00004ED00E0012000F0C7BC10B5012901D000
:102BB000002010BD03220021012000F0CFFC040002
:102BC00004D000231A46194600F030FD204610BDFF
:102BD0003EB504460D46B0F90800FFF769FF02A9AB
:102BE000CDE90001208A2B4682B2D4E9001000F022
:102BF00061FE012801D000203EBD02983EBD0000CC
:102C00002DE9F041184C0F460546E6682068001D86
:102C100000F082FA38B9206890F82C100120884022
:102C2000216981432161681C07D137B12168BDE862
:102C3000F0410E48091D00F0A7BA20683544B5429E
:102C40004560216805D2A06BBDE8F041091D00F088
:102C500083BA606B091D00F07FFAA06A854200D23A
:102C6000A562BDE8F08100006C0000207C0500201A
:102C70002DE9F041054600F093FA2E4CA068401C67
:102C8000A06020682C4F10B1606940B32DE0256032
:102C9000A068012829D1002606EB860007EB8000FA
:102CA00000F04CFA761C072EF6D323488C3000F047
:102CB00045FA2148A03000F041FA1F48B43000F036
:102CC0003DFA1D48C83000F039FA1B48DC3000F0EE
:102CD00035FA19488C3060631430A06305E0206831
:102CE000E96AC06A884200D82560606A401C606258
:102CF000E96A0120226988401043206101EB8100CC
:102D000007EB8000291D00F03FFA00F069FA6069C6
:102D100000280CD02068E96AC06A884207D20749B7
:102D20004FF080500860BFF34F8FBFF36F8FBDE847
:102D3000F08100006C000020A004002004ED00E001
:102D400070B5114E114C17E000F050FB3068B8B16F
:102D500000F0D4FE00F024FAF068C568281D00F0E9
:102D6000DBF9A068401EA0606068401E606000F053
:102D700037FA284600F042F860680028E4D170BDB8
:102D800000F0BCFEF8E70000680500206C000020A1
:102D90002DE9F041856B174604460026026C82B18E
:102DA000C7B1E068FDF79FFAE168206C091AE1609D
:102DB0002268914202D26168081AE060022F16D0A0
:102DC00017E02068A8B9606800F012FE06460020EF
:102DD00060600EE0A068FDF786FA216CA0680844E8
:102DE000A0606168884204D32068A06001E005B15A
:102DF0006D1E6D1CA5633046BDE8F08110B504461C
:102E0000006B00F001FA2046BDE8104000F0FCB96C
:102E100010484FF47051420706D0C01D0D4920F0F4
:102E20000700411AC1F570510B4A00230144C2E961
:102E300000030839103A21F0070111604B600B6064
:102E40000B1AC0E9001393604FF000405360D0604C
:102E50007047000090050020B8000020074C4FF09C
:102E60008056074DFFF76CFF20680128FAD92E60C5
:102E7000BFF34F8FBFF36F8FF4E70000A004002073
:102E800004ED00E02DE9F0479A46DDE9098481462A
:102E90006FF00303206B03EB82021044089D20F0C7
:102EA0000706700707D0502080F31188BFF34F8FBB
:102EB000BFF36F8FFEE723180A5C83F834200A5CA7
:102EC00012B1401C1028F6D3002784F84370072D58
:102ED00000D30625E562C4E91157201D00F039F939
:102EE00004F1180000F035F92461C5F107006462AF
:102EF000A061E76484F8507052464946304600F0BD
:102F0000F5F82060B8F1000F01D0C8F80040BDE826
:102F1000F087000030B5114900E011460A6882428E
:102F2000FBD34B685C18844203D140681844486066
:102F3000084643681C18944209D1084C103C246888
:102F4000A24209D052681A4442600A6812680260BC
:102F5000814200D0086030BD0460F9E7B80000206D
:102F60000648416B096829B1416BC968C96849685D
:102F7000816270474FF0FF31FAE700006C000020DB
:102F800008484068401C4FF0500080F3118804D07E
:102F9000BFF34F8FBFF36F8FFEE7BFF34F8FBFF3CA
:102FA0006F8FFEE7C00000202DE9F041044600F0DD
:102FB000F7F894F9455004F1240609E0606A48B135
:102FC000304600F061FD08B100F0ACF96D1E6DB245
:102FD000002DF3DC4FF0FF3684F8456000F000F977
:102FE00000F0DEF894F9445004F1100709E020697C
:102FF00048B1384600F048FD08B100F093F96D1E65
:103000006DB2002DF3DC84F84460BDE8F04100F0BF
:10301000E7B800002DE9F0410546002700F0E6F989
:10302000314E306808B9FFF7F3FEF06805424BD126
:10303000C5B3083568070ED005F00700C0F10800D9
:103040000544680707D0502080F31188BFF34F8FE5
:10305000BFF36F8FFEE72DB37068854234D82248E6
:10306000103001460C6801E020460C466168A94218
:1030700002D221680029F7D131688C4224D0076838
:103080002168016060680837411B10290FD9601959
:10309000420708D0502080F31188BFF34F8FBFF351
:1030A0006F8FFEE710E041606560FFF733FF6168F6
:1030B0007068401A7060B268904200D2B060F068E8
:1030C00001430020C4E9000100F018FD780707D093
:1030D000502080F31188BFF34F8FBFF36F8FFEE74F
:1030E0003846BDE8F0810000A800002010B5031F9D
:1030F0004FF080741C601B1F21F001011960191F23
:10310000044B0B6014390A60091F6FF00202443847
:103110000A6010BD812F0008D0E9013201699A6070
:10312000D0E901235A604A68824201D182684A602C
:10313000002202610868401E0860704700F1080123
:103140004FF0FF32C0E90112C1600161002101604E
:10315000704700210161704730B50B685A1C02D0DE
:1031600000F1080202E0026904E022465468256882
:103170009D42FAD953684B6099608A60516008613A
:103180000168491C016030BD42684A6093688B60E9
:1031900093685960916008610168491C016070473B
:1031A000502080F31188BFF34F8FBFF36F8F0A4910
:1031B0004868401C486001280CD10848006810F09D
:1031C000FF0F07D0502080F31188BFF34F8FBFF35C
:1031D0006F8FFEE770470000C000002004ED00E0A4
:1031E0000849486828B1401E486001D180F3118821
:1031F0007047502080F31188BFF34F8FBFF36F8F5C
:10320000FEE70000C000002070B5002827D0144D54
:10321000A0F108046168E868014207D1502080F3FA
:103220001188BFF34F8FBFF36F8FFEE722683AB16B
:10323000502080F31188BFF34F8FBFF36F8FFEE7ED
:103240008143616000F0D2F8606869680844686092
:103250002046FFF75FFEBDE8704000F04FBC70BD38
:10326000A800002006484FF47A710068B0FBF1F125
:103270004FF0E020491E41610721016170470000C5
:103280006800002010B5FCF7E7FF114910280ED3A5
:1032900000F1E02090F8F0030A78904207D2502025
:1032A00080F31188BFF34F8FBFF36F8FFEE709489C
:1032B0000068896800F4E060884207D9502080F3F4
:1032C0001188BFF34F8FBFF36F8FFEE710BD000073
:1032D000C00000200CED00E010B5020014D00F4833
:1032E000006B38B1502080F31188BFF34F8FBFF3CC
:1032F0006F8FFEE700F07AF800211046FFF780FCA0
:1033000000F0FCFB002807D105494FF08050086011
:10331000BFF34F8FBFF36F8F10BD00006C00002014
:1033200004ED00E001490120C86170476C000020F5
:1033300010B50C4650B1094909681831FFF70CFF68
:103340002046BDE810400121FFF75ABC502080F311
:103350001188BFF34F8FBFF36F8FFEE76C00002023
:1033600028B107490A6A0260C96841607047502065
:1033700080F31188BFF34F8FBFF36F8FFEE700001C
:103380006C0000201CB515480024CDE90040234600
:10339000802213A1144800F08DFA012809D0401CA6
:1033A0001AD1502080F31188BFF34F8FBFF36F8F76
:1033B000FEE7502080F31188BFF34F8FBFF36F8F6C
:1033C00006484FF0FF312C38816201214161C46011
:1033D000BDE81C4000F040B81CBD00009800002073
:1033E00049444C45000000005D2E00080248016B76
:1033F000491C0163704700006C0000201448016BF9
:1034000011B10121C16170470021C1610169B1FAA7
:1034100081F1C1F11F0101EB81020E4951F8223007
:103420006BB101EB820101F108034A6852684A60FE
:103430009A4201D152684A60D168016070475020B9
:1034400080F31188BFF34F8FBFF36F8FFEE700004B
:103450006C000020A00400201CB532480168324AEC
:10346000914207D1502080F31188BFF34F8FBFF3F3
:103470006F8FFEE700682C49491E884207D1502013
:1034800080F31188BFF34F8FBFF36F8FFEE727499B
:1034900008780190FF20087008788DF800009DF8EA
:1034A00000009DF8002000F0F000904207D050206E
:1034B00080F31188BFF34F8FBFF36F8FFEE79DF846
:1034C00000001B4A00F0500010700720906005E0DB
:1034D0009DF800305B008DF80030401E9DF80030F4
:1034E0001B06F5D4000200F4E060906001980870BB
:1034F0000C482030016841F470010160016841F01E
:1035000070410160FFF7AEFE00205060FCF76AFEDC
:103510000848016841F040410160FCF753FE00207B
:103520001CBD000000ED00E071C20F4100E400E0AE
:10353000C000002034EF00E010B502460021012059
:1035400000F00CF8041E07D00021416001600B461A
:103550000A46C16000F06AF8204610BD70B50E46FC
:10356000050013D0D6B105FB06F04830FFF752FD39
:10357000040009D004F1480120468EB10160C0E981
:103580000F56012100F00EF8204670BD502080F348
:103590001188BFF34F8FBFF36F8FFEE70020E4E782
:1035A0000060ECE770B50D46040025D0FFF7F8FD8C
:1035B000D4E90F20216802FB001161600021A163A2
:1035C0002168A1600A46D4E90F01401E00FB0121D9
:1035D000E16021464FF0FF3001F8440F487004F1DC
:1035E00010008DB1FFF7AAFD04F12400FFF7A6FD3E
:1035F000FFF7F6FD012070BD502080F31188BFF366
:103600004F8FBFF36F8FFEE721690029F0D000F0E4
:103610003BFA0028ECD004494FF080500860BFF31B
:103620004F8FBFF36F8FE3E704ED00E02DE9FF4715
:1036300082B01D468A464FF00008040003D0BAF15C
:10364000000F08D011E0502080F31188BFF34F8F96
:10365000BFF36F8FFEE7206C38B1502080F31188E4
:10366000BFF34F8FBFF36F8FFEE7022D0AD1E06BE0
:10367000012807D0502080F31188BFF34F8FBFF38C
:103680006F8FFEE700F042F93F4F4FF000094FF017
:10369000805648B9049838B1502080F31188BFF3A0
:1036A0004F8FBFF36F8FFEE7FFF77AFDA06BE16BE3
:1036B000884207D3022D05D00498D0B1B8F1000F8D
:1036C0001AD01EE02A4651462046FFF761FB616A88
:1036D00019B104F1240000F0D7F920B13E60BFF326
:1036E0004F8FBFF36F8FFFF77BFD012006B0BDE862
:1036F000F087FFF775FD22E06846FFF731FE4FF0D7
:103700000108FFF76DFDFFF771FEFFF749FD94F922
:103710004400401C01D184F8449094F94500401CB9
:1037200001D184F84590FFF75BFD04A9684600F0DD
:103730008BF830B12046FFF737FC00F0DFF90020AE
:10374000D4E7FFF72DFDA06BE16B884213D1FFF7A3
:1037500047FD04F110000499FFF7EAFD2046FFF74A
:1037600023FC00F0CBF900289ED13E60BFF34F8FC1
:10377000BFF36F8F98E7FFF733FD2046FFF714FC88
:1037800000F0BCF990E7000004ED00E02DE9F047FF
:103790001F4690468946040003D0B9F1000F08D0B7
:1037A00011E0502080F31188BFF34F8FBFF36F8F6C
:1037B000FEE7206C38B1502080F31188BFF34F8FA3
:1037C000BFF36F8FFEE7022F0AD1E06B012807D00D
:1037D000502080F31188BFF34F8FBFF36F8FFEE748
:1037E000FFF750FD5020EFF3118680F31188BFF3EF
:1037F0004F8FBFF36F8FA06BE16B884206D3022F10
:1038000004D0002086F31188BDE8F08794F9455074
:103810003A4649462046FFF7BBFA681C04D06D1CA7
:1038200084F845500120EDE7606A0028FAD004F1E1
:10383000240000F029F90028F4D0B8F1000FF1D0ED
:103840000121C8F80010EDE770B50D46040019D04D
:1038500005B3FFF7A5FC164AD1682868431C0FD0B2
:103860002368126A934202D062688A421AD9626857
:10387000891A814216D2401A28602046FFF770FD4F
:10388000002410E0502080F31188BFF34F8FBFF366
:103890006F8FFEE7502080F31188BFF34F8FBFF387
:1038A0006F8FFEE70124FFF79BFC204670BD0000F0
:1038B0006C0000202DE9FF5F8346DDE90E87994605
:1038C00016468A469000FFF7A5FB05001AD0542043
:1038D000FFF7A0FB040012D025630021CDE90241CF
:1038E000CDE900874B46324651465846FFF7CAFAA3
:1038F0002046FFF7BDF9012004B0BDE8F09F28463F
:10390000FFF782FC4FF0FF30F6E700000548416901
:1039100019B1006B18B100207047012070470220D8
:10392000704700006C0000202DE9F0412E4C00276C
:10393000206B40B1A069401CA061E06900B1012783
:103940003846BDE8F081E668761CE66013D1606B0E
:10395000006838B1502080F31188BFF34F8FBFF358
:103960006F8FFEE7606BA16B6163A063206A401CF0
:103970002062FFF7F5FAA06ADFF87080864209D36B
:10398000606B006880B1606BC068C568686886421B
:103990000DD2A0622068C06A00EB800158F82100B7
:1039A0000128CAD90127C8E74FF0FF30F1E7281DE9
:1039B000FFF7B2FBA86A18B105F11800FFF7ACFBDE
:1039C000E86A0121226981401143216100EB8001F5
:1039D00008EB8100291DFFF7D7FBE86A2168C96A57
:1039E0008842CDD30127CBE76C000020A004002043
:1039F00070B504004FF0000140D0214D286884428A
:103A000007D0502080F31188BFF34F8FBFF36F8F23
:103A1000FEE7A06C38B1401EA064636CE26A9A4273
:103A20002CD040B12AE0502080F31188BFF34F8F93
:103A3000BFF36F8FFEE7201DFFF76EFB114A0121D8
:103A400050B9E06A00EB800352F8233023B92B69A8
:103A500001FA00F083432B61606CE062C0F1070063
:103A6000A061E06A2B6981401943296100EB800065
:103A700002EB8000211DFFF787FB0121084670BD86
:103A80006C000020A00400202DE9F041C068C4684B
:103A9000ACB104F118000746FFF73EFB154D286B4B
:103AA0000126A0B139461448FFF76EFBE06A296889
:103AB000C96A88421CD90120EE61BDE8F08150201E
:103AC00080F31188BFF34F8FBFF36F8FFEE7201D88
:103AD000FFF722FBE16A2A6906FA01F01043286128
:103AE00001EB81000449B43901EB8000211DDBE7C3
:103AF0000020E2E76C000020540500202DE9F0478B
:103B00002C4D00242746286B38B1FFF749FB286B62
:103B1000401E2863286B40B146E0502080F3118896
:103B2000BFF34F8FBFF36F8FFEE7A968224E0120CE
:103B3000D1B3A6F1B40980463068E8B1F068C46832
:103B400004F11800FFF7E8FA201DFFF7E5FAE06A34
:103B50002A6908FA00F11143296100EB800109EBA1
:103B60008100211DFFF710FBE06A2968C96A8842BD
:103B7000E2D3C5F81C80DFE70CB1FFF7F1F9AC69BF
:103B800044B14646FFF7D0FE00B1EE61641EF9D1A4
:103B90000020A861E86938B10849012738070860A2
:103BA000BFF34F8FBFF36F8FFFF71AFB3846BDE8A7
:103BB000F08700006C0000205405002004ED00E0B8
:103BC00010000000020000001000000002000000D1
:103BD00010000000020000001000000002000000C1
:103BE0006C3C0008B1260008000000000000000046
:103BF00080000000483C0008D9240008FDFF0000B8
:103C00000000000080000000543C0008ED24000883
:103C1000FDFF00000000000080000000603C000884
:103C200001250008FDFF00000000000080000000EA
:103C3000000000000000000001020304060708095C
:103C400000000000010203046D795461736B30328F
:103C5000000000006D795461736B30330000000088
:103C60006D795461736B30340000000064656661E7
:103C7000756C745461736B009C3C0008000000205C
:103C8000D8000000CA270008743D0008D8000020B2
:103C9000B8460000DA27000851EBFFFF00000000E3
:103CA0000000000000000000000000000000000014
:103CB0000000000000000000000000000000000004
:103CC00000000000000000000000000000000000F4
:103CD00000000000000000000000000000000000E4
:103CE00000000000000000000000000000000000D4
:103CF00000000000000000000100000010000000B3
:103D0000000000000024F40000000000000000009B
:103D100000000000000000000000000000000000A3
:103D20000000000000000000000000000000000093
:103D30000000000000000000000000000000000083
:103D40000000000000000000000000000000000073
:103D50000000000000000000000000000000000063
:103D6000AAAAAAAA000000000000000000000000AB
:043D7000000000004F
:040000050800018965
:00000001FF
